:020000040800F2
:1000000070450020450100086D120008ED08000849
:100010006912000851020008E126000800000000F3
:10002000000000000000000000000000392200086D
:10003000B1040008000000001D130008E9240008B6
:100040005F0100085F0100085F0100085F01000810
:100050005F0100085F0100085F0100085F01000800
:100060005F0100085F0100085F0100085F010008F0
:100070005F0100085F0100085F0100085F010008E0
:100080005F0100085F0100085F0100085F010008D0
:100090005F0100085F0100085F0100085F010008C0
:1000A0005F0100085F0100085F0100085F010008B0
:1000B0005F0100085F0100085F0100085F010008A0
:1000C0005F0100085F0100085F0100085F01000890
:1000D0005F0100085F0100085F0100085F01000880
:1000E0005F0100085F0100085F0100085F01000870
:1000F0005F0100085F0100085F0100085F01000860
:100100005F010008211600085F0100085F01000878
:100110005F0100085F0100085F0100085F0100083F
:100120005F0100085F0100085F0100085F0100082F
:10013000DFF80CD000F07AF800480047C14400080E
:10014000704500200648804706480047FEE7FEE766
:10015000FEE7FEE7FEE7FEE7FEE7FEE7FEE7FEE777
:10016000ED240008310100082DE9F05F054600206C
:1001700092469B4688460646814640241BE0284618
:1001800041464746224600F041F853465A46C01AB7
:10019000914110D311461846224600F028F82D1A36
:1001A00067EB01084F4622460120002100F01FF8AE
:1001B00017EB00094E41201EA4F10104DFDC484684
:1001C00031462A464346BDE8F09F40EA01039B07BB
:1001D00003D009E008C9121F08C0042AFAD203E0BC
:1001E00011F8013B00F8013B521EF9D27047202A5A
:1001F00004DB203A00FA02F1002070479140C2F17E
:10020000200320FA03F3194390407047202A04DBAF
:10021000203A21FA02F00021704721FA02F3D0407F
:10022000C2F120029140084319467047064C074D21
:1002300006E0E06840F0010394E8070098471034B6
:10024000AC42F6D3FFF778FFBC910008DC910008C0
:1002500000BFFEE770B500254FF4803400E0641E57
:1002600024B1802001F0BCF90028F8D014B903258E
:10027000284670BD40F2FF5001F06AF92846F8E7C1
:10028000014600BF0748406B00F045000028F9D048
:1002900040F2FF50034A9063104640690822104024
:1002A000C0B270470080014070B500251048446B13
:1002B00001E00F48446B04F045000028F9D004F039
:1002C000040028B10325042001F042F9284670BD3E
:1002D00004F0010028B10125012001F039F9284678
:1002E000F5E740F2FF5001F033F92846EFE7000050
:1002F0000080014070B500250B48446B01E00A48BE
:10030000446B04F045000028F9D004F0040028B143
:100310000325042001F01CF9284670BD40F2FF506F
:1003200001F016F92846F8E7008001402DE9F04178
:1003300006460F464FF000082248456B01E0214871
:10034000456B05F045000028F9D005F0040038B1F0
:100350004FF00308042001F0FBF84046BDE8F081AF
:1003600005F0010030B14FF00108012001F0F0F874
:100370004046F3E701F02EF9B04203D04FF01008E9
:100380004046EBE740F2FF5001F0E2F8002001F0B8
:100390003BF9044604F4604018B9200C388040460C
:1003A000DCE704F4005008B11320D7E704F48040E0
:1003B00008B11020D2E704F4004008B10F20CDE7C7
:1003C0004046CBE70080014070B500264FF48035F1
:1003D0000F48446B02E06D1E0D48446B04F045006D
:1003E00008B9002DF7D115B104F0040028B1032697
:1003F000042001F0ADF8304670BD04F0400028B193
:100400000026402001F0A4F83046F5E73046F3E737
:100410000080014000F0805111B10349086001E003
:100420000249486070470000040402400000024096
:1004300021B1026842F00102026004E002684FF656
:10044000FE731A400260704701460020002201F04E
:10045000805313B1054B1A6801E0054B1A6802EA94
:1004600001030BB1012000E00020704700040240AE
:100470000000024010B50022026847F6F0739A436C
:100480000C6A8B6823430C6923434C6923438C69B2
:100490002343CC6923434C6A23438C6A23431A4386
:1004A0000260CB6843600B6883604B68C36010BD1B
:1004B0007047000051B18200A2F1C042126842F0C0
:1004C00001038200A2F1C042136009E08200A2F1A0
:1004D000C0421268034B1A408300A3F1C0431A6064
:1004E00070470000FEFF0F00D0E901121143C268FF
:1004F0001143026911434269114382691143C26980
:100500001143026A1143426A1143826A1143C26A6B
:100510001143026B114302689200A2F1C0421160C4
:10052000816808290BD101688900A1F1C0410968DF
:1005300041F0400201688900A1F1C0410A60416BAD
:100540000968426B526841EA0211426B926841EAC3
:100550000221426B928941EA0241426B128A41EACE
:100560000251426B127D41EA0261426B9269114372
:100570000268521C9200A2F1C0421160C16AB1F53A
:10058000804F1BD1816B0968826B526841EA02116E
:10059000826B926841EA0221826B128A41EA02511F
:1005A000826B127D41EA0261826B9269114302689B
:1005B0009200A2F1C042C2F8041107E06FF070424D
:1005C00001688900A1F1C041C1F804217047000011
:1005D0002DE9FC4107460D4600260024002000902E
:1005E000019008205D490860102048604020886024
:1005F0000020C8604FF480600861084601F042F8AE
:100600001020FFF73DFE044614B12046BDE8FC81F2
:100610005348008800045149086037204860402052
:1006200088600020C8604FF480600861084601F0CF
:1006300029F83720FFF724FE04460CB12046E5E7F1
:100640004FF0FF304749086008204860302088603C
:100650000220C8600020086101204861084600F0BF
:100660008FFF00203D4908603320486040208860AB
:100670000020C8604FF480600861084601F002F86D
:100680003320FFF7FDFD04460CB12046BEE70CE029
:100690004FF4001000F0A4FF38B100F0EDFF4DF86A
:1006A0002600761C012E00D906E02F48406B40F250
:1006B0002A6108400028EBD000BF082000F090FF1E
:1006C00028B1082000F044FF042420469EE70220C1
:1006D00000F086FF28B1022000F03AFF02242046F5
:1006E00094E7202000F07CFF28B1202000F030FFAC
:1006F000062420468AE74FF4007000F071FF30B105
:100700004FF4007000F024FF072420467EE740F2FB
:10071000FF5000F01DFF00980006009901F47F4192
:1007200040EA0120009901F47F0140EA112000997C
:1007300040EA1160686001980006019901F47F4168
:1007400040EA0120019901F47F0140EA112001995A
:1007500040EA11602860204658E700003811002068
:10076000440000204C1100200080014008B5012108
:10077000302000F0E5FD4FF4F850ADF80000032004
:100780008DF8020018208DF803006946094800F032
:1007900015F80420ADF800006946074800F00EF88F
:1007A0000121880200F0BCFD0121022000F0B8FD0B
:1007B00008BD000000100140001401402DE9F04187
:1007C000024600250026002000230024002791F87F
:1007D00003C00CF00F0591F803C00CF0100CBCF135
:1007E000000F03D091F802C04CEA050591F800C053
:1007F000BCF1000F31D0146800202BE04FF0010C49
:100800000CFA00F3B1F800C00CEA03069E4220D1B6
:1008100083004FF00F0C0CFA03F7BC4305FA03FCFE
:100820004CEA040491F803C0BCF1280F06D14FF044
:10083000010C0CFA00FCC2F814C00AE091F803C0E5
:10084000BCF1480F05D14FF0010C0CFA00FCC2F8C6
:1008500010C0401C0828D1D31460B1F800C0BCF10E
:10086000FF0F34DD546800202EE000F1080C4FF03B
:10087000010808FA0CF3B1F800C00CEA03069E4226
:1008800021D183004FF00F0C0CFA03F7BC4305FA9B
:1008900003FC4CEA040491F803C0BCF1280F05D115
:1008A00000F1080C08FA0CF8C2F8148091F803C0A3
:1008B000BCF1480F07D100F1080C4FF0010808FA0D
:1008C0000CF8C2F81080401C0828CED35460BDE854
:1008D000F0810246002093680B400BB1012000E03C
:1008E00000207047416170470161704700BFFEE71B
:1008F00010B504462CB14FF480510548FFF7F2FFC4
:1009000004E04FF480510248FFF7EEFF10BD0000F5
:10091000001401402DE9F04106460F4614461D46DD
:100920002B4622463946304600F09AF904FB05F082
:100930000249098800F03CF8BDE8F081260000205B
:1009400001B502E00098401E009000980028F9D1FF
:1009500008BD00B597B00121080200F0E1FC0120BC
:1009600001900420039080060790002002900490DC
:10097000059006900890099008200A9010200B908E
:1009800000200C900E900F9010904FF4805011901A
:10099000002012901390149001A81590169008A8AA
:1009A000FFF7A2FD01210020FFF784FD17B000BD75
:1009B00070B504460D4600262C2000F0D9FA00BF81
:1009C00003E0284600F0D8FA761CA642F9D370BDA1
:1009D00008B50121602000F0B3FC03208DF802006F
:1009E00018208DF803004FF48040ADF800006946F0
:1009F0005B48FFF7E3FE4FF40040ADF800006946A6
:100A00005748FFF7DBFE0120ADF800006946544867
:100A1000FFF7D4FE0220ADF8000069465048FFF70A
:100A2000CDFE8020ADF8000069464E48FFF7C6FEB7
:100A30004FF48070ADF8000069464A48FFF7BEFEEB
:100A40004FF40070ADF8000069464648FFF7B6FE67
:100A50004FF48060ADF8000069464248FFF7AEFEF3
:100A60004FF40060ADF8000069463E48FFF7A6FE6F
:100A70004FF48050ADF8000069463A48FFF79EFEFB
:100A80004FF40050ADF8000069463648FFF796FE77
:100A90004FF48040ADF8000069463248FFF78EFE03
:100AA0004FF40040ADF8000069462E48FFF786FE7F
:100AB0004FF48070ADF8000069462948FFF77EFECC
:100AC0004FF40070ADF8000069462548FFF776FE48
:100AD0004FF48060ADF8000069462148FFF76EFED4
:100AE00003208DF8020018208DF803001020ADF8C7
:100AF000000069461A48FFF761FE2020ADF80000AB
:100B000069461748FFF75AFE8020ADF80000694695
:100B10001348FFF753FE4FF40060ADF8000069463C
:100B20000F48FFF74BFE10208DF8030003208DF8CF
:100B300002000220ADF8000069460A48FFF73EFEB9
:100B400010208DF8030003208DF802004FF4805030
:100B5000ADF8000069460248FFF730FE08BD00000E
:100B6000001401400018014070B504460D462946A6
:100B7000204600F0F3F900F0C1F90646304670BD9A
:100B800010B50446072C00DD10BD2848047020462F
:100B900004EBD0714910A4EB410139B9F02024498C
:100BA00008804FF4A0702349088006E04FF4A0703D
:100BB0001F490880F0201F490880362000F0D8F92E
:100BC000082141EA441000F0D7F92A2000F0D0F9BA
:100BD000002000F0D1F9002000F0CEF91449098876
:100BE000491EC1F3072000F0C7F911490978491ED1
:100BF000C8B200F0C1F92B2000F0BAF9002000F0D3
:100C0000BBF9002000F0B8F90A490988491EC1F370
:100C1000072000F0B1F907490978491EC8B200F071
:100C2000ABF92C2000F0A4F900BFADE71C000020B8
:100C3000180000201A00002010B5FFF7C9FEFFF7CA
:100C400088FE0120FFF754FE00F074F900F038F838
:100C500002480078FFF794FF10BD00001C00002040
:100C60002DE9F04104460D4616461F462A2000F0A5
:100C70007FF9201200F080F9E0B200F07DF9A119AF
:100C8000491EC1F30F2000F077F9A119491EC8B21F
:100C900000F072F92B2000F06BF9281200F06CF9CB
:100CA000E8B200F069F9E919491EC1F30F2000F01C
:100CB00063F9E919491EC8B200F05EF9BDE8F08198
:100CC00010B5CF2000F054F9002000F055F9812034
:100CD00000F052F9302000F04FF9ED2000F048F913
:100CE000642000F049F9032000F046F9122000F0DA
:100CF00043F9812000F040F9E82000F039F985201F
:100D000000F03AF9102000F037F9782000F034F9BB
:100D1000CB2000F02DF9392000F02EF92C2000F026
:100D20002BF9002000F028F9342000F025F90220EA
:100D300000F022F9F72000F01BF9202000F01CF948
:100D4000EA2000F015F9002000F016F9002000F06C
:100D500013F9B12000F00CF9002000F00DF91B2070
:100D600000F00AF9B62000F003F90A2000F004F9B7
:100D7000A22000F001F9C02000F0FAF8352000F0C0
:100D8000FBF8C12000F0F4F8112000F0F5F8C520C0
:100D900000F0EEF8452000F0EFF8452000F0ECF808
:100DA000C72000F0E5F8A22000F0E6F8F22000F0FD
:100DB000DFF8002000F0E0F8262000F0D9F801204C
:100DC00000F0DAF8E02000F0D3F80F2000F0D4F8BB
:100DD000262000F0D1F8242000F0CEF80B2000F0FF
:100DE000CBF80E2000F0C8F8092000F0C5F8542018
:100DF00000F0C2F8A82000F0BFF8462000F0BCF8D0
:100E00000C2000F0B9F8172000F0B6F8092000F027
:100E1000B3F80F2000F0B0F8072000F0ADF8002084
:100E200000F0AAF8E12000F0A3F8002000F0A4F8F8
:100E3000192000F0A1F81B2000F09EF8042000F01B
:100E40009BF8102000F098F8072000F095F82A2071
:100E500000F092F8472000F08FF8392000F08CF86D
:100E6000032000F089F8062000F086F8062000F044
:100E700083F8302000F080F8382000F07DF80F2053
:100E800000F07AF8362000F073F8C82000F074F80B
:100E90002A2000F06DF8002000F06EF8002000F02D
:100EA0006BF8002000F068F8EF2000F065F82B20C8
:100EB00000F05EF8002000F05FF8002000F05CF821
:100EC000012000F059F83F2000F056F83A2000F0D9
:100ED0004FF8552000F050F8112000F049F8034871
:100EE000FFF72EFD292000F043F810BDFCBF0200E3
:100EF00001480088704700000000026070B50024BF
:100F0000002500262E2000F033F8FFF7F1FF0446FD
:100F1000FFF7EEFF0446FFF7EBFF0646FFF7E8FF9B
:100F20000546E012C002A91240EA411040EAE6205C
:100F300070BD000010B502210748FFF7D3FC40F652
:100F4000FF20FFF7FDFC02210348FFF7CDFC40F630
:100F5000FF20FFF7F5FC10BD0018014070B50446F6
:100F60000D4601231A4629462046FFF779FE70BD3B
:100F70004FF0C04108807047014908807047000069
:100F80000000026008B50121142000F0D9F9012009
:100F9000ADF8000004208DF8030069460748FFF70C
:100FA0000DFC4FF40050ADF8000004208DF8030054
:100FB00069460348FFF702FC08BD00000008014035
:100FC0000010014070B504460D4629462046FFF743
:100FD00080FC012808D100BF29462046FFF779FC94
:100FE0000128F9D0012070BD0020FCE7024A1080E2
:100FF000024A1180704700002400002026000020D3
:101000000149086070470000200000202DE9F74FDB
:1010100092B09246012251464B4802F03DFB4B49AB
:1010200008700846007800282AD149A001F05AFB30
:1010300001AB022202A9444802F0EDFBBDF8080012
:1010400044F64251884205D045A001F04BFB15B053
:10105000BDE8F08F48A001F045FB01AB0C220DA9C3
:10106000394802F0D8FB0DA803F08AFC01AB282216
:1010700003A9354802F0CFFB03A803F0C1FC05E04B
:101080003248017842A001F02DFBE0E7049E059F65
:10109000BDF81A10714301F11F00C11700EBD161B7
:1010A00049114FEA8108B8F5707F03DD42A001F0D5
:1010B00019FBCCE7BBB2B2B2DDE91201FFF7D0FDFC
:1010C0002C20FFF755FFBDF81A00182832DB00244A
:1010D0002DE0381B401E0F9A00FB08211A4802F031
:1010E000E0F901AB42463F49174802F094FB4FF04C
:1010F000000919E009EB49053A49A81C11F800B0AC
:10110000681C095C11913748415D10914FEAEB0171
:10111000CA021199891042EA4112109942EAE1008B
:10112000FFF72AFF09F10109B145E3DB641CBC426A
:10113000CFDB03E02CA001F0D5FA88E7024802F0EB
:10114000A0F900BF83E70000241500205400002010
:10115000B4F2BFAACEC4BCFEB3C9B9A60D0A000042
:10116000D5E2B2BBCAC7D2BBB8F6202E626D7020E2
:10117000CEC4BCFE210D0A00D5E2CAC7D2BBB8F668
:10118000202E626D7020CEC4BCFE0D0A000000004F
:10119000B4F2BFAACEC4BCFECAA7B0DC21B4EDCE67
:1011A000F3B4FAC2EBA3BA626D70726573203D208E
:1011B0002564200D0A0000000A20B1BECDBCC6ACDB
:1011C000CCABB4F3A3ACCEDEB7A8D4DAD2BABEA708
:1011D000C6C1C9CFCFD4CABE20283C3D3332302946
:1011E0000A00000064110020D5E2B2BBCAC7D2BB1E
:1011F000B8F63234CEBBD5E6B2CAC9AB424D50CEFA
:10120000C4BCFEA3A100000008B50121082000F025
:1012100097F82020ADF8000010208DF8030003207F
:101220008DF8020069460F48FFF7C8FA0120ADF8B3
:10123000000069460B48FFF7C1FA0220ADF8000034
:1012400069460848FFF7BAFA20210648FFF74CFB29
:1012500001210448FFF748FB02210248FFF744FB45
:1012600008BD0000000C014000BFFEE7704708B554
:101270004FF4C06000F048F831208DF800000020E5
:101280008DF801008DF8020001208DF803006846FA
:1012900000F002F808BD000070B5002100230F2205
:1012A000C47804B3154C246804F4E064C4F5E06425
:1012B000210AC1F10403CA40447804FA03F1847896
:1012C0001440214309010E4C0678A155047804F01E
:1012D0001F050124AC4005786D11AD0005F1E02536
:1012E000C5F8004109E0047804F01F050124AC4072
:1012F000044D0678761145F8264070BD0CED00E0EF
:1013000000E400E080E100E002490143024A11608C
:10131000704700000000FA050CED00E07047000087
:1013200029B1064A52690243044B5A6104E0034A58
:1013300052698243014B5A6170470000001002401D
:1013400029B1064A92690243044B9A6104E0034AB8
:1013500092698243014B9A6170470000001002407D
:1013600030B500210022002400232D4D6D6805F0CA
:101370000C0121B1042905D0082923D105E0294D0C
:10138000056022E0274D05601FE0254D6D6805F4DE
:101390007012234D6D6805F48034022505EB9242EE
:1013A0001CB9214D554305600BE01D4D6D6805F4DA
:1013B00000351DB11C4D5543056002E0194D5543E4
:1013C000056002E0174D056000BF00BF144D6D6859
:1013D00005F0F0010909154D6B5C0568DD404560BD
:1013E0000F4D6D6805F4E061090A104D6B5C4568AE
:1013F000DD4085600A4D6D6805F46051C90A0B4DEA
:101400006B5C4568DD40C560054D6D6805F4404185
:10141000890B074D6B5CC568B5FBF3F5056130BD05
:101420000010024000127A0000093D000000002078
:10143000100000207CB5054600240020009001909B
:1014400000F0E2F800F0007010B10E2420467CBDE0
:101450003D49098888B26946FFF7BAF804460CB1DD
:101460002046F4E7012D36D1019800F480200028B1
:101470002ED0354800880004344908603720486081
:10148000402088600020C860A8020861084600F07B
:10149000F9F83720FEF7F4FE04460CB12046D6E7F3
:1014A00002202A4908600620486040208860002009
:1014B000C8604FF480600861084600F0E3F8062039
:1014C000FEF7DEFE04460CB12046C0E72046BEE72C
:1014D00025242046BBE7019800F4803078B31A48F1
:1014E000008800041949086037204860402088605F
:1014F0000020C8604FF480600861084600F0C2F820
:101500003720FEF7BDFE04460CB120469FE70020C1
:101510000E49086006204860402088600020C860AE
:101520004FF480600861084600F0ACF80620FEF732
:10153000A7FE04460CB1204689E7204687E7FFE76F
:101540002524204683E700004400002038110020B5
:1015500001498863704700000080014001498863A9
:10156000704700000080014001490860704700009A
:10157000A000304201490860704700008C053042ED
:1015800000210A4B02685A6242689A621A46D16A7E
:1015900021F0F701D0E902231A4303691A43436992
:1015A0001A431143014AD162704700000080014094
:1015B00000200649086048608860C8604862886208
:1015C000C862034888630020C863704700800140F8
:1015D000FF07C00001480069C0B2704700800140A9
:1015E00001460020034A526B0A400AB1012000E084
:1015F00000207047008001400248006800F00300AE
:10160000704700000080014008B5014600200090AE
:101610000248084400900098006808BD148001400A
:1016200010B500F047FC10BD29B1064AD26B024349
:10163000044BDA6304E0034AD26B8243014BDA6362
:10164000704700000080014000210A4A516847F6B7
:10165000FF629143027D83681A4343681A43C3685B
:101660001A4303681A4303691A431143014A51603C
:10167000704700000080014001480068704700008A
:10168000808001400021094B02689A601A46D168A7
:101690006FF30A01D0E901231A43C3681A430369AF
:1016A0001A431143014AD160704700000080014095
:1016B0000549096821F00301034A116011460968D0
:1016C00001431160704700000080014010B50248DE
:1016D000FEF7BAFE10BD00000020001030B58BB040
:1016E00005460C461348FEF795FE00211248FEF70A
:1016F0009FFE12480090019500200290A0080390E0
:1017000000200490802005908000069080000790C3
:10171000002008904FF40050099000200A9069467C
:101720000548FEF7A7FE01210348FEF781FE0BB036
:1017300030BD000000F000104404024080800140F1
:1017400030B58BB005460C461348FEF763FE00210A
:101750001248FEF76DFE124800900195102002908D
:10176000A00803900020049080200590800006903F
:1017700080000790002008904FF40050099000204E
:101780000A9069460548FEF775FE01210348FEF7F9
:101790004FFE0BB030BD000000F0001044040240CA
:1017A0008080014070B50446002521480068032868
:1017B00002D12725284670BD1D48006838B11C4855
:1017C0000068012803D01A48006802282ED1B4F519
:1017D000805F02D127252846EDE7B4F5006F14D1CC
:1017E0000120FFF727FE054605BB012011490875BA
:1017F00000200860486088604FF40060C8600020E6
:1018000008610846FFF720FF10E00020FFF712FEF6
:1018100005465DB901200749087500200860486049
:101820008860C86008610846FFF70EFF2846C2E7D7
:101830004000002020110020F0B5014600200022C9
:10184000BC4B1B7881F85630BB4B1B88A1F8543039
:10185000BA4B1B681A0E93090B70C2F383034B70CB
:1018600002F003038B70B54B1B68C3F30742CA70C9
:10187000B24B1B88C3F307220A71B04B1A784A7126
:101880005B681A0E1301CB80AC4B5B68C3F3074255
:10189000CB8843EA1213CB8002F00F030B72A74BE5
:1018A0009B88C3F30722D3094B72C2F380138B7258
:1018B000C2F34013CB72C2F300130B7300234B73BC
:1018C0009C4B1B681BB19B4B1B68012B4FD1930793
:1018D0001B0D0B61994B1A790B6943EA82030B616B
:1018E000964B9B681A0E0B6943EA92130B61C2F385
:1018F000C2030B7502F007034B75904B9B68C3F353
:10190000074253098B75C2F38203CB7593075B0FB4
:101910000B768A4B1B89C3F307220B7E43EAD21353
:101920000B760B695B1C0024C1E912340B7ED1E9F4
:1019300012649B1C012505FA03F3DF17A6FB035C69
:1019400004FB03C306FB0733C1E912530C7A0123DE
:10195000A3400B650027D1E912560B6DA5FB034C84
:1019600006FB03C305FB0733C1E912432DE0714BAE
:101970001B68022B29D1714B1A7993069B0A0B61C4
:101980006E4B9B681A0E0B6943EA02230B616B4B8B
:101990009B68C3F307420B6913430B61674B1B89B9
:1019A000C3F307220B695B1C4FF40074A3FB0434E0
:1019B0004FF480660025A3FB067C04FB06C403FBF2
:1019C0000543C1E9127373100B65C2F3801301F86C
:1019D000193F93065B0E4B70584B1A7A4B7843EACB
:1019E000D2134B7002F07F038B70544BDB681A0EDE
:1019F000D309CB70C2F341130B71C2F382034B7155
:101A000093071B0F8B714D4BDB68C3F307428B7938
:101A100043EA92138B71C2F34013CB7100230B7214
:101A200002F001034B72454B9B89C3F30722D30994
:101A30008B72C2F38013CB72C2F340130B73C2F3E9
:101A400000134B73C2F381038B7302F00303CB7358
:101A50003A4B1A7B53080B7401234B74384B1B68A9
:101A60001A0ECA741939364B1B68C3F307421402A5
:101A7000CC85334B1B88C3F30722CB8D1343CB8517
:101A80002F4B1A7814060C635B681A0E0B6B43EA33
:101A900002440C632A4B5B68C3F307420B6B43EAB7
:101AA00002240C63264B9B88C3F307220B6B134362
:101AB0000B63234B1A7934235A54214B9B681A0E1B
:101AC00035235A541E4B9B68C3F3074214068C639C
:101AD0001B4B1B89C3F307228B6B43EA02448C63C5
:101AE000174B1A7A8B6B43EA02248C63144BDB6826
:101AF0001A0E8B6B13438B63114BDB68C3F30742E6
:101B00003C235B5C43EA12143C235C5413071C0D1A
:101B1000CC870B4B9B89C3F30722CB8F1343CB8717
:101B2000074B1A7B540840235C54012441235C5426
:101B3000F0BD00004000002044000020981000206C
:101B4000A810002008B500200090684600F074FA44
:101B500008B1FF2008BD0098C0F34320FAE710B594
:101B60000424FFF7EFFF0446042C01D1002010BD30
:101B7000FF2C01D10220FAE70120F8E710B500247C
:101B8000FFF775FBFEF7F2FDFFF712FD00F0CEF850
:101B900004460CB1204610BD00F02AF804460CB1F2
:101BA0002046F8E7012010490875002008604860C9
:101BB0008860C86008610846FFF746FD1CB90B48FD
:101BC000FFF73AFE044634B90849B1F85410080446
:101BD00000F018FA044624B94FF40060FFF7E2FD64
:101BE00004462046D7E7000020110020C81000203E
:101BF00038B5002401200090FFF7FEFC10B9252421
:101C0000204638BD44480068042828D000204349B5
:101C1000086002204860C02088600020C8604FF43F
:101C2000806008610846FFF72DFDFEF73DFB044686
:101C30000CB12046E5E70020FFF7E6FC38490860D4
:101C40000420FFF7E1FC364948600820FFF7DCFC80
:101C5000334988600C20FFF7D7FC3149C8602E4813
:101C6000006858B12C480068012807D02A4800684D
:101C7000062803D028480068022816D100202749EA
:101C8000086003204860402088600020C8604FF44E
:101C9000806008610846FFF7F5FC69460320FEF7FF
:101CA00045FB04460CB12046ABE71B4800680428FE
:101CB0002ED0BDF800001B490860BDF800000004EC
:101CC0001649086009204860C02088600020C8606C
:101CD0004FF4806008610846FFF7D4FCFEF7E4FA91
:101CE00004460CB120468CE70020FFF78DFC0E491E
:101CF00008600420FFF788FC0B4948600820FFF7C4
:101D000083FC094988600C20FFF77EFC0649C86007
:101D10000024204675E70000400000203811002014
:101D2000A810002044000020981000202DE9F04168
:101D30000024002600250027A046B2205949087536
:101D40000020086048608860C86008610846FFF7A6
:101D50007BFC0320FFF7ACFC0120FFF705FC002013
:101D60005149086048608860C8604FF4806008612D
:101D70000846FFF787FCFEF76DFA044614B12046CB
:101D8000BDE8F0814FF4D5704749086008204860ED
:101D9000402088600020C8604FF4806008610846D9
:101DA000FFF770FCFEF710FB04462CB901203F49F9
:101DB00008604FF0804812E000203B49086037205F
:101DC0004860402088600020C8604FF4806008614F
:101DD0000846FFF757FC3720FEF752FA044600206A
:101DE0003149086037204860402088600020C86082
:101DF0004FF4806008610846FFF744FC3720FEF787
:101E00003FFA0446002C4AD136E0002026490860FB
:101E100037204860402088600020C8604FF4806010
:101E200008610846FFF72EFC3720FEF729FA044622
:101E30000CB12046A4E71E4848EA00001A49086091
:101E400029204860402088600020C8604FF48060EE
:101E500008610846FFF716FCFEF74CFA04460CB181
:101E600020468DE70020FFF7CFFB0646012080EAE1
:101E7000D67080F001076D1C1FB94FF6FF708542C8
:101E8000C3D34FF6FF70854202D31B24204677E769
:101E900006F08040061E02D0022004490860204659
:101EA0006EE70000201100203811002040000020C3
:101EB0000000108010B51148006801280BD10020E7
:101EC0000F49886040F24C40C8600C20FEF7D8F9FA
:101ED0000C49087002E000200A4908704FF4807035
:101EE000FFF73CFB00214FF48070FFF79DFB0120C2
:101EF000054908600348007810BD00004800002034
:101F0000008001404C000020500000202DE9F047E7
:101F1000814614461D46DDE9086800270020324945
:101F200008703249086001203149086000203149B9
:101F3000C86231480068022808D106020202002364
:101F400020462946FEF710F904460D462B48066048
:101F500010202A494860402088600020C8604FF463
:101F6000806008610846FFF78DFB1020FEF788F9B6
:101F7000074617B13846BDE8F0874FF0FF302049DB
:101F8000086008FB06F04860902088600220C86066
:101F900000200861012048610846FFF7F1FA174860
:101FA0000460122015494860402088600020C86005
:101FB0004FF4806008610846FFF764FB1220FEF7CB
:101FC0005FF907460FB13846D5E701210802FFF750
:101FD0002BFB0120FFF7CEFA08FB06F14846FFF77E
:101FE0007DFB3846C7E700004C0000205000002071
:101FF00048000020008001404000002038110020EF
:102000004C11002070B5044600250A4804600720E2
:1020100008494860402088600020C8604FF4806014
:1020200008610846FFF72EFB0720FEF729F9054651
:10203000284670BD3811002070B5044600250A48B6
:10204000008800040949886040F24D40C8600D20B6
:10205000FEF716F905460DB1284670BD03484069E4
:1020600020602846F9E7000044000020008001407D
:1020700010B5002400BFFFF729FB30B907480068FE
:1020800018B9074800780028F5D00548007810B145
:102090000348007810BD2046FCE7000050000020F7
:1020A0004C00002010B5002400BFFFF70FFB30B933
:1020B0000948006818B9094800780028F5D0074891
:1020C000007810B10548007810BD40F2FF50FFF7CE
:1020D0003FFA2046F8E70000500000204C000020A6
:1020E0002DE9F843814615461E46DDE908780024AF
:1020F000002000904849087048490860012048497C
:10210000086000204749C86247480068022808D193
:1021100007020202002328463146FEF725F805464D
:102120000E464248076010204049486040208860C1
:102130000020C8604FF4806008610846FFF7A2FAEB
:102140001020FEF79DF8044614B12046BDE8F88340
:10215000374800880004354908603720486040202F
:1021600088600020C8604FF4806008610846FFF76F
:1021700089FA3720FEF784F804460CB12046E5E7DB
:102180002A48C0F80080172028494860402088600D
:102190000020C8604FF4806008610846FFF772FABB
:1021A0001720FEF76DF804460CB12046CEE71F4815
:1021B000056019201D494860402088600020C860E3
:1021C0004FF4806008610846FFF75CFA1920FEF7BB
:1021D00057F804460CB12046B8E74FF0FF301549D8
:1021E000086008FB07F04860902088600020C86005
:1021F0000861012048610846FFF7C2F90121080281
:10220000FFF712FA0120FFF7B5F908FB07F148467E
:10221000FFF796FA204699E74C0000205000002076
:1022200048000020008001404000002038110020BC
:10223000440000204C110020704700002DE9FF4FA2
:1022400095B014461D4638225DA107A8FDF7BDFFD5
:10225000002001902046E11704EB91718910A4EB56
:10226000810204FB05F101EB410105FB021101F1C3
:102270003607F8B28DF81E00380A8DF81F00380CAA
:102280008DF82000380E8DF82100A04608F0FF00E0
:102290008DF82E004FEA18208DF82F004FEA1840D5
:1022A0008DF830004FEA18608DF83100A94609F02A
:1022B000FF008DF832004FEA19208DF833004FEA05
:1022C00019408DF834004FEA19608DF835000A2264
:1022D0004948229901F0E0F948490870464801F060
:1022E000D0F802224448229901F0D6F943490870F7
:1022F00008460078002860D102AB362207A93E4884
:1023000001F0C9FB3D4908702046E11704EB9171CB
:102310008910A4EB810101F0FF0B002644E00020AE
:10232000069032E0169A2A44521E921B91B2069BE6
:10233000159A1A4490B2FEF717FC82464FEADA204B
:10234000C0000590CAF34510800004904FEACA60AF
:10235000000E039002AB012203A9274801F09BFB6A
:102360002649087002AB012204A9234801F093FB1F
:102370002249087002AB012205A91F4801F08BFB1E
:102380001E4908700698401C06900698A042C9DBBA
:10239000BBF1000F07D05A4602AB01A9164801F065
:1023A0007AFB16490870761CAE42B8DB124801F081
:1023B00068F8002019B0BDE8F08F4FF0FF30F9E762
:1023C000424D000000000000000036000000280020
:1023D00000000000000000000000010018000000E4
:1023E00000000000000000000000000000000000ED
:1023F0000000000000000000241500205400002010
:1024000010B500F001F810BD0CB50020019000904F
:102410003348006840F480303149086000BF3048DC
:10242000006800F4003000900198401C0190009872
:1024300018B90198B0F5A06FF1D12948006800F4EF
:10244000003010B10120009001E0002000900098C1
:10245000012843D12348006840F01000214908605A
:102460000846006820F0030008600846006840F055
:10247000020008601A4840681949486008464068E8
:1024800048600846406840F48060486008464068FC
:1024900020F47C1048600846406840F4E81048602A
:1024A0000846006840F08070086000BF0C48006873
:1024B00000F000700028F9D00948406820F00300BF
:1024C000074948600846406840F00200486000BF85
:1024D0000348406800F00C000828F9D10CBD00004A
:1024E00000100240002002407047000010B5134861
:1024F000006840F001001149086008464068104932
:1025000008400E494860084600680E4908400B49DB
:1025100008600846006820F480200860084640688B
:1025200020F4FE0048604FF41F008860FFF768FF4A
:102530004FF000600449086010BD00000010024028
:102540000000FFF8FFFFF6FE08ED00E021B18289F0
:1025500042F40052828104E082894DF6FF731A40F2
:102560008281704700B585B001210420FEF7E8FEA6
:1025700001218803FEF7E4FE4FF40070ADF810006F
:1025800018208DF8130003208DF8120004A91348B9
:10259000FEF714F94FF48060ADF8100004208DF8B8
:1025A000130004A90D48FEF709F94FF4E13000903B
:1025B0000020ADF80400ADF80600ADF80800ADF855
:1025C0000C000C20ADF80A006946054800F018F828
:1025D00001210348FFF7BAFF05B000BD0008014024
:1025E0000038014002460020B1F5007F00D100BF55
:1025F00013880B400BB1012000E000207047000061
:102600002DE9F04786B005460E460024A24600BFDD
:10261000A1460027B08900B100BF2F462C8A4CF696
:10262000FF700440F08804432C82AC894EF6F3100E
:102630000440B08831890843718908430443AC8160
:10264000AC8A4FF6FF400440B0890443AC8201A835
:10265000FEF786FE1F48874202D1DDF810A001E098
:10266000DDF80CA0A88900F4004040B10AEBCA00D4
:1026700000EB0A1031684900B0FBF1F807E00AEB03
:10268000CA0000EB0A1031688900B0FBF1F8642041
:10269000B8FBF0F004012009642101FB1089A8892E
:1026A00000F4004040B1322000EBC900B0FBF1F073
:1026B00000F00700044308E0322000EB0910642119
:1026C000B0FBF1F000F00F0004432C8106B0BDE830
:1026D000F087000000380140C1F308028280704793
:1026E00000BFFEE70FB4054B10B503A9044A0298DA
:1026F00000F02CF810BC5DF814FB00003542000817
:10270000640000200FB4084B10B504A902AA039876
:1027100000F01CF8044602A9002000F02DF9204624
:1027200010BC5DF814FB00007929000802E008C81D
:10273000121F08C1002AFAD170477047002001E03B
:1027400001C1121F002AFBD1704700002DE9FF4F85
:102750008BB09A460F460446002606E025280BD08B
:1027600052460D999047641C761C20780028F5D1BC
:102770000FB03046BDE8F08F0025A94601227D4903
:1027800000E0054314F8013F203B02FA03F0084241
:10279000F7D120782E2817D114F8010F45F0040541
:1027A0002A280ED06FF02F022078A0F130010929DD
:1027B0000AD809EB890102EB410100EB0109641C15
:1027C000F2E757F8049B641C20786C280DD004DCD9
:1027D0004C2812D06A2811D104E074280DD07A2830
:1027E0000CD10AE045F4001507E0617845F4801546
:1027F000814202D1641C05F58015641C207869288B
:102800003ED006DC0028B3D063280BD0642804D166
:1028100036E0732810D075285CD052460D99904749
:10282000761CA5E017F8040B8DF8000000208DF849
:102830000100E846012003E057F8048B4FF0FF3019
:1028400069074FF0000501D40AE06D1C4D450DDA13
:102850008542FADB18F805100029F6D106E06D1C58
:102860008542FCDB18F805100029F8D12E4404E05D
:1028700018F8010B52460D9990476D1EF8D277E07B
:1028800000200A90C5F302504FF00A0B02280CD02A
:1028900001CFC117021E71F100020CDA0023D0EB48
:1028A000030063EB01012D2208E0FF1D27F007075D
:1028B000F7E80201EEE72A0504D52B228DF8242043
:1028C000012203E0EA070FD02022F7E70DF12008EC
:1028D000089218E000200A90C5F302504FF00A0B4E
:1028E000022803D001CF00210022EFE7FF1D27F0CF
:1028F0000707F7E80201F7E75A460A9BFDF734FCA1
:10290000303208F8012D50EA0102F5D1ADEB080094
:1029100000F1200B680701D44FF00109D94502DD11
:10292000A9EB0B0000E000208146002506E009A885
:102930005246405D0D9990476D1C761C0898854263
:10294000F5DB04E0302052460D999047761CB9F132
:102950000001A9F10109F5DC05E018F8010B524668
:102960000D999047761CBBF10001ABF1010BF4DC33
:10297000641CFAE6092801000A68531C0B601070F9
:102980007047000070B504460D4600202071401EBF
:10299000E0622946204601F0DFFE08B1032070BD49
:1029A00094F82E1294F82F0241EA00204AF655219D
:1029B000884201D00220F2E794F86900010694F8F9
:1029C000680041EA004194F8670041EA002094F869
:1029D0006610084320F07F400D49884201D1002055
:1029E000DDE794F88500010694F8840041EA00418F
:1029F00094F8830041EA002094F88210084320F004
:102A00007F400349884201D10020C8E70120C6E782
:102A100046415400024600E0521C107810B1107874
:102A20008842F9D1107870470246891E5069801E8D
:102A3000884201D8002070479378906A01FB030018
:102A4000F9E700002DE9F04780460C46A17EE07EC4
:102A500041EA002010B10020BDE8F087207800F0A6
:102A60003F00401E00EB800101EBC0064FF0010962
:102A7000002524E01A48405D205C1949495D214445
:102A8000497840EA0127B9F1000F11D0FF2E0BD28F
:102A9000384601F02DF982463146761C38F811008F
:102AA00001F026F9824501D00020D5E7B94605E0BE
:102AB0004FF6FF70874201D00020CDE76D1C0D2D31
:102AC000D8D3207800F0400038B1B9F1000F04D01D
:102AD00038F8160008B10020BEE70120BCE700006E
:102AE000C88800082DE9F04704468946B9F1000F6F
:102AF00006D1E76817B16069B84215D8012713E01D
:102B00004946204601F002FC0646022E02D2012070
:102B1000BDE8F087701C08B93046F9E76069B0423B
:102B200001D93046F4E74F463D4600BF6D1C606951
:102B3000A84204D80225BD4201D90020E8E7294671
:102B4000204601F0E3FB064606B909E0701C08B117
:102B5000012E01D13046DBE7BD42E7D10020D7E7A7
:102B600000BF6FF070422946204601F00FFE8046FC
:102B7000B8F1000F08D1B9F1000F05D02A46494637
:102B8000204601F003FE8046B8F1000F0BD1E5604E
:102B90002069401C78B12069401E2061607940F0B6
:102BA0000100607107E0B8F1010F02D14FF0FF3072
:102BB00000E0012005462846AAE700002DE9F34F72
:102BC00083B082460498D0F800B001E00BF1010B0D
:102BD0009BF800002F28F9D09BF800005C28F5D066
:102BE000DAF81C9000252E4600BF3046761C1BF8F4
:102BF0000040202C03DB2F2C01D05C2C00D11CE0EA
:102C0000FF2D03D3062005B0BDE8F08FE4B201210B
:102C1000204601F047F804460CB90620F3E7802C63
:102C200006DA21466BA0FFF7F5FE08B10620EAE7B9
:102C300028466D1C29F81040D7E700BF0BEB0601B2
:102C400004980160202C01DA042000E000200746EF
:102C500008E0681E39F81040202C02D02E2C00D03D
:102C600002E06D1E002DF4D100BF0DB90620CAE7A9
:102C7000002029F815000B222021DAF8180001F0B5
:102C800061FD002600E0761C39F816002028FAD0F5
:102C900039F816002E28F6D00EB147F0030700E0F1
:102CA0006D1E25B1681E39F810002E28F8D14FF09E
:102CB0000008CDF808800820019000BF3046761C3F
:102CC00039F8104004B955E0202C03D02E2C04D143
:102CD000AE4202D047F00307F0E7DDE90110884279
:102CE00001D2AE4216D101980B2802D147F003075A
:102CF00040E0AE4201D047F00307AE4200D939E0D0
:102D00002E46082002900B2001904FEA88604FEA7F
:102D10001068D3E7802C0BDB0021204600F0C2FFB7
:102D200004461CB1A4F180002D490C5C47F0020759
:102D300000BF24B121462BA0FFF76CFE18B15F2421
:102D400047F003070FE0412C04DB5A2C02DC48F06B
:102D5000020808E0612C06DB7A2C04DC48F001084C
:102D6000A4F1200084B2DAF818300298411C0291D4
:102D70001C54A3E700BFDAF818000078E52803D157
:102D80000520DAF8181008700198082803D14FEAD6
:102D900088604FEA106808F00C000C2803D008F097
:102DA0000300032801D147F0020707F0020058B9D9
:102DB00008F00300012801D147F0100708F00C00CB
:102DC000042801D147F00807DAF81800C77200207C
:102DD00019E70000222A3A3C3E3F7C7F00000000B9
:102DE000488800082B2C3B3D5B5D00002DE9F0413D
:102DF00004460E460021204600F0CDF90546EDB907
:102E0000002700BF2169206801F0A6FC054605B136
:102E100013E060690078E52802D06069007820B985
:102E2000781C0746B04201D107E000270121204667
:102E300000F07FF80546002DE4D000BF042D00D13E
:102E400007252846BDE8F0812DE9F047044600211A
:102E5000204600F0A0F9074617B13846BDE8F087D4
:102E60004FF0FF09CA464FF6FF70208400BF21696A
:102E7000206801F071FC074607B157E065692E78BC
:102E80000EB9042752E0E87A00F03F08E52E05D09D
:102E900008F0080040B1B8F10F0F05D04FF0FF095E
:102EA0004FF6FF7020843AE0B8F10F0F1CD1E069B3
:102EB00078B306F0400030B195F80DA026F040063A
:102EC000B146E08820844E450AD1687B504507D141
:102ED0002946E069FFF7B6FD10B1A9F1010000E055
:102EE000FF2000F0FF091AE0B9F1000F05D12846D4
:102EF00001F044FE504500D118E0A069C07A00F00E
:102F0000010038B90B222846A16901F0FBFB08B982
:102F10000CE004E04FF0FF094FF6FF702084002121
:102F2000204600F006F80746002FA0D000BF384624
:102F300094E72DE9F04104468846E088461CB0B28B
:102F400008B1206910B90420BDE8F08121684889E2
:102F5000C11700EBD1614911B6FBF1F201FB12611F
:102F6000002971D12069401C2061E06828B92068DF
:102F70000089B04268D80420E6E721684889C11773
:102F800000EBD1614911B6FBF1F122689278521E33
:102F90001140002958D1E168206801F0B7F90546D1
:102FA000012D01D80220CFE7681C08B90120CBE72A
:102FB00020684069A84241D8B8F1000F01D104202F
:102FC000C2E7E1682068FFF78DFD05460DB90720CF
:102FD000BAE7012D01D10220B6E7681C08B901202B
:102FE000B2E7206801F03EFE08B10120ACE721689D
:102FF0004A8901F13000002101F0A4FB2946206834
:10300000FFF712FD2168C86200270EE00120216849
:103010000871206801F026FE08B1012094E72068BD
:10302000C06A401C2168C8627F1C20688078B84252
:10303000ECD82068C06AC01B2168C862E5602946D8
:103040002068FFF7F1FC2061E68021684889C117FC
:1030500000EBD1614911B6FBF1F201FB126122686C
:10306000303202EB4111616100206DE72DE9FE4F26
:103070000446D4F81880D4F81C900C2241466846C7
:1030800001F053FB00BF9DF80B0000F0010020B3DE
:10309000002088F80B00E06101260CE033464A4628
:1030A0006946404601F0D8F82046FFF7CDFE0546B8
:1030B00005B102E0761C642EF0D300BF642E02D16D
:1030C0000720BDE8FE8F042D01D02846F9E79DF8C2
:1030D0000B0088F80B00C4F81C909DF80B0000F062
:1030E000020060B1002600E0761C39F816000028C6
:1030F000FAD106F119000D21B0FBF1F700E001272C
:1031000039462046FFF772FE054645BB781E071E6E
:1031100025D0E088C11B204600F03DF80546F5B9F2
:10312000A06901F02BFD824600BF2169206801F0F3
:1031300013FB054605B111E0FAB253466169E06937
:1031400000F0F0FF01202168087100212046FFF700
:10315000F0FE054615B9781E071EE6D100BFC5B9B9
:103160002169206801F0F8FA054695B9202200216E
:10317000606901F0E7FA0B22D4E9050101F0D5FA04
:10318000A069C07A00F01800616908730120216805
:103190000871284695E72DE9F04104460E46E68081
:1031A000A568012D03D020684069A84202D80220FA
:1031B000BDE8F0812DB920680078032801D120688E
:1031C000456A45B920680089B04201D80220EFE77E
:1031D0002068476A24E021684889C11700EBD16163
:1031E00049112268927801FB02F812E02946206812
:1031F00001F08CF80546681C08B90120D8E7022DBB
:1032000003D320684069A84201D80220D0E7A6EB8A
:1032100008064645EAD229462068FFF705FC07461E
:10322000E5600FB90220C3E721684889C11700EBA8
:10323000D1614911B6FBF1F1394421612168488916
:10324000C11700EBD1614911B6FBF1F201FB12612C
:103250002268303202EB411161610020A8E770B5AD
:103260000446012514B1012C09D107E0FEF786FCC4
:1032700010B925F0010500E0012502E001E001257B
:1032800000BF00BF284670BD2DE9F04705460E4639
:1032900014464FF0040915B1012D21D11FE0CEB124
:1032A000012E0BD0022E02D0032E14D103E04FF4D6
:1032B000007020800FE0012020600CE00C48D0F866
:1032C00050C062460023D0E912713846FCF74CFF2B
:1032D000206000E000BF00BF4FF0000903E002E003
:1032E0004FF0040900BF00BF4846BDE8F08700006A
:1032F000C81000202DE9F04FADF5017D81460C4648
:1033000015461E464FF0040B4FF0000AB9F1000FAE
:1033100003D0B9F1010F42D140E004F00300E8B15D
:10332000002711E02A466D1C012301A90020FFF7A8
:10333000E1FF074607B10BE04FF4007201A92046F8
:10334000FCF743FF04F50074301EA6F10106E9D135
:1033500000BF38460DF5017DBDE8F08F4FF40070D9
:10336000A5FB00713A460B46CDE900062046FEF764
:10337000CDFD8246BAF1000F07D1FEF779FE8246F5
:1033800000BFFEF7ECFB0028FBD1BAF1000F02D022
:103390004FF0040B01E04FF0000B03E002E04FF0B0
:1033A000040B00BF00BF5846D4E70146012011B10D
:1033B000012904D102E020F0010002E001E0012037
:1033C00000BF00BF70472DE9F04FADF5017D81468C
:1033D0000C4616461D464FF0040B4FF0000A25B967
:1033E00004200DF5017DBDE8F08FB9F1000F03D089
:1033F000B9F1010F3FD13DE004F00300D0B1002747
:1034000011E04FF40072214601A8FCF7DEFE3246BF
:10341000761C012301A90020FFF7D5FF074607B15D
:1034200005E004F50074281EA5F10105E9D100BFEF
:103430003846D6E74FF40070A6FB00713A460B46BB
:10344000CDE900052046FEF74BFE8246BAF1000F9B
:1034500007D1FEF727FE824600BFFEF780FB00285B
:10346000FBD1BAF1000F02D04FF0040B01E04FF096
:10347000000B03E002E04FF0040B00BF00BF584612
:10348000AFE770B50546284600F0ADFA044634B9FA
:10349000284601F010FC04460CB9002028602046A4
:1034A00070BD2DE9F04704460E46204601F003FCAE
:1034B0008246BAF1000F02D05046BDE8F087E079AD
:1034C00008B1E079F9E7E068B04204D2A07900F0F1
:1034D000020000B9E668D4F808904FF00008C4F87C
:1034E0000880002E71D0206880782168498900FB0F
:1034F00001F7B9F1000F11D0701EB0FBF7F1A9F17F
:103500000100B0FBF7F0814208D3A9F10100791E58
:103510008843A060A068361A656912E025697DB904
:1035200000212068FFF7DEFA0546012D02D10220B6
:10353000E071C2E7681C10B90120E071BDE72561A8
:103540006561002D41D023E0A07900F0020038B180
:1035500029462068FFF7C6FA054635B93E4619E008
:103560002946206800F0D2FE0546681C10B90120EB
:10357000E071A2E7012D03D920684069A84202D872
:103580000220E07199E76561A0683844A060F61BED
:10359000BE42D9D800BFA0683044A06020684089EE
:1035A000B6FBF0F100FB116078B129462068FFF707
:1035B0003BFA8046B8F1000F02D10220E0717CE7AF
:1035C00020684089B6FBF0F0804421684989A068F2
:1035D000B0FBF1F201FB120020B3A069404521D0FD
:1035E000A07900F0400078B121684878012304F107
:1035F0002401A269FFF7E7FE10B10120E0715CE74A
:10360000A07920F04000A07121684878012342464B
:1036100004F12401FFF76EFE10B10120E0714CE7C8
:10362000C4F81880D4E90201884205D9A068E06096
:10363000A07940F02000A07150463EE7F7B582B077
:1036400016460398019001A800F004FF0546002DDE
:1036500002DA0B2005B0F0BD0E4850F825400CB141
:1036600000202070029810B10020029908700949CA
:10367000029841F82500029808B1012E01D00020DF
:10368000E8E7002203A902A800F060FB07463846DD
:10369000E0E70000580000202DE9F743ADF50C7D70
:1036A0000546164625B909200DF50F7DBDE8F083C6
:1036B0000020286006F01F0626F001028DA983A8CD
:1036C00000F044FB0746002F74D180A88990CDF804
:1036D00028D283A88D9900F065FD0746889C0FB914
:1036E00004B9062706F01C0000285CD04FB1042F57
:1036F00003D183A8FFF7BAFC074646F00806889C6A
:1037000009E0E07A00F0110008B1072703E006F0B5
:10371000040000B10827002F55D106F0080000284A
:1037200051D000F093FE804684F80E804FEA1821B5
:10373000E1734FEA184121744FEA1861617484F80B
:1037400016804FEA1821E1754FEA184121764FEAB9
:10375000186161760020E072207700216177A177FF
:10376000E1772146839800F09AFE814600212046A9
:1037700001F0FCF9012083990871B9F1000F22D002
:103780008398D0F82C804946839801F0C3F8074607
:10379000CFB9A9F101008399C8604146839800F030
:1037A000DBFF07460FE077B9E07A00F0100010B1B8
:1037B000042708E02DE006F0020020B1E07A00F0D6
:1037C000010000B1072747B906F0080008B146F02C
:1037D00020068398C06AE8612C62D7B9AE710020D8
:1037E000E8712146839800F05AFE2861E07F0106C7
:1037F000A07F41EA0041607F41EA0020217F084329
:10380000E8600020A860A861839828602868C088C4
:10381000A880384648E72DE9FF4F85B00446154695
:103820009A46DDF818B00020CAF80000204601F0E2
:1038300042FA0490049818B1049809B0BDE8F08FDA
:10384000E07908B1E079F8E7A07900F0010008B963
:103850000720F2E7D4E90210401A0290029885424C
:1038600000D9029DBAE021684989A068B0FBF1F255
:1038700001FB1200002877D121684989A068B0FBBC
:10388000F1F021688978491E084000F0FF09B9F17C
:10389000000F17D1A06810B92069039004E0616996
:1038A000206800F033FD03900398022802D2022022
:1038B000E071C2E70398401C10B90120E071BCE739
:1038C0000398606161692068FFF7AEF8064616B993
:1038D0000220E071B1E74E4420684089B5FBF0F862
:1038E000B8F1000F2DD009EB0800216889788842D3
:1038F00003D920688078A0EB0908216848784346FE
:1039000032465946FFF7F6FC10B10120E07194E70A
:10391000A07900F0400078B1A069801B40450BD22F
:10392000A169891B23685B8901FB03B021684A896F
:1039300004F1240100F0F9FE2068408900FB08F73B
:1039400042E0A069B04220D0A07900F0400080B1F0
:1039500021684878012304F12401A269FFF733FDAF
:1039600018B10120E07168E710E0A07920F0400074
:10397000A071216848780123324604F12401FFF741
:10398000B9FC10B10120E07157E7A66121684989AF
:10399000A068B0FBF1F201FB1200216849890F1AFF
:1039A000AF4200D92F4621684989A068B0FBF1F2E7
:1039B00001FB120104F1240008443A46014601903B
:1039C000584600F0B2FE00BFBB44A0683844A06077
:1039D000DAF800003844CAF80000ED1B002D7FF42F
:1039E00042AF002029E72DE9F0410446204601F0CE
:1039F00062F90746002F4CD1A07900F02000002882
:103A000047D0A07900F0400078B1216848780123C0
:103A100004F12401A269FFF7D6FC10B10120BDE832
:103A2000F081A07920F04000A071E169206800F0E9
:103A300093FE0746002F2CD1256AE87A40F020003B
:103A4000E872207B2877A089010A6977E068010C79
:103A5000A977E068010EE9772846216901F086F828
:103A600000F0F4FC0646AE75310AE975310C297692
:103A7000310E69760020A8740021E974A07920F045
:103A80002000A071012021680871206801F086F8EB
:103A900007463846C3E72DE9FF4F83B00446154675
:103AA0009B46049801900020CBF80000204601F0CE
:103AB00002F90290029818B1029807B0BDE8F08FA1
:103AC000E07908B1E079F8E7A07900F0020008B9E0
:103AD0000720F2E7A0682844A168884200D20025A8
:103AE000CFE021684989A068B0FBF1F201FB120028
:103AF00000287ED121684989A068B0FBF1F02168D7
:103B00008978491E084000F0FF0ABAF1000F1ED163
:103B1000A06838B9276957B900212068FEF7E2FF8D
:103B2000074604E061692068FEF7DCFF074607B935
:103B3000AAE0012F02D10220E071BEE7781C10B983
:103B40000120E071B9E76761206900B92761A079B8
:103B500000F0400078B121684878012304F1240185
:103B6000A269FFF730FC10B10120E071A5E7A07950
:103B700020F04000A07161692068FEF755FF0646FD
:103B800016B90220E07198E7564420684089B5FBD9
:103B9000F0F9B9F1000F31D00AEB090021688978FA
:103BA000884203D920688078A0EB0A092168487808
:103BB0004B4632460199FFF706FC10B10120E07137
:103BC0007BE7A069801B484511D2A069831B206850
:103BD000B0F80AC0019803FB0C012068428904F187
:103BE000240000F0A2FDA07920F04000A071206820
:103BF00000E017E0408900FB09F835E0A069B04219
:103C00000FD0D4E9020188420BD221684878012301
:103C1000324604F12401FFF76DFB10B10120E07181
:103C20004BE7A66121684989A068B0FBF1F201FB6E
:103C3000120021684989A1EB0008A84500D9A846CF
:103C400021684989A068B0FBF1F201FB120104F17F
:103C50002400084442460090019900F066FDA079D6
:103C600040F04000A07100BF019840440190A0685E
:103C70004044A060DBF800004044CBF80000A5EB16
:103C80000805002D7FF42DAF00BFD4E90201884262
:103C900001D9A068E060A07940F02000A071002068
:103CA0000BE7000010B50246802A01DA10461BE03F
:103CB00051B1FF2A01DD002304E0A2F180030B4C87
:103CC00034F8133018460FE0002007E0074B33F8B4
:103CD0001030934200D103E0431C98B28028F5DBFA
:103CE00000BF00F18003D8B210BD000002890008B7
:103CF00030B5802807DA612823DB7A2821DCA0F19F
:103D00002005A8B21DE00C2200234FF4F77400BF79
:103D1000E51A03EB55010B4D35F81150854200D1E2
:103D20000AE0084D35F81150854201DA0B4600E0F3
:103D30000C46551E2A1EEBD100BF12B1024D35F8BC
:103D4000110030BD028A0008DE8D00082DE9F74F12
:103D50008AB000210A9801600B9800F07BFB099063
:103D60000998002803DA0B200DB0BDE8F08FE9496F
:103D7000099851F820400CB90C20F5E70A98046026
:103D8000207878B16078FFF710FB814609F00100D8
:103D900040B90C9820B109F0040008B10A20E3E70B
:103DA0000020E1E700202070099860706078FFF73C
:103DB00056FA814609F0010008B10320D4E70C98B7
:103DC00020B109F0040008B10A20CDE7607804F1C1
:103DD0000A020221FFF758FA38B96089B0F5007F6E
:103DE00003DB6089B0F5805F01DD0120BCE70027BF
:103DF00039462046FEF7C6FD0546012D01D09DBB84
:103E000032E000261AE004F5F77000EB061898F887
:103E1000040070B198F80B00010698F80A0041EA16
:103E2000004198F8090041EA002098F8081008437A
:103E300000E0002002A941F82600761C042EE2D3FF
:103E4000002606B1761E00BF02A850F8267027B1E2
:103E500039462046FEF796FD00E0022005461DB1DA
:103E6000701C06460428EFD3032D01D101207BE707
:103E70000DB10D2078E73B20015D94F83C0041EA4C
:103E800000206189884201D00D206DE74620015D48
:103E900094F8470041EA002ABAF1000F0ED194F8D5
:103EA0005700010694F8560041EA004194F8550085
:103EB00041EA002094F8541040EA010AC4F818A01E
:103EC0004020005DE070E078012804D0E07802280E
:103ED00001D00D2048E7E0780AFB00FA3D20005DA4
:103EE000A070A07818B1A078411E084008B10D203C
:103EF0003AE74120015D94F8420041EA0020208128
:103F00006089C11700EBD1614911228992FBF1F35D
:103F100001FB132109B10D2026E74320015D94F830
:103F2000440041EA00200890089870B994F85300C2
:103F3000010694F8520041EA004194F8510041EA28
:103F4000002094F85010084308903E20015D94F83A
:103F50003F0041EA00200190019808B90D2003E7D5
:103F60006089C11700EBD1614911228992FBF1F2FE
:103F70000199514411440791DDE90710884201D2AB
:103F80000D20F1E6DDE90710401AA178B0FBF1FB46
:103F9000BBF1000F01D10D20E6E6012540F6F670D9
:103FA000834500D302254FF6F670834500D30325E1
:103FB0000BF102006061E7610198384420620798C4
:103FC0003844A062032D16D1208908B10D20CBE61C
:103FD00094F85F00010694F85E0041EA004194F80D
:103FE0005D0041EA002094F85C100843606260695B
:103FF0008000069014E0208908B90D20B4E6206AFC
:1040000050446062022D02D16069400007E0207DCB
:1040100000F00100616901EB410100EB51000690E5
:104020006089401E069908446189B0FBF1F0A169DE
:10403000884201D90D2097E64FF0FF302061E06003
:1040400080206071032D5AD194F8601094F86100BB
:1040500041EA0020012852D1791C204600F07CFB67
:10406000E8BB0020607194F82E1294F82F0241EA08
:1040700000204AF65521884241D13320005D0106D7
:104080003220005D41EA00413120005D41EA00201C
:1040900094F8301008432049884230D194F8170230
:1040A000010694F8160241EA004194F8150241EA2B
:1040B000002094F814120843184988421FD194F83C
:1040C0001B02010694F81A0241EA004194F8190211
:1040D00041EA002094F818120843206100E00EE045
:1040E00094F81F02010694F81E0241EA004194F878
:1040F0001D0241EA002094F81C120843E06025707C
:1041000007480088401C80B205490880E0800020F4
:104110002AE600005800002052526141727241614B
:1041200060000020F0B504461D464D730F27CF7286
:1041300000270F738F76BC4681F81BC0571E07EB14
:10414000870C0CEBC706002738463B4600BF4FF6EE
:10415000FF77B84203D03746761C34F81700DFF8F3
:1041600040C01CF803C001F80C000712DFF830C093
:104170001CF803C08C448CF8017008B94FF6FF702E
:104180005F1C3B460D2FE2D34FF6FF77B84202D0BB
:1041900034F816700FB942F040020A70F0BD00000A
:1041A000C88800082DE9F3410446019800782F28BB
:1041B00003D0019800785C2802D10198401C01903E
:1041C0000020A06001980078202807D20021204616
:1041D000FEF7E1FF05460020606128E000BF01A96D
:1041E0002046FEF7EBFC054605B11FE02046FEF732
:1041F0002BFE0546A069C67A3DB1042D04D100BF4F
:1042000006F0040000B9052510E006F0040000B136
:104210000CE06769F87A00F0100008B9052505E0A0
:104220003946206800F03BF9A060D8E700BF284677
:10423000BDE8FC8170B504460D46E1B20548FEF7C5
:104240004BFA00BF80210348FEF7CCF90028F9D0D3
:10425000204670BD003801402DE9FF4F83B08146F4
:1042600090461D460B224846049900F05EFA052D43
:1042700018D92F4611E038F802BB00240BE058464D
:1042800067F35F0007464FEA6B0B07F4803008B115
:104290001D484740641C102CF1D3B8F800000028DA
:1042A000E9D13D46072400BF05F00F0000F1300AB8
:1042B000BAF1390F03DD0AF1070000F0FF0A2046CA
:1042C000641E01A901F800A02D09002DECD17E206B
:1042D0000855002600E0761CA64203D219F8060015
:1042E0002028F8D100BF082C04D22046641C01A964
:1042F000085C00E020203146761C09F80100082EF9
:10430000F1D307B0BDE8F08F211001002DE9F05F77
:1043100004460D46022D02D36069A84202D84FF030
:1043200001098FE04FF0FF392078012804D00228DE
:104330003CD003287ED157E02F4607EB5707608912
:10434000B7FBF0F0216A00EB010A5146204600F06D
:1043500003FA00B175E038467F1C6189B0FBF1F2C9
:1043600001FB120104F1300010F801806089B7FBF5
:10437000F0F0216A00EB010A5146204600F0ECF90A
:1043800000B15EE06089B7FBF0F100FB117104F150
:104390003000405C48EA002805F0010010B14FEA07
:1043A000181001E0C8F30B0081464AE0B4F80AA0F7
:1043B0000AEBDA704010B5FBF0F0216A00EB010B5C
:1043C0005946204600F0C8F900B13AE0680061891A
:1043D000B0FBF1F201FB120104F130000E1830784D
:1043E000717840EA01292CE0B4F80AA04FEAEA709B
:1043F0000AEB90708010B5FBF0F0216A00EB010B26
:104400005946204600F0A8F900B11AE0A8006189D9
:10441000B0FBF1F201FB120104F130000E18F0784C
:104420000006B17840EA0140717840EA0120317815
:10443000084300E002E020F0704902E04FF001097B
:1044400000BF00BF4846BDE8F09F0000004870472D
:104450000000214670B502464FF0FF301568E5B107
:10446000116800E0491C0D78202D02D30D783A2DFB
:10447000F8D10D783A2D0FD1146814F8015BA5F12D
:1044800030030A2B07D28C4205D1022B03D21846E7
:104490004D1C2946156070BD002000BFFBE710B51C
:1044A00002468C7ECB7E44EA03201378032B05D191
:1044B0000C7D4B7D44EA032340EA034010BD00001D
:1044C0008CB0FCF7B9FB3E48FCF79AFD00214FF495
:1044D0007840FCF78BFD3B4803883B48028800216D
:1044E0000846FCF717FA0620FCF74AFBFEF73AF8F5
:1044F000FCF78AFEFCF746FD34A0FEF7F3F83FA078
:10450000FEF7F0F84CA0FEF7EDF8012255A1564851
:10451000FFF794F8554908700846007810B154A088
:10452000FEF7E0F80620FCF72BFB5CA20021084612
:10453000FCF76CFD43E001215D48FCF743FD0128D9
:104540003DD15C480078401C5A4908700846027802
:1045500059A102A8FEF7D6F820205D490860012085
:1045600008600220091D08605AA0FEF7BBF806206B
:10457000FCF706FB02A80090124803881248028844
:1045800000210846FDF75AFE60B956A0FEF7AAF8CA
:1045900020204F4908600120091D08600220091FE2
:1045A00008600BE053A0FEF79DF820204849091D44
:1045B00008600120091F08600220086000BFBAE7F8
:1045C000280000201A000020180000200D0A202AD0
:1045D0002A2A2A2A2A2A2A2A2A20CFD4CABE424D87
:1045E00050CEC4BCFEBCB0BDD8CDBC2A2A2A2A2AD3
:1045F0002A2A2A2A2A2A200D0A0000000D0A20CA87
:10460000B5D1E9C7B0C7EBC8B7B1A35344BFA8B58C
:10461000C4C4BFC2BCCFC2BEDFD3D0CAB5D1E9CA01
:10462000B9D3C3B5C4424D50CDBCC6ACCEC4BCFE9C
:104630002C200D0A000000000D0A20B0B4CFC2B03B
:10464000E5D7D3B5C44B455931B0B4BCFCBFC9D2D2
:10465000D4C9FAB3C9C6C1C4BBBDD8CDBC200D0AEC
:1046600000000000303A0000680000201400002024
:104670000D0AC7EBB8F8BFAAB7A2B0E5B2E5C8EB20
:10468000D2D1B8F1CABDBBAFB3C9666174B8F1CAC3
:10469000BDB5C45344BFA8A1A30D0A00303A776941
:1046A0006C64666972655F312E626D700000000097
:1046B0000008014015000020303A73637265656E92
:1046C0005F73686F745F25642E626D700000000078
:1046D000100C01400D0AD5FDD4DABDD8CDBC2E2E6C
:1046E0002E0000000D0ABDD8CDBCB3C9B9A6A3A148
:1046F000000000000D0ABDD8CDBCCAA7B0DCA3A144
:1047000000000000F0B503461C460D46002000BF27
:10471000161EA2F1010207D014F8017B15F801CB97
:10472000A7EB0C06301EF3D0F0BD70B503460C4667
:1047300003E014F8015B03F8015B151EA2F101020E
:10474000F7D170BD30B5034601E003F8011B141E1C
:10475000A2F10102F9D130BD70B504460D46002624
:10476000E06AA84210D0204600F07CFA06465EB906
:10477000607801232A4604F13001FEF7BBFD10B139
:104780004FF0FF350126E562304670BD2DE9F05F40
:1047900004460E461746022E02D36069B04202D884
:1047A0004FF00208B3E02078012804D0022852D04C
:1047B000032872D172E0B14609EB59096089B9FB4F
:1047C000F0F0216A00EB010A51462046FFF7C4FFD2
:1047D0008046B8F1000F00D098E0484609F1010981
:1047E0006189B0FBF1F201FB120104F130000D18F8
:1047F00006F0010020B1F9B2287861F31F1000E043
:1048000038462870012020716089B9FBF0F0216AD8
:1048100000EB010A51462046FFF79EFF8046B8F1A3
:10482000000F00D072E06089B9FBF0F100FB11913C
:1048300004F130000D1806F0010010B1C7F30710A5
:1048400005E0287800F0F000C7F303210843287042
:10485000012020715AE0B4F80AA00AEBDA70401087
:10486000B6FBF0F0216A00EB010B59462046FFF73A
:1048700073FF8046B8F1000F00D047E070006189F7
:10488000B0FBF1F201FB120104F130000D182F70A2
:10489000380A68700120207138E034E0B4F80AA0CA
:1048A0004FEAEA700AEB90708010B6FBF0F0216AD4
:1048B00000EB010B59462046FFF74EFF8046B8F14A
:1048C000000F00D022E0B0006189B0FBF1F201FBE3
:1048D000120104F130000D18E8780006A97840EACA
:1048E0000140697840EA01202978084300F07040CF
:1048F00007432F70380A6870380CA870380EE870BB
:104900000120207102E04FF0020800BF00BF4046C6
:10491000BDE8F09F2DE9F04104460E46022E02D379
:104920006069B04201D8022727E0002721E0314624
:104930002046FFF7EBFC054605B91DE0012D01D12E
:10494000022719E0681C08B9012715E0002231464A
:104950002046FFF71BFF074607B10DE02069401C0A
:1049600030B12069401C2061607940F00100607125
:104970002E466069B042DAD800BF3846BDE8F08103
:1049800010B504460BA0FDF7ADFE0EA02168FDF7A3
:10499000A9FEA1880FA0FDF7A5FEE1880DA0FDF7F7
:1049A000A1FE0FA0A168FDF79DFE09A0FDF79AFEEC
:1049B00010BD0000CEBBCDBCCEC4BCFECDB73A0D01
:1049C0000A000000CEC4BCFEB4F3D0A13A256C644A
:1049D0000D0A0000B1A3C1F4D7D63A25640D0A0030
:1049E000CAB5BCCACEBBCDBCCAFDBEDDB5C4C6AB64
:1049F000D2C6D7D6BDDACAFD3A256C640D0A0000CE
:104A000010B5044619A0FDF76DFE1CA02168FDF746
:104A100069FE1FA06168FDF765FE21A0A168FDF792
:104A200061FEA18922A0FDF75DFEE18925A0FDF7C9
:104A300059FE2BA02169FDF755FE2DA06169FDF7F8
:104A400051FE36A0A169FDF74DFE39A0E169FDF7E1
:104A500049FE3CA0216AFDF745FE3FA0616AFDF7D3
:104A600041FE0AA0FDF73EFE10BD0000CEBBCDBC4E
:104A7000D0C5CFA2CDB73A0D0A000000BDE1B9B94B
:104A8000CCE5B5C4B3A4B6C83A256C640D0A0000E1
:104A9000CEBBCDBCBFED3A256C640D0A0000000012
:104AA000CEBBCDBCB8DF3A256C640D0A0000000017
:104AB0006269506C616E6573C6BDC3E6CAFD3A2576
:104AC000640D0A006269426974436F756E74B2C9FD
:104AD000D3C3D1D5C9ABCEBBCAFD3A25640D0A00FC
:104AE000D1B9CBF5B7BDCABD3A256C640D0A00003B
:104AF000626953697A65496D616765CAB5BCCACE9A
:104B0000BBCDBCCAFDBEDDD5BCD3C3B5C4D7D6BDF5
:104B1000DACAFD3A256C640D0A00000058B7BDCF13
:104B2000F2B7D6B1E6C2CA3A256C640D0A0000009D
:104B300059B7BDCFF2B7D6B1E6C2CA3A256C640DFB
:104B40000A000000CAB9D3C3B5C4D1D5C9ABCAFDE8
:104B50003A256C640D0A0000D6D8D2AAD1D5C9ABCB
:104B6000CAFD3A256C640D0A0000000081760B0A2C
:104B7000C3760A0C02750B0E4375704730B50146BB
:104B800000200B2200BF431003EBC01411F8015B9F
:104B90006319D8B2531E1A1EF5D130BD70B5044644
:104BA000204600F05FF80546002D59D120780328F3
:104BB0004FD1607901284CD16289002104F1300085
:104BC000FFF7C0FD552184F82E12AA2184F82F1278
:104BD000522084F8300052213120015561213220C9
:104BE0000155412133200155722184F8141284F8B3
:104BF0001512412184F81612612184F81712217CC4
:104C000084F81812208A010A84F819122069010C0C
:104C100084F81A122069010E84F81B12217B84F893
:104C20001C12A089010A84F81D12E068010C84F8A6
:104C30001E12E068010E84F81F12E069401CE06259
:104C40006078012304F13001E26AFEF7BCFB00202A
:104C50006071607800221146FEF716FB00B1012555
:104C6000284670BD2DE9F041044600272079F8B1AF
:104C7000E56A607801232A4604F13001FEF7A3FBC0
:104C800008B1012714E000202071206A281AA169C8
:104C900088420DD2E67809E0A069054460780123D6
:104CA0002A4604F13001FEF78EFB761E022EF3D267
:104CB0003846BDE8F08170B505462C4684B12068C1
:104CC00070B12068007858B12068C088A1888842F7
:104CD00006D121684878FEF768FB00F0010008B1B2
:104CE000092070BD0020FCE700000000000000006B
:104CF000000000000000000000000018181818183C
:104D000018080008180000000000003424242400C3
:104D100000000000000000000000000016247F24B6
:104D200024247E2424000000000000083E68486817
:104D30001C1612127C10100000000061D29674083C
:104D400010162949C6000000000000003C646438C9
:104D5000724ACE467F0000000000001818181800A4
:104D600000000000000000000000000408181030DF
:104D70003030301010180C04000000201008080C0F
:104D80000404040C08181020000000080A341C6AEF
:104D900008000000000000000000000000001818DB
:104DA000187F181818000000000000000000000024
:104DB000000000181808300000000000000000008B
:104DC000003C0000000000000000000000000000A7
:104DD00000000018180000000000000206040C0883
:104DE0000810102020400000000000003C664247F0
:104DF0005B7342663C000000000000001878480821
:104E0000080808087E000000000000003C46060676
:104E1000040810207E000000000000007C0606044C
:104E20003C0202067C000000000000000C1C142460
:104E30006444FF0404000000000000007E60606025
:104E40007E0202067C000000000000001E30604868
:104E5000764242623C000000000000007E02060430
:104E60000C08181030000000000000003C624236C0
:104E70001C6642423C000000000000003C664242CA
:104E8000661A0204780000000000000000001818F4
:104E900000000018180000000000000000001818B2
:104EA000000000181808300000000000000004187E
:104EB0003060100C06000000000000000000000040
:104EC0007E007E000000000000000000000030189E
:104ED00004060C1020000000000000301C0606062E
:104EE00018100010100000000000001C224141DDDD
:104EF000B5A5A5AF94C0403C00000000181C3424A8
:104F000026627E43C1000000000000007C4642464D
:104F10007C4242427C000000000000001E20404015
:104F2000404040603E000000000000007C464243DC
:104F30004343424678000000000000007E6060604D
:104F40007E6060607E000000000000007E606060A7
:104F50007E60606060000000000000001E60404055
:104F6000CE4242623E000000000000004242424247
:104F70007E42424242000000000000007E181818E5
:104F8000181818187E000000000000007C040404BB
:104F9000040404447800000000000000424448502B
:104FA00070584C44420000000000000020202020E7
:104FB000202020203E000000000000006266675FA5
:104FC0005B5BC1C1C1000000000000006262725260
:104FD0005A4A4E4646000000000000003C6243C3AF
:104FE000C3C343623C000000000000007C46424214
:104FF0004678404040000000000000003C6243C38F
:10500000C3C343623C180F00000000007C66626668
:105010007C6C646662000000000000003E6040603E
:105020001C0602027C000000000000007F18181817
:1050300018181818180000000000000042424242F0
:10504000424242623C00000000000000C143426254
:105050002624341C1800000000000000C1C1414992
:105060005B5B766666000000000000004366341853
:10507000181C2466C300000000000000C142663412
:105080001C18181818000000000000007E02040C14
:10509000181020607E0000000000001C101010108E
:1050A000101010101010101C0000004020201010D4
:1050B00008080C04060200000000003C0C0C0C0C5C
:1050C0000C0C0C0C0C0C0C3C00000000181C246296
:1050D00000000000000000000000000000000000D0
:1050E00000000000000000FF000000201000000091
:1050F00000000000000000000000000000003C066E
:10510000023E42467A0000000000004040405C62DF
:10511000424242427C0000000000000000001E20CD
:10512000604060203E0000000000000202023E627B
:10513000424242663A0000000000000000003C626B
:10514000427E40603E0000000000000F1810107EFC
:1051500010101010100000000000000000003F665A
:10516000426658403E43423C0000004040405C6282
:105170004242424242000000000000181800780835
:10518000080808087E000000000000040C007C04F1
:105190000404040404040C78000000606060626C85
:1051A0007870686462000000000000780808080851
:1051B000080808087E000000000000000000764B90
:1051C0004B4B4B4B4B0000000000000000005C62AA
:1051D00042424242420000000000000000003C62E7
:1051E000424342623C0000000000000000005C629C
:1051F000424242427C4040400000000000003E62CB
:10520000424242663A0202020000000000006E7252
:1052100063606060600000000000000000003E204D
:10522000203C06027C000000000000001010FE1070
:10523000101010101E00000000000000000042428C
:10524000424242663A000000000000000000434273
:105250006624341818000000000000000000C1C1DE
:105260005B5A5E66660000000000000000006226D7
:105270001C181C26620000000000000000004342D1
:105280006624341C181830E00000000000007E0680
:105290000C1810207E0000000000000E18101010E6
:1052A000307010101010180E0000080808080808C8
:1052B000080808080808080800000030180808084E
:1052C0000C0E08080808183000000000000000005C
:1052D000714B06000000000000000000000000000C
:1052E00000000000000000000000000000000000BE
:1052F00000000000000000000000000000000000AE
:10530000000000000000000000000000000000009D
:105310000000038001800180018001800180018004
:105320000180018001800000000003C003C0000074
:10533000000000000000000000000000000000006D
:1053400000000E700E700E700C30000000000000A7
:10535000000000000000000000000000000000004D
:10536000000000000000000000000000000000003D
:10537000000000000618063806307FFE0C300C30A6
:105380000C300C307FFE0C601C6018601860000050
:10539000000000000000000000000000000000000D
:1053A00000C000C00FF83CC831C031803D801F8074
:1053B00003F001F8031C030C031C3FF83FE0070057
:1053C00006000000000000000000000000000000D7
:1053D0001C007E0E630C631863307E6000C0018089
:1053E0000300077C0EE61CC618C630C6607C0000B1
:1053F00000000000000000000000000000000000AD
:1054000000000FE01CF0387038701C601FC00F00E7
:105410003F8C71CC60EC607C70383CFC1FCE00008F
:10542000000000000000000000000000000000007C
:10543000000003C001800180018000000000000026
:10544000000000000000000000000000000000005C
:10545000000000000000000000000000000000004C
:10546000003000E001C001800300070006000600D4
:105470000E000E000E000E00060007000300038061
:1054800001C000E00030000000000000000000004B
:105490000C0006000380018001C000E00060006095
:1054A0000070007000700060006000E000C00180CB
:1054B000038006000C000000000000000000000057
:1054C0000000018011881DB803C007E03DBC0188C1
:1054D000018000000000000000000000000000004B
:1054E00000000000000000000000000000000000BC
:1054F00000000000000000000180018001800180A8
:1055000001807FFE01800180018001800000000099
:10551000000000000000000000000000000000008B
:10552000000000000000000000000000000000007B
:10553000000000000000000003C003C001C001C063
:1055400003801F00000000000000000000000000B9
:10555000000000000000000000000000000000004B
:1055600000000FF00000000000000000000000003C
:10557000000000000000000000000000000000002B
:10558000000000000000000000000000000000001B
:10559000000000000000000003C003C003C00000C2
:1055A00000000000000000000000000000000000FB
:1055B0000000001800380030006000E000C001C0AA
:1055C00001800300030006000E000C001C00180000
:1055D000300000000000000000000000000000009B
:1055E000000001800FF01C38381C301C707E70EEFB
:1055F000738E7E0E7C0C300C381C1E780FE0000081
:10560000000000000000000000000000000000009A
:105610000000000007C01FC039C001C001C001C0A8
:1056200001C001C001C001C001C03FFC3FFC00003F
:10563000000000000000000000000000000000006A
:10564000000003801FF018380038001800380038B8
:10565000007001E0038007001C003FFC3FFC0000DD
:10566000000000000000000000000000000000003A
:10567000000007801FF0003800380038003007E0D5
:1056800007F00038001C001C001820F83FE0000064
:10569000000000000000000000000000000000000A
:1056A0000000000000F001B0033007300E301C3065
:1056B000383070307FFE7FFE003000300030000058
:1056C00000000000000000000000000000000000DA
:1056D000000000001FF818001800180018001FE054
:1056E00000F8001C001C001C003800F01FC0000067
:1056F00000000000000000000000000000000000AA
:105700000000000003F80F001C001800300037F8FC
:105710003C3C300C300C380C381C1E380FF00000AC
:105720000000000000000000000000000000000079
:10573000000000003FFC001C0018003800700060F2
:1057400000E001C001800380070006000E00000099
:105750000000000000000000000000000000000049
:10576000000003C01FF8381C381C381C1C380FF010
:1057700007F01C78381C300C381C3C380FF0000047
:105780000000000000000000000000000000000019
:10579000000003801FF03838301C701C700C380C6F
:1057A0001FFC0FCC001C001800701FE01F800000C1
:1057B00000000000000000000000000000000000E9
:1057C0000000000000000000000003C003C00180D2
:1057D000000000000000000003C003C003C0000080
:1057E00000000000000000000000000000000000B9
:1057F0000000000000000000000003C003C00180A2
:10580000000000000000000003C003C001C001C090
:1058100003800F00000000000000000000000000F6
:105820000000000000000000003800F001C0070088
:105830001E0038000E00078001C00070003000001C
:105840000000000000000000000000000000000058
:1058500000000000000000000000000000003FFC0D
:10586000000000003FFC3FFC0000000000000000C2
:105870000000000000000000000000000000000028
:1058800000000000000000001C000F00038001E089
:105890000078001C007001E003800E000C00000086
:1058A00000000000000000000000000000000000F8
:1058B00000000FC000F0003800380038003803F056
:1058C0000380030003000000000007800780000041
:1058D00000000000000000000000000000000000C8
:1058E00000E007F80C0C18063006700363F366330B
:1058F000C673CC63CC62CC66CCE6C7FCE00060002B
:10590000700038101FF000000000000000000000D0
:105910000000000003C007E006E00E700E700C30BF
:105920001C3818183FFC3FFC700E600EE0070000AA
:105930000000000000000000000000000000000067
:10594000000000003FF03838381C381C38383FF071
:105950003FF8381C380C380C381C3FF83FE000008A
:105960000000000000000000000000000000000037
:10597000000000E007FC1E04380038003000700012
:1059800070007000300038003C001F9C07FC0000D5
:105990000000000000000000000000000000000007
:1059A000000000003FF03078301C300C300E300E1C
:1059B000300E300E300E301C30383FF03FC000004B
:1059C00000000000000000000000000000000000D7
:1059D000000000001FF818001800180018001FF839
:1059E0001FF818001800180018001FF81FF8000012
:1059F00000000000000000000000000000000000A7
:105A0000000000001FF818001800180018001FF808
:105A10001FF81800180018001800180018000000DF
:105A20000000000000000000000000000000000076
:105A3000000000F007FC1E04380030007000700009
:105A400070FC700C700C300C380C1F1C07FC000034
:105A50000000000000000000000000000000000046
:105A600000000000300C300C300C300C300C3FFCCF
:105A70003FFC300C300C300C300C300C300C000083
:105A80000000000000000000000000000000000016
:105A9000000000003FFC0180018001800180018046
:105AA000018001800180018001803FFC3FFC0000FB
:105AB00000000000000000000000000000000000E6
:105AC000000000001FF000300030003000300030D7
:105AD000003000300030003000701DE01FC00000BA
