:020000040800F2
:1000000008350020450100088F0200088B02000817
:100010008D020008D90100086D0A000800000000E8
:10002000000000000000000000000000F5070008CC
:10003000DB01000800000000910200085D010008DB
:100040005F0100085F0100085F0100085F01000810
:100050005F0100085F0100085F0100085F01000800
:100060005F0100085F0100085F0100085F010008F0
:100070005F0100085F0100085F0100085F010008E0
:100080005F0100085F0100085F0100085F010008D0
:100090005F0100085F0100085F0100085F010008C0
:1000A0005F0100085F0100085F0100085F010008B0
:1000B0005F0100085F0100085F0100085F010008A0
:1000C0005F0100085F0100085F0100085F01000890
:1000D0005F0100085F0100085F0100085F01000880
:1000E0005F0100085F0100085F0100085F01000870
:1000F0005F0100085F0100085F0100085F01000860
:100100005F0100085F0100085F0100085F0100084F
:100110005F0100085F0100085F0100085F0100083F
:100120005F0100085F0100085F0100085F0100082F
:10013000DFF80CD000F03EF8004800470D2F000813
:10014000083500200648804706480047FEE7FEE7DE
:10015000FEE7FEE7FEE7FEE7FEE7FEE7FEE7FEE777
:10016000AD08000831010008421C10F8011B0029ED
:10017000FBD1801A7047034611F8012B00F8012BC0
:10018000002AF9D11846704730B50B4601460020C9
:100190002022012409E021FA02F59D4205D303FA49
:1001A00002F5491B04FA02F52844151EA2F10102CA
:1001B000F1DC30BD064C074D06E0E06840F001037D
:1001C00094E8070098471034AC42F6D3FFF7B4FF29
:1001D0009CE80208BCE80208FEE770472DE9F04100
:1001E0000022CC7804F00F03E40601D58C78234379
:1001F0000C784FF00F0714F0FF0F4FF0010C1CD0DC
:1002000005680CFA02F40E882640A64211D1960029
:1002100007FA06F825EA080503FA06F848EA05058C
:10022000CE78282E02D0482E02D002E0446100E0B1
:100230000461521C082AE4D305600A88FF2A1ED9EB
:100240004568002202F108060CFA06F40E882640E2
:10025000A64210D1960007FA06F825EA080503FA27
:1002600006F848EA0505CE78282E00D14461CE78FC
:10027000482E00D10461521C082AE3D34560BDE832
:10028000F0814161704701617047FEE7FEE770470A
:1002900070470000054A002903D09169014391612C
:1002A00070479169814391617047000000100240DE
:1002B00010B5264A516801F00C01254B002927D0C2
:1002C000042927D0082927D00360516801F0F001E4
:1002D0000909204B5C5C0168E1404160546804F40A
:1002E000E064240A1C5D21FA04F48460546804F478
:1002F0006054E40A1B5DD940C160526802F4404278
:10030000920B144B1B1F9A5CB1FBF2F1016110BD03
:100310000360DAE70360D8E7516801F470115368AD
:1003200003F48033022404EB914133B153689B03FF
:1003300007D5094B59430160C7E7074B5943016093
:10034000C3E7034B59430160BFE7000000100240C0
:1003500000127A000400002000093D00002904D0AA
:10036000018841F0400101807047018821F040017F
:10037000018070472DE9F04104460F461546114EA5
:1003800001213046FFF77DFF032000F079F9C7F324
:10039000074000F075F9C7F3072000F071F9F8B2D3
:1003A00000F06EF904E0FF2000F06AF904F8010B98
:1003B0006D1EADB2F7D23046BDE8F0410121FFF726
:1003C00062BF0000001001402DE9F04706460D46CF
:1003D000E8B24142CFB2140A02F0FF094FF480782C
:1003E000002812D0E8B24042C0B205EB000A34B394
:1003F000D01B80B2040A00F0FF093A462946304675
:1004000000F0AAF855463E4439E074B92946304612
:10041000BDE8F04700F0A0B842462946304600F05B
:100420009BF805F5807506F58076641EE4B2F3D27C
:100430004A4629463046BDE8F04700F08DB8B94538
:100440000ED9A9EB0700C4B23A462946304600F05F
:1004500083F85146F0192246BDE8F04700F07CB819
:1004600029463046BDE8F04700F076B842462946B6
:10047000304600F071F805F5807506F58076641E4B
:10048000E4B2F3D2B9F1000F06D04A46294630460D
:10049000BDE8F04700F060B8BDE8F08770B586B001
:1004A00001210803FFF7F6FE0121D420FFF7F2FE39
:1004B0000124ADF8004003208DF8020010208DF8D3
:1004C0000300224D69462846FFF788FE2021ADF83B
:1004D000001018218DF803101D4E69463046FFF7B5
:1004E0007DFE4021ADF8001069463046FFF776FEEC
:1004F0008021ADF8001069463046FFF76FFE0121FC
:100500002846FFF7C0FE0020ADF804004FF48271CA
:10051000ADF80610ADF808000221ADF80A10ADF8EC
:100520000C400902ADF80E10ADF81000ADF8120045
:100530000720ADF81400074C01A9204600F01DF972
:1005400001212046FFF70AFF06B070BD00100140F0
:1005500000080140003001402DE9F04105460F46FA
:10056000144600F0DBF8154E01213046FFF789FEF6
:10057000022000F085F8C7F3074000F081F8C7F3C8
:10058000072000F07DF8F8B200F07AF8B015844248
:1005900008D904460AA000F06BFA03E0287800F0BE
:1005A0006FF86D1C641EA4B2F8D201213046FFF72B
:1005B0006AFEBDE8F04100F09BB800000010014069
:1005C0003C3C2D464C4153482D4552524F522D3EF6
:1005D0003E205350495F464C4153485F5061676528
:1005E000577269746520746F6F206C617267652142
:1005F0000A0000002DE9F0410E4F01213846FFF7B7
:1006000040FE9F2000F03CF8FF2000F039F804463F
:10061000FF2000F035F80546FF2000F031F80646CF
:1006200001213846FFF72FFE200440EA0520304321
:10063000BDE8F0810010014070B5044600F06EF88E
:1006400000F056F80D4D01212846FFF71AFE202034
:1006500000F016F8C4F3074000F012F8C4F30720C6
:1006600000F00EF8E0B200F00BF801212846FFF789
:100670000AFEBDE8704000F03BB8000000100140E9
:100680002DE9F0410746184C4FF480552560174E70
:1006900009E02068411E216005D2002000F08AF8A0
:1006A000C0B2BDE8F0810221304600F05BF80028BE
:1006B000EFD03946304600F05EF8256008E021684A
:1006C0004A1E226004D2012000F074F8C0B2E8E7AC
:1006D0000121304600F046F80028F0D0304600F006
:1006E00048F8C0B2DDE700001C00002000300140E7
:1006F00010B5094C01212046FFF7C3FD0520FFF787
:10070000BFFFFF20FFF7BCFFC007FAD12046BDE8BE
:1007100010400121FFF7B7BD0010014010B5074C94
:1007200001212046FFF7ADFD0620FFF7A9FF204677
:10073000BDE810400121FFF7A6BD000000100140F8
:1007400010B5074C01212046FFF79BFDAB20FFF7BA
:1007500097FF2046BDE810400121FFF794BD00003F
:10076000001001400246002012890A4200D00120F8
:100770007047808970478181704730B5028802F4E4
:1007800041530A884C88CD8822438C882C432243CD
:100790000C8922434C8922438C892243CC892243F1
:1007A0001A430280828B22F400628283098A0182CA
:1007B00030BD000010B5014602A000F059F900203C
:1007C00010BD00003C3C2D464C4153482D45525233
:1007D0004F522D3E3E2053504920B5C8B4FDB3AC16
:1007E000CAB1216572726F72436F6465203D202526
:1007F000640A0000704700F001B800000CB5002248
:10080000019200922748016841F4803101604FF461
:10081000A063016801F4003100910199491C019124
:10082000009911B901999942F3D10168890302D560
:100830000121009100E000920099012930D11A496C
:100840000A6842F010020A600A6822F003020A6095
:100850000A6842F002020A604168416041684160F2
:10086000416841F480614160416821F47C1141603C
:10087000416841F4E8114160016841F08071016014
:1008800001688901FCD5416821F00301416041689C
:1008900041F0020141604168C1F381010229FAD1AE
:1008A0000CBD0000001002400020024010B50F48AF
:1008B000016841F00101016041680D4A1140416049
:1008C00001680C4A11400160016821F48021016037
:1008D000416821F4FE0141604FF41F018160FFF780
:1008E0008AFF05494FF00060086010BD001002400B
:1008F0000000FFF8FFFFF6FE08ED00E0002904D03D
:10090000818941F4005181817047818921F400512E
:100910008181704710B586B001210420FFF7BAFC31
:1009200001218803FFF7B6FC4FF40070ADF8140006
:1009300018208DF8170003208DF81600144C05A917
:100940002046FFF74BFC2115ADF8141004218DF85B
:10095000171005A92046FFF741FC4FF4E130019044
:100960000020ADF80800ADF80A00ADF80C00ADF8B5
:1009700010000C20ADF80E00064C01A9204600F036
:1009800013F801212046FFF7B9FF06B010BD0000A3
:1009900000080140003801400246002012880A4247
:1009A00000D001207047000030B585B004460D46E8
:1009B000208A4CF6FF710840E98801432182A08912
:1009C0004EF6F3110840A9882A8911436A89024327
:1009D0001143A181A08A4FF6FF410840A989014334
:1009E000A1826846FFF764FC1D48844201D1039848
:1009F00000E00298A189090408D500EBC00101EBD1
:100A0000001029684900B0FBF1F007E000EBC001DD
:100A100001EB001029688900B0FBF1F06422B0FB03
:100A2000F2F109010B096FF018056B4300EB83002D
:100A3000A3891D044FF0320307D503EBC000B0FBC0
:100A4000F2F000F00700084306E003EB0010B0FBF3
:100A5000F2F000F00F000843208105B030BD000027
:100A600000380140C1F3080181807047FEE70000B3
:100A70000FB4054B10B503A9044A029800F02CF8F6
:100A800010BC5DF814FB0000092C00082C000020AD
:100A90000FB4084B10B504A902AA039800F01CF883
:100AA000044602A9002000F0B8F9204610BC5DF809
:100AB00014FB00001B0E000802E008C8121F08C14A
:100AC000002AFAD170477047002001E001C1121FCF
:100AD000002AFBD1704700002DE9FF4F8BB08846FC
:100AE0000546002606E025280BD0DDE90D129047CB
:100AF0006D1C761C28780028F5D10FB03046BDE873
:100B0000F08F0024A146A2460122AE4900E0044332
:100B100015F8013F203B02FA03F00842F7D128788C
:100B20002A2810D06FF02F022878A0F1300109296F
:100B300015D809EB890102EB410144F0020400EBF6
:100B400001096D1CF0E758F8041B5FEA010903D5A1
:100B500044F40054C9F1000944F002046D1C2878E3
:100B60002E2817D115F8010F44F004042A280ED0BE
:100B70006FF02F022878A0F1300109290AD80AEB7A
:100B80008A0102EB410100EB010A6D1CF2E758F803
:100B900004AB6D1C28786C280FD006DC4C2817D0CD
:100BA00068280DD06A2814D104E0742810D07A285F
:100BB0000FD10DE044F400140AE044F4801401E085
:100BC00044F440146978814202D104F580146D1C0C
:100BD0006D1C2878692865D006DC00288DD0632834
:100BE00027D0642806D15DE06E2808D073282AD06B
:100BF000752877D0DDE90D129047761CE0E0C4F34C
:100C00000250022809D003280DD0D8F8001004287B
:100C10000DD00E6008F10408D2E0D8F80010F217E9
:100C2000C1E90062F6E7D8F800100E80F2E70E7016
:100C3000F0E718F8041B8DF8001000208DF8010073
:100C4000EB46012003E058F804BB4FF0FF3061078A
:100C50004FF0000701D40AE07F1C57450DDA8742A8
:100C6000FADB1BF807100029F6D106E07F1C87424B
:100C7000FCDB1BF807100029F8D1DDE90D23A9EBF7
:100C800007008146214600F0B1F83044C61904E05F
:100C9000DDE90D121BF8010B90477F1EF8D22146AB
:100CA000484688E058F8040BC4F302514FF00A0B91
:100CB000032900D100B2042900D140B2002802DA91
:100CC00040422D2102E0210505D52B218DF824106D
:100CD000012104E006E0E10710D02021F6E708AF8B
:100CE000089113E058F8040BC4F302514FF00A0BBB
:100CF000032900D180B2042900D1C0B20021EEE75F
:100D00005946FFF741FA303107F8011D0028F7D1A5
:100D1000ADEB070000F1200B600702D524F480340E
:100D200001E04FF0010ADA4502DDAAEB0B0000E01A
:100D30000020824600EB0B0108980144A9EB01005A
:100D40000A90E00306D4DDE90D2321460A9800F05D
:100D50004DF806444FF0000908E009A911F8090010
:100D6000DDE90D12904709F10109761C08998945C2
:100D7000F3DBE0030CD5DDE90D2321460A9800F0F2
:100D800035F8064404E0DDE90D1230209047761C6A
:100D9000BAF10001AAF1010AF5DC05E0DDE90D1266
:100DA00017F8010B9047761CBBF10001ABF1010B6A
:100DB000F4DC0A982146DDE90D2300F005F806442D
:100DC0006D1C97E6092801002DE9F0410446002535
:100DD0001E461746880404D405E039462020B04753
:100DE0006D1C641EF9D52846BDE8F0812DE9F0415F
:100DF000044600251E469046C80301D5302700E072
:100E00002027880404D505E041463846B0476D1CCC
:100E1000641EF9D52846BDE8F0810A68531C0B60B2
:100E20001070704710B5044600202071401EE0622B
:100E3000204602F087FA08B1032010BD94F82E0274
:100E400094F82F1240EA0120A0F52A41553901D02B
:100E5000022010BD14F8660FE178627840EA016163
:100E6000A078663C000440EA022001430B48B0EB46
:100E7000012F01D1002010BD14F8821FE2786378A1
:100E800041EA0261A278120442EA03221143B0EB64
:100E9000012F01D1002010BD012010BD004641549A
:100EA00000E0401C02780AB18A42FAD1007870470B
:100EB000891E4269921E8A4201D800207047826AC8
:100EC000807801FB002070472DE9F05F81460E46D7
:100ED000B07EF17E50EA012002D00020BDE8F09FF4
:100EE000307800F03F00401E00EB800101EBC004B1
:100EF00001200025DFF860A006F101081AF80510AE
:100F0000725C11F8081042EA012788B1FF2C0BD25D
:100F1000384601F0B7FB83462046641C39F81000C0
:100F200001F0B0FB834501D00020D7E7384605E04B
:100F3000A7F57F41FF3901D00020CFE76D1C0D2DB3
:100F4000DCD33178490605D520B139F8140008B151
:100F50000020C3E70120C1E7A23700082DE9F041D6
:100F600006460F46002F08D03946304601F0AAFE4B
:100F7000022809D20120BDE8F081F56815B1706939
:100F8000A84207D8012505E0411CF4D071698142CF
:100F9000F1D83D462C46641C7069A04204D8022456
:100FA000022D01D20020E6E72146304601F08AFEFC
:100FB00038B1411CDFD00128DDD0AC42EBD100209C
:100FC000D9E76FF070422146304602F013FA28B993
:100FD00027B122463946304602F00CFA20B10128EA
:100FE0000DD001242046C6E7F4603069411CF9D0D9
:100FF000401E3061707940F001007071F2E74FF0EF
:10100000FF34EFE72DE9F35F8846D8F8006000E091
:10101000761C30782F28FBD05C28F9D00098D0F8C7
:101020001CA00024254628466D1C305C202808D3CF
:101030002F2806D05C2804D0FF2C09D30620BDE859
:10104000FC9F7119C8F8001020282AD2042532E02C
:10105000C0B2A0F181017D290ED829466D1C715CBA
:1010600001EB002080B2A1F140023F2A04D3803975
:101070007F2901D30620E2E7012101F0D7FA0746D4
:1010800047B1802F08D2394665A0FFF709FF18B194
:101090000620D4E70620D2E72046641C2AF8107008
:1010A000C1E7002507E0601E3AF81000202801D0B3
:1010B0002E2802D1641E002CF5D154B100202AF84C
:1010C000140000980B222021806901F0F7FF00270F
:1010D00002E00620B3E77F1C3AF817002028FAD078
:1010E0002E28F8D01FB145F0030500E0641E24B19E
:1010F000601E3AF810002E28F8D14FF00008C146C3
:101100004FF0080B38467F1C3AF8106006B3202ECB
:1011100003D02E2E04D1A74202D045F00305F1E7FB
:10112000D84501D2A74219D1BBF10B0F0ED0A7426F
:1011300001D045F003050BD827464FF008084FF0C3
:101140000B0B4FEA89604FEA1069DBE745F00305B6
:10115000009880690178E5293DD03EE0802E08D3D3
:10116000304601F08FFA002101F060FA064645F0A2
:101170000205FF2E0FD9ABF10100804503D345F0E6
:101180000305D846BEE70098310A8269404608F157
:101190000108115418E026B1314624A0FFF780FE63
:1011A00018B15F2645F003050EE0A6F141001928AD
:1011B00002D849F0020907E0A6F16100192803D816
:1011C00049F00109203EB6B200988169404608F115
:1011D00001080E5496E705210170BBF1080F03D1F9
:1011E0004FEA89604FEA1069C9F38100032803D0F0
:1011F0006FEA0901890701D145F00205A90709D461
:1012000009F00301012901D145F01005012801D1A0
:1012100045F0080500988069C57200200FE70000BE
:10122000222A3A3C3E3F7C7F000000002B2C3B3DB5
:101230005B5D000070B505460E460021284600F0B3
:1012400013FA88B900242969286802F07BF858B994
:1012500069690978E5290BD051B10024012128469C
:1012600000F06DF80028EED0042800D1072070BDF2
:10127000641CB442F8D0F1E72DE9F04704460021A0
:10128000204600F0F1F9002857D1FF26B1464FF66D
:10129000FF7AA4F820A02169206802F053F8804664
:1012A0005FEA080048D167693D7865B1F87A00F0D7
:1012B0003F00E52D03D0010708D50F2806D0FF26F3
:1012C000A4F820A030E04FF0040835E00F2801D04A
:1012D000CEB11DE0E06938B3690606D597F80D90E8
:1012E00025F040052E46E1882184B54208D1797B5E
:1012F000494505D13946FFF7E7FD08B1761E00E004
:10130000FF26F6B210E0384602F0A6F9484513D0A1
:10131000A169C87AC00704D10B22384601F0B8FE93
:1013200050B1FF26A4F820A00021204600F007F8C5
:1013300080465FEA0800AED04046BDE8F0872DE960
:10134000F04104460E46E7887F1C3804000C0AD0A2
:10135000216941B1206842895209B7FBF2F302FBCF
:1013600013721AB166E00420BDE8F081491C2161C6
:10137000E16871B1428983785209B7FBF2F25B1ED2
:101380001A4257D101F09EFC0546012D06D80220D5
:10139000EAE70089B8424DD80420E5E7681C14D07C
:1013A00020684169A9423FD88EB1E168FFF7D6FDB8
:1013B000054628000DD0012D0DD0681C0DD02068E9
:1013C00002F0B1F958B10120CEE70120CCE70420AA
:1013D000CAE70720C8E70220C6E70120C4E7206863
:1013E00000214289303001F069FE29462068FFF76C
:1013F0005FFD2168C86200264FF001080CE080F80C
:101400000480206802F08FF908B10120ACE7206861
:10141000C16A491CC162761C20688178B142EED84D
:101420002168C96A891BC162E56029462068FFF707
:101430003FFD2061E780206841894909B7FBF1F24F
:1014400001FB1271302202EB41110844606100205F
:101450008AE72DE9F04705468946FF26B04604276E
:1014600048E0286801F06EFF0746380045D16869FA
:1014700004787CB1C17A01F03F01E52C08D02E2C14
:1014800006D021F02002082A06D000224A4505D0C5
:10149000FF261FE0042730E00122F7E70F2901D0E3
:1014A00026BB1FE0610606D590F80D8024F04004AD
:1014B0002646E9882984B4420AD1417B414507D1B7
:1014C000EA690146104601F057FF08B1761E00E0B8
:1014D000FF26F6B200212846FFF731FF0746380005
:1014E00008D00AE002F0B8F8404506D04FF6FF7089
:1014F000288402E029690029B3D10FB100202861B6
:101500003846BDE8F0872DE9FE430446A769E66941
:101510000C223946684601F0C8FD9DF80B00C00753
:1015200018D00020F872E06101252B46324669464A
:10153000384601F07BFB2046FFF79EFE10B96D1C7C
:10154000642DF2D3642D0BD004280AD19DF80B0032
:10155000F872E6619DF80B0080070ED5002003E0CD
:101560000720BDE8FE83401C36F810100029FAD190
:1015700019300D21B0FBF1F600E00126314620467E
:10158000FFF758FE054601271DBB761E21D0E088D7
:10159000811B204600F068F80546280019D1A06993
:1015A00002F05AF880462169206801F0CBFE05461A
:1015B0007DB9F2B243466169E06901F0B9FA206889
:1015C000077100212046FFF7BAFE05460DB9761EC9
:1015D000E9D1C5B92169206801F0B4FE05462800AB
:1015E00011D120220021606901F068FDD4E90501D4
:1015F0000B2201F05AFDA0696169C07A00F0180061
:101600000873206807712846ABE770B50446E68882
:10161000218CA1F57F40FF3800D13146204600F0F3
:1016200023F8054628001DD12169206801F08AFEB3
:101630000546A5B920220021606901F03FFD6169DE
:10164000E5200870216801200871E088B04206D2C8
:1016500000212046FFF773FE0546002DE4D0042D3F
:1016600000D10225284670BD70B504460D46E580C0
:10167000A368012B03D020684169994201D8022058
:1016800070BD1BB90178032900D1436A23B1418998
:1016900080784E09464318E00189A94201D802200A
:1016A00070BD406A17E01946206801F00BFB034645
:1016B000581C07D0022B03D320684069984203D8F6
:1016C000022070BD012070BDAD1BB542EBD21946A2
:1016D0002068FFF7EDFBE36098B121684A89520961
:1016E000B5FBF2F21044206148894009B5FBF0F2E5
:1016F00000FB1250302202EB4010084460610020D1
:1017000070BD022070BD10B501460120002910D027
:1017100001290ED1FEF7C2FE4FF4FA70401E0004FC
:10172000000CFBD1FFF70CF8BDE81040012000F0E1
:101730002FB810BD03460420002B13D0012B11D16C
:10174000012904D0022906D003290AD107E04FF469
:10175000C060106005E04FF48050108001E001206F
:1017600010600020704770B504460D460420002C20
:101770000DD0012C0BD102F500724FF6FF7000EA7C
:101780000330110302462846FEF7F4FD002070BD29
:1017900010B50124002807D0012805D1FEF72AFF43
:1017A0000249884200D10024204610BD1740EF00B6
:1017B00070B504460E461D460420002D13D0002CA3
:1017C00010D0012C0ED102F5007214032046FEF752
:1017D00033FF4FF6FF7000EA053221463046FEF730
:1017E000F3FD002070BD042070BD10B504462046F6
:1017F00000F09DFD002806D1204601F0BEFF002824
:1018000001D10021216010BD10B50446204601F031
:10181000B4FF002801D10021216010BD2DE9F74F50
:101820008B46144600226946204600F0DDFF8046C4
:1018300026685FEA08005CD1D6E90409A9F1020133
:10184000884202D8CBF8000053E096F800A00025AB
:10185000BAF1010F04D0376A00200024B8B122E0A9
:1018600002242146304601F02DFA411C03D0012804
:1018700004D030B106E04FF0010833E04FF0020829
:1018800030E06D1C7069641C8442EAD32AE039465A
:101890007F1C304601F056FD80465FEA080021D1EA
:1018A00006F130047089BAF1020F0CD02178E27889
:1018B000637841EA0261A278120442EA03221143EA
:1018C000090109D009E02178627851EA022100D1AA
:1018D0006D1CA41C801E02E06D1C241D001FB9F1AC
:1018E0000109BBD13561707940F001007071CBF80E
:1018F00000504046BDE8FE8F2DE9F04704460D46F6
:10190000204601F03AFF80465FEA080001D0BDE8BA
:10191000F087E0790028FAD1E068A84203D2A179E3
:10192000890700D40546A1680027A7604FF0010988
:10193000002D61D020688678428956434FF0020A14
:1019400069B16A1E491EB2FBF6F2B1FBF6F39A4288
:1019500005D3701E8143A1606D1A61690BE0216996
:1019600041B90021FFF7FAFA0146012905D0481CC8
:1019700007D02161616159BB3EE084F807A00220D5
:10198000C5E784F807900120C1E7A079800706D554
:101990002068FFF7E3FA014629B935461AE02068C6
:1019A00001F090F90146481C09D0012903D92068AB
:1019B0004069884207D884F807A00220A7E784F886
:1019C00007900120A3E76161A0683044A060AD1BCF
:1019D000B542DAD8A0682844A06020684289B5FBE7
:1019E000F2F302FB13523AB1FFF762FAF0B1216849
:1019F0004989B5FBF1F10F182068A1684289B1FB54
:101A0000F2F302FB131131B3A269BA4223D0A179D8
:101A100004F12405490611D5407801232946FFF732
:101A2000C7FE38B184F80790012070E784F807A05A
:101A300002206CE7A07920F04000A071206801230B
:101A40003A4640782946FFF78EFE18B184F8079091
:101A500001205CE7A761D4E90201884204D9E06073
:101A6000A07940F02000A071404650E72DE9F14FE9
:101A7000ADF50E7D01F0A6F9064601228EA984A8D7
:101A800000F0B2FE044620007ED181A88A9001A811
:101A90008B9084A88E9901F081F80446200000D133
:101AA0000824042C70D100218498FFF757FA80464F
:101AB0000024B8F1000F00D10724B8F1010F00D1C4
:101AC0000224B8F1FF3F00D101241CB9849801F031
:101AD0002AFE04464FF0100A4FF00109CCBB4146E4
:101AE0008498FFF7E5F98346849D3035849800217A
:101AF0004289284601F0E2FA0B222021284601F013
:101B0000DDFA2E272F7085F80BA0AE75300AE87528
:101B1000300C2876300E68764146284601F094FD58
:101B200005F12000202229468D9001F0BEFA85F8AB
:101B30002170869984980078032804D18498406A9B
:101B4000884200D100218D9801F07EFD849887782D
:101B500016E017E08498C0F82CB00BF1010B8498C4
:101B600080F80490849801F0DEFD0446200009D13D
:101B7000849800214289284601F0A0FA7F1EFFB216
:101B8000002FE7D12CB900E01DE084A8FFF7BBFCD3
:101B9000044624B14146849801F0DFFC13E08998A3
:101BA00080F80BA08675310AC175310C0176310EB3
:101BB0004176414601F048FD849880F8049084986D
:101BC00001F057FD04460DF50F7D2046BDE8F08F6E
:101BD00017B581B0144602980090684601F066F986
:101BE000002802DA0B2004B010BD0B4B53F8201074
:101BF000002201B10A700199002900D00A7043F84F
:101C0000201001D0012C01D00020ECE7002202A915
:101C100001A800F0E9FDE6E7240000202DE9F747E0
:101C2000ADF50D7D0646002E0FD04FF00008C6F82A
:101C3000008002F01F0727F001028EA984A800F09F
:101C4000D3FD0546280005D096E009200DF5107D4E
:101C5000BDE8F08781A88A9001A88B9084A88E990E
:101C600000F09CFF0546899C0DB904B9062517F0C4
:101C70001C0F51D04DB1042D03D184A8FFF743FCB4
:101C8000054647F00807899C08E0E07A10F0110F3C
:101C900001D0072502E0780700D50825DDBB38070D
:101CA00045D501F08FF8A073010AE173020C22748C
:101CB000030E6374A075E1752276637684F80B8059
:101CC00084F81C8084F81D8084F81E8084F81F80AE
:101CD0002146849801F00BF981460021204601F04D
:101CE000B3FC849901200871B9F1000F1FD08498CA
:101CF000D0F82CA04946849801F02FFC0546280016
:101D000015D18498A9F10109C0F80C905146849826
:101D100001F018FB05460AE04DB9E07AC10601D58D
:101D2000042504E0B90702D5C00700D007253DB956
:101D3000380701D547F020078498C06AF061346203
:101D4000D5B9B77186F807802146849801F0CFF89D
:101D50003061207FE17F627F40EA0160A17F09045A
:101D600041EA02210843F060C6F80880C6F81880EE
:101D700084983060C088B080284667E733B5ADF5F9
:101D8000057D0546002D07D0002286A984A800F015
:101D90002BFD044624B126E009200DF5077D30BD5A
:101DA0008498286081A8A86101A8E86128468699DE
:101DB00000F0F4FE04469CB9696941B1C87AC006D6
:101DC00004D5849801F093F8A86000E005243CB99C
:101DD0008498C088A88000212846FFF745FC044667
:101DE000042C00D105240CB1002028602046D4E743
:101DF0000FB42DE9F0479AB001904FF00008CDF8EC
:101E00000880CDF80C8024A8199014AF239810F8FE
:101E1000011B239000296ED0252903D001A801F0D1
:101E20007FFBF3E700252E4610F8011B2390302995
:101E300002D02D2905D012E0012510F8011B2390B6
:101E40000DE0022510F8011B239008E006EB860048
:101E500001EB4006303E239810F8011B2390A1F1BE
:101E600030000928F2D96C2901D04C2905D145F060
:101E70000405239810F8011B239000293BD00A4643
:101E8000A2F16100192801D8203AD2B24F2A46D0D7
:101E900006DC422A41D0432A37D0442A06D140E00A
:101EA000532A07D0552A3CD0582A3CD001A801F02B
:101EB00037FBABE7199850F8049B1990002400E019
:101EC000641C19F804000028FAD1A80704D50DE015
:101ED000202101A801F024FB2046641CB042F7D366
:101EE00004E009F1010901A801F01AFB99F80010BA
:101EF0000029F6D104E075E0202101A801F010FBD3
:101F00002046641CB04281D2F6E7199810F8041BF1
:101F1000199001A801F004FB78E7022304E00823EC
:101F200002E00A2300E01023680703D5199C01CCC6
:101F3000199404E0442A05D0199C01CC1994442A30
:101F400004D008E0199C01CC1994F8E7002802DAC3
:101F5000404245F008050024B0FBF3F203FB1202F7
:101F6000D2B2B0FBF3F0092A05D9782917D04FF087
:101F7000070C6244D2B23032A446641C07F80C202D
:101F800008B1102CE8D3280703D52D222046641C65
:101F90003A54A146E80705D04FF0300A09E04FF067
:101FA000270CE6E74FF0200A03E0514601A801F0B4
:101FB000B7FAA80704D4484609F10109B042F4D39E
:101FC000641E01A8395D01F0ABFA002CF8D103E0E2
:101FD000514601A801F0A4FA484609F10109B042AE
:101FE0009AD2F5E7CDF864800298002810DBDDE98D
:101FF000010218AB04A900F03CFA48B918990298FC
:10200000884205D103981AB0BDE8F0075DF814FBCB
:102010004FF0FF30F7E72DE9F84F044688461646A3
:1020200099460020C9F80000204601F0A6FB0028D0
:1020300012D1E07900280FD1A079C0070BD0D4E9E4
:102040000210401A864200D9064604F124004FF0DF
:10205000010A009098E00720BDE8F88F2268A06888
:102060005189B0FBF1F301FB1303002B6DD1B0FBE1
:10207000F1F193785B1E1940CDB275B940B11046AD
:10208000616900F01FFE022804D20220E071E3E73C
:102090002069F8E7411C1CD0606161692068FEF787
:1020A00007FFD0B100EB050B20684189B6FBF1F7C3
:1020B0004FB38178EA198A4200D94F1B40783B46DA
:1020C0005A464146FFF74FFB50B184F807A0012064
:1020D000C2E784F807A00120BEE70220E071BBE759
:1020E000A07940060BD5A069A0EB0B00B84206D240
:1020F00021684A89009900FB028000F0D6FF206821
:1021000045897D4336E0A2695A451CD0A17949062C
:102110000DD5407801230099FFF74AFB18B184F8E8
:1021200007A0012098E7A07920F04000A071206866
:1021300001235A4640780099FFF715FB18B184F83F
:1021400007A0012088E7C4F818B02068A16840897A
:10215000B1FBF0F200FB1212851AB54200D93546E8
:10216000B1FBF0F200FB1210011924312A4640465F
:1021700000F09BFFA844A0682844A060D9F80000A4
:102180002844C9F80000761B002E7FF467AF0020BA
:1021900062E770B5ADF5047D04460E46204601F0B9
:1021A000ECFA002810D15EB181A8A06101A8E0611D
:1021B00000212046FFF74DF90025042807D008E04C
:1021C00000212046FFF750FA0DF5047D70BD256112
:1021D00000200028F8D13146204600F0F7FD00210C
:1021E0002046FFF7ACF80428EED125610020EBE78C
:1021F00073B5ADF51C7D01229CA993A800F0F4FAFB
:102200000446002C6DD193988A9081A8999001A8DA
:102210009A9093A89C9900F0C1FC0446002C60D1D0
:102220009898A8B1989915220B3184A800F03DFF29
:10223000242293A98AA800F038FF9DA800F036FE5A
:10224000002807DB8AA89D9900F0A8FC044602E05C
:10225000042446E00B2404B90824042C41D18AA8A4
:10226000FFF751F90446E4BB8F9D13220DF21221B2
:1022700005F10D0000F019FF9DF8100240F020005C
:10228000E872939801260671E87AC0061FD58C99EA
:10229000959888421BD02946939800F028FE014665
:1022A0009398FEF705FE014639B1939801F04AF87C
:1022B00004469398503014B109E0022407E04178B5
:1022C0002E2904D18C9901F0BFF99398067144B975
:1022D00093A8FFF79AF904461CB9939801F0C9F93D
:1022E00004460DF51E7D204670BD33B5ADF50D7D60
:1022F0000D4600228DA984A800F076FA044694B910
:1023000081A88A9001A88B9084A88D9900F046FC42
:10231000044644B9899828B12DB1294684A800F013
:1023200055FD00E006240DF50F7D204630BD70B54B
:102330000446204601F021FA00280ED1A1798A0630
:102340000BD548060ED52068012304F124014078FE
:10235000A269FFF72DFA08B1012070BDA07920F025
:102360004000A071E169206800F0ECFF0028F4D182
:10237000256AE87A40F02000E872207B2877A0895F
:10238000000A6877E068000CA877E068000EE8773C
:102390002846216901F058F900F014FDA875010ADA
:1023A000E975010C2976000E68760020A874E8749F
:1023B000A07920F02000A071216801200871206818
:1023C000BDE8704001F055B971B5ADF5157D00253A
:1023D000012295A98CA800F007FA0446F4BB80A856
:1023E0009290CDF84CD28CA8959900F0D7FB04467A
:1023F000A4BB919E2EB1F07AC00700D0072414B17F
:1024000020E00624FBE731468C9800F070FD05467D
:10241000C5B1F07AC00615D524228CA983A800F096
:1024200044FE8595022183A8FFF71EF904464CB9A6
:10243000002183A8FFF70DF8044604B90724042CF3
:1024400000D1002454B98CA8FFF7DFF804463CB94A
:1024500035B129468C9801F080F800E005E004468B
:102460001CB98C9801F005F904460DF5167D20463F
:1024700070BD2DE9F84F044688461646994600205F
:10248000C9F80000204601F078F9002806D1E0796B
:10249000002803D1A079800702D40720BDE8F88F77
:1024A000A068811900D3002604F124004FF0010A2E
:1024B0000090ADE02268A0685189B0FBF1F301FB08
:1024C0001303002B7DD1B0FBF1F193785B1E194013
:1024D000CDB2F5B968B110466169FEF73FFD00283D
:1024E00070D001280DD0411C0ED06061216979B1F6
:1024F0000FE020690028F2D100211046FEF72EFDE2
:10250000EDE70220E071C9E784F807A00120C5E7E4
:102510002061A07940060FD520680123A269407888
:102520000099FFF745F918B184F807A00120B5E735
:10253000A07920F04000A07161692068FEF7B8FC26
:10254000B0B100EB050B20684189B6FBF1F737B35A
:102550008178EA198A4200D94F1B40783B465A4697
:102560004146FFF725F930B184F807A0012095E72F
:102570000220E07192E7A069A0EB0B00B8420AD2FA
:1025800021684A8900FB0281009800F08EFDA07945
:1025900020F04000A071206845897D432EE0A169AC
:1025A000594510D0D4E9021291420CD2407801234F
:1025B0005A460099FFF7D7F828B184F807A0012000
:1025C0006CE702E027E0C4F818B02068A1684089F1
:1025D000B1FBF0F200FB1212851AB54200D9354664
:1025E000B1FBF0F200FB1210204424302A46414691
:1025F00000F05BFDA07940F04000A071A844A06805
:102600002844A060D9F800002844C9F80000761BCF
:10261000002E7FF44FAFD4E90201884200D9E06078
:10262000A07940F02000A071002037E770B5802825
:102630001FD345F2205409B1104D00E0104D002386
:102640001022E11A01EBD17103EB610135F8216031
:10265000864207D001D20B4600E00C46A2F10102EF
:10266000002AEED132B14FF0010000EB410035F805
:10267000100070BD4FF0000070BD0000608C0108BC
:10268000DC37000870B5802806D2A0F16101192955
:1026900001D8203880B270BD0C2300224FF4F774AB
:1026A000094DA11A02EB510135F81160864205D09F
:1026B00001D20A4600E00C465B1EF2D1002BEAD0A4
:1026C000024830F8110070BDE4E00208C0E40208DE
:1026D0007CB5214921A0FFF708FE264C2070002878
:1026E00038D125A0FEF7C4F91B4D2AA02968FEF7B2
:1026F000BFF9E888C0F34511C00ACDE90001A888F8
:1027000040F2BC7100F01F03C0F3431201EB5021F3
:1027100026A0FEF7ADF9287A810601D5412100E017
:102720002D21420701D5532200E02D22CDE90021C1
:10273000810701D5482300E02D23C10701D0522293
:1027400000E02D22C00601D5442100E02D2120A06B
:10275000FEF78EF920787CBDE8240020313A5465DC
:1027600073744469722F746573746469722E74781B
:102770007400000014000020A1B0746573746469D3
:10278000722E747874A1B1CEC4BCFED0C5CFA2A302
:10279000BA0A0000A1B7CEC4BCFEB4F3D0A13A205F
:1027A000256C6428D7D6BDDA290A0000A1B7CAB1C2
:1027B000BCE4B4C13A2025752F253032752F253061
:1027C00032752C20253032753A253032750A0000DA
:1027D000A1B7CAF4D0D43A202563256325632563C5
:1027E00025630A0A000000002DE9FF4780460846DD
:1027F00016460027C8F8007000F058FB0546002D6B
:1028000003DA0B2004B0BDE8F087C64850F8254035
:102810008CB1C8F80040207820B16078FEF7B8FF8E
:10282000C1070AD02770E8B26070FEF76CFFC107DD
:102830000AD00320E6E70C20E4E71EB1400701D5EB
:102840000A20DFE70020DDE71EB1400701D50A209E
:10285000D8E7607804F10A020221FEF76BFF30B975
:102860006089B0F5007F02D3B0F5805F01D9012007
:10287000C8E7002529462046FEF7D4FA012826D1CC
:102880000021E84604EB011000F5F770027952B11F
:10289000027AC37A42EA0362837A407A1B0443EAEB
:1028A0000020024300E0002248F82120491C0429AE
:1028B000E8D3002658F8265025B129462046FEF7D1
:1028C000B1FA00E0022010B1761C042EF2D30328E6
:1028D00002D018B10D2095E7012093E794F83B0052
:1028E00094F83C10B4F80AC040EA0120604501D0D9
:1028F0000D2087E794F8460094F8471040EA01203D
:1029000058B914F8540FE178627840EA0160A17870
:102910000904543C41EA02210843A06194F840A014
:1029200084F803A0BAF1010F04D0BAF1020F01D06C
:102930000D2067E70AFB00FA94F83D20A27012B15F
:10294000511E0A4201D00D205CE794F8411094F822
:10295000423041EA032323814FEA5C16B3FBF6F1D0
:1029600006FB113109B10D204CE794F8431094F89F
:10297000448041EA082179B994F8501094F85380C2
:1029800094F8519041EA086194F852804FEA08485F
:1029900048EA092841EA080194F83E8094F83F90FB
:1029A00048EA0929B9F1000F08D0B3FBF6F609EBA4
:1029B0000A08B044414503D20D2023E70D2021E74A
:1029C000A1EB0801B1FBF2F141B3012640F6F6722A
:1029D000914200D302264FF6F672914200D30326AD
:1029E000891C6161E56105EB09022262A844C4F813
:1029F0002880032E14D03BB352446262022E25D0AD
:102A000001F0010201EB410102EB5101491E614459
:102A1000B1FBFCF181421BD90D20F3E60D20F1E65C
:102A20000BB10D20EEE694F85C2094F85F3094F83A
:102A30005D8042EA036294F85E301B0443EA082397
:102A40001A4362628900E1E70D20DBE64900DDE719
:102A50004FF0FF302061E06080206071032E57D17D
:102A600094F8600094F8611040EA012001284FD1E9
:102A7000691C204600F066FCF0BB677194F82E02DA
:102A800094F82F1240EA0120A0F52A4155393FD190
:102A900014F8300FE178627840EA0160A178303CA8
:102AA000090441EA022108431F49884230D194F8C1
:102AB000140294F8171294F8152240EA016094F871
:102AC0001612090441EA02210843184988421FD11D
:102AD00094F8180294F81B1294F8192240EA016045
:102AE00094F81A12090441EA02210843206194F87B
:102AF0001C0294F81F1200E00AE040EA016094F81A
:102B00001E1294F81D22090441EA02210843E060E4
:102B100026700449091F0888401C0880E0800020B6
:102B200070E600002400002052526141727241613F
:102B30002DE9F0434B730F23CB7200230B738B767D
:102B4000CB76531E03EB830404EBC30500231C4622
:102B5000114E01F1010C4FF6FF77BB4203D02B461B
:102B60006D1C30F8133016F8048001F8083016F8A0
:102B700004904FEA132809F80C8003B93B46641C03
:102B80000D2CEAD3BB4202D030F8150008B942F050
:102B900040020A70BDE8F083A237000873B504460E
:102BA000019908782F2801D05C2801D1491C019196
:102BB0000025A56001980078202805D20021204634
:102BC000FEF752FD65617CBD01A92046FEF71AFAA9
:102BD0000028F8D12046FEF74FFBA169C97A28B139
:102BE0000428F0D14907EED405207CBD4907FCD468
:102BF0006169C87AC00601D405207CBD206800F058
:102C000076F9A060E0E7000070B50446064DE1B239
:102C10002846FDF727FF80212846FDF7BDFE002846
:102C2000F9D0204670BD0000003801407CB5054653
:102C300016461C460B22284600F037FA052C11D9FF
:102C40001F480CE0B61C002322460C4662F35F04CA
:102C50004908E20300D544405B1C102BF4D33188B3
:102C60000029EFD107226B4604F00F0130313929DA
:102C700001D9C91DC9B21046521E19542409002C8D
:102C8000F2D17E2098540021541E06E081387D2820
:102C900002D8A14206D0491C491C914202D2685C6C
:102CA0002028F3D1082A03D21046521C185C00E0F9
:102CB00020200C46491C28550829F3D37CBD000070
:102CC000211001002DE9F04104460D46022D02D3EA
:102CD0006069A84201D8012609E04FF0FF3620784C
:102CE000012807D0022835D003284BD001263046D2
:102CF000BDE8F08105EB55076089216AB7FBF0F06C
:102D00000144204600F01EFB0028F0D160893946BE
:102D1000B1FBF0F200FB121121447F1C91F83080CE
:102D2000B7FBF0F0216A0144204600F00BFB0028BD
:102D3000DDD16089B7FBF0F100FB1170204490F801
:102D4000300048EA0020E90701D00609CFE7C0F3C8
:102D50000B06CCE76089216A4008B5FBF0F001441E
:102D6000204600F0EFFA0028C1D161896800B0FB6D
:102D7000F1F201FB1200204430300178407841EA42
:102D80000026B4E76089216A8008B5FBF0F00144B1
:102D9000204600F0D7FA0028A9D16189A800B0FB2D
:102DA000F1F201FB1200204430300178C27841EA90
:102DB000026182784078120442EA0020014321F047
:102DC000704694E700487047000021462DE9F04125
:102DD0000E4606F109050169002937D04369002430
:102DE0002146641C5A5C202A17D0052A00D1E5220E
:102DF000092C02D12E2105F8011BA2F1410119294C
:102E000009D81F7B092C01D3102100E008210F42B3
:102E100001D02032D2B205F8012B0B2CE0D3D97AA5
:102E20003172197FDA7F5C7F41EA02619A7F120476
:102E300042EA042211433160197E5A7E41EA02219E
:102E4000B180997DDA7D41EA0221F1804FF00008DE
:102E500085F80080B769002F26D00024016909B3E6
:102E6000F169F9B1018CA1F57F42FF3A1AD0C56929
:102E700014E00021FFF7DAFB58B1FF2803D9020A5A
:102E80002146641C7A54F169491EA14203D80024EA
:102E900008E0002406E02146641C785435F8020B53
:102EA0000028E6D107F80480BDE8F08110B504469B
:102EB0004FF0FF302368002B0BD0194600E0491C6F
:102EC0000A78202A01D33A2AF9D10A783A2A01D07D
:102ED000002010BD13F8012B303A0A2AF9D28B4298
:102EE000F7D1022AF5D21046491C216010BD0246D6
:102EF000887ECB7E40EA03201278032A05D10A7D22
:102F0000497D42EA012140EA01407047FDF702FD98
:102F100017A0FDF7ADFD012222A12348FEF758FEC0
:102F2000224C207038B1014621A0FDF7A1FD2AA056
:102F3000FDF79EFDFEE732A0FDF79AFD00F0C6F812
:102F4000207038A0FDF794FDFFF7C2FB207042A06F
:102F5000FDF78EFD13A14D48FDF70DF94B4800F02C
:102F60002FFB01220FA10020FEF732FEFEE700003A
:102F70002A2A2A2A2A2A2A2A20D5E2CAC7D2BBB854
:102F8000F653504920464C41534820CEC4BCFECF96
:102F9000B5CDB3CAB5D1E9202A2A2A2A2A2A2A0D70
:102FA0000A000000313A0000300200201400002026
:102FB000A3A1A3A1CDE2B2BF466C617368B9D2D41C
:102FC000D8CEC4BCFECFB5CDB3CAA7B0DCA1A32870
:102FD0002564290D0A000000A3A1A3A1BFC9C4DC78
:102FE000D4ADD2F2A3BA53504920466C617368B392
:102FF000F5CABCBBAFB2BBB3C9B9A6A1A30D0A0049
:10300000A1B7CEC4BCFECFB5CDB3B9D2D4D8B3C965
:10301000B9A6A3ACBFC9D2D4BDF8D0D0B2E2CAD44D
:103020000D0A00000A2A2A2A2A2A2A2A2A2A2A2AB1
:103030002A2A2A2A20CEC4BCFED0C5CFA2BBF1C802
:10304000A1B2E2CAD4202A2A2A2A2A2A2A2A2A2AE9
:103050002A2A2A2A0D0A00002A2A2A2A2A2A2A2A61
:103060002A2A2A2A2A2A2A2A2A20CEC4BCFEC9A809
:10307000C3E8B2E2CAD4202A2A2A2A2A2A2A2A2AD9
:103080002A2A2A2A2A2A2A0D0A000000842200203D
:1030900010B50023521E541C05D010F8013B11F846
:1030A000014B1B1BF6D0184610BD03E011F8013B85
:1030B00000F8013B521E531CF8D17047C9B201E021
:1030C00000F8011B521E531CFAD17047F0B58BB0AB
:1030D00038A0FDF7CDFC01AA694642A0FEF79EFB91
:1030E000414C2070019841698078891E4143009AC3
:1030F00050438200890015460E463CA0FDF7B8FCFF
:1031000047A0FDF7B5FC132252A15848FEF786FDF3
:10311000207048B1014656A0FDF7AAFC5AA0FDF761
:10312000A7FC20780BB0F0BD504F3846F968FEF789
:10313000E3FB207000281BD15FA13846FEF758FE44
:103140002B46324629A13846FEF752FE002138466A
:10315000FEF7D2FB2070244B5E491B1D3846FA68EF
:10316000FEF759FF207018B95A495BA0FDF780FCA3
:103170003E48FEF73AFB5DA0FDF77AFC68A102A885
:10318000FEF7FCFD207020B165A0FEF76FFC2070FB
:1031900006E002A8FEF738FB207064A0FFF714F9E0
:1031A00020780028BDD161A12AA0FFF721F8207066
:1031B000B7E700000A2A2A2A2A2A2A2A2A2A2A2A99
:1031C0002A2A2A2A20C9E8B1B8D0C5CFA2BBF1C8A3
:1031D000A1202A2A2A2A2A2A2A2A2A2A2A2A2A2AE2
:1031E0002A0D0A00313A000014000020A1B7C9E8F6
:1031F000B1B8D7DCBFD5BCE4A3BA2531306C75209B
:103200004B42A1A30AA1B7BFC9D3C3BFD5BCE4A396
:10321000BA20202531306C75204B42A1A30A000052
:103220000A2A2A2A2A2A2A2A2A20CEC4BCFEB6A87A
:10323000CEBBBACDB8F1CABDBBAFD0B4C8EBB9A64E
:10324000C4DCB2E2CAD4202A2A2A2A2A2A2A2A0D2F
:103250000A000000313A4661744673B6C1D0B4B278
:10326000E2CAD4CEC4BCFE2E747874006012002072
:10327000212120B4F2BFAACEC4BCFECAA7B0DCA3F1
:10328000BA25640A00000000212120BBF2D0EDD055
:10329000E8D2AAD4D9B4CED4CBD0D0A1B0466174F0
:1032A0004673D2C6D6B2D3EBB6C1D0B4B2E2CAD45A
:1032B000A1B1B9A4B3CC0A000AD4DAD4ADC0B4CE5B
:1032C000C4BCFED0C2CCEDBCD3D2BBD0D0C4DAC813
:1032D000DD0A0000E8220020A1B7CEC4BCFEC4DA9B
:1032E000C8DDA3BA0A25730A000000000A2A2A2AA8
:1032F0002A2A2A2A2A2A2A20C4BFC2BCB4B4BDA8BA
:10330000BACDD6D8C3FCC3FBB9A6C4DCB2E2CAD4DA
:10331000202A2A2A2A2A2A2A2A2A2A0D0A000000D2
:10332000313A54657374446972000000313A54654F
:1033300073744469722F746573746469722E74783F
:103340007400000070B504460E460025E06AB042E5
:1033500010D0204600F0E7F905465DB960780123FA
:10336000324604F13001FEF7FEF910B14FF0FF369E
:103370000125E662284670BD2DE9F0418A7ECB7EAC
:1033800052EA032202D00020BDE8F0810A7802F060
:103390003F02521E02EB820303EBC202012500230F
:1033A000134F4E1C4FF6FF7CFC5C11F80480A45DAB
:1033B00048EA04244DB1FF2A01D30020E4E79046F7
:1033C0002546521C20F8184003E0644501D0002037
:1033D000DAE75B1C0D2BE7D30978490606D5FF2AEF
:1033E00001D30020D0E7002120F812100120CBE704
:1033F000A23700082DE9F04704460D461646022D77
:1034000002D36069A84202D80220BDE8F087207884
:1034100006F0FF094FF00108012805D0022842D02C
:1034200003285AD00220F0E705EB55076089216A8E
:10343000B7FBF0F001442046FFF784FF0028E4D1F9
:10344000384661897F1CB0FBF1F201FB1200204479
:103450003030E90703D0017869F31F1100E03146ED
:10346000017084F804806089216AB7FBF0F00144A0
:103470002046FFF767FF0028C7D16189B7FBF1F24B
:1034800001FB127121443031EA0702D0C6F3071262
:1034900005E00A78C6F3032302F0F0021A430A702B
:1034A00084F80480B1E76089216A4008B5FBF0F038
:1034B00001442046FFF746FF0028A6D16289690033
:1034C000B1FBF2F302FB1311214481F83090320A70
:1034D00081F8312084F8048097E76089216A8008A8
:1034E000B5FBF0F001442046FFF72CFF00288CD1FB
:1034F0006289A900B1FBF2F302FB131121443031C0
:103500004FF07043CA7803EA026232430A70130A2A
:103510004B70130C8B70120ECA7084F8048074E721
:1035200038B504466068002816DB451C204401734A
:103530003D2D0DDB6B462A4604F10C012068FEF799
:1035400098FF0098A84201D1002501E04FF0FF3517
:103550006560A068401CA06038BD2DE9F0410446BC
:103560000F46022F02D36069B84201D8022624E038
:1035700000261FE039462046FFF7A4FB0546E5B1CB
:10358000012D09D0681C09D0002239462046FFF7DA
:1035900031FF06468EB903E002260EE001260CE05C
:1035A0002069411C05D0401C2061607940F0010079
:1035B00060712F466069B842DCD83046BDE8F081C2
:1035C00030B591B005461C480F9040F2FF101090A6
:1035D00029466846FEF7D2FB002826D12846FCF78C
:1035E000C3FD044609A96846FEF7D3FD00281CD197
:1035F0009DF82D10002918D00F98007808B10F9A67
:1036000001E00DF12D0210782E28EBD09DF82C0052
:10361000C0060CD5281909A1FDF73AFA2846FFF78C
:10362000CFFF002129550028DCD011B030BD29463C
:1036300003A0FDF71DFAD5E7300000202F25730009
:1036400025732F25730D0A0081760A0AC2760A0CAB
:103650000275090E41757047014600200B22430890
:1036600003EBC01011F8013B1844C0B2521EF6D152
:10367000704770B50446204600F055F8054628000E
:103680004FD12078032845D16079012842D104F137
:103690003000628900210646FFF710FD552084F8AE
:1036A0002E02AA2084F82F02522084F8300084F8D9
:1036B0003100612084F83200412184F833107222F5
:1036C00084F8142284F8152284F8161284F817025C
:1036D000206984F81802010A84F81912010C84F890
:1036E0001A12000E84F81B02E06884F81C02010A1A
:1036F00084F81D12010C84F81E12000E84F81F02BB
:10370000E269521CE262607801233146FEF750F80C
:1037100000206071002260781146FEF70BF800B1BE
:103720000125284670BD2DE9F04104460027207987
:1037300000281FD0E66A04F1300160780123324688
:103740008846FEF735F808B1012713E00020207104
:10375000206AA169301A88420CD2E57808E0A06995
:1037600006446078012332464146FEF721F86D1E7B
:10377000022DF4D23846BDE8F08110B500280CD0F7
:10378000016851B10A7842B1CA888088824204D166
:103790004878FDF7FDFFC00701D0092010BD0020CB
:1037A00010BD01030507090E10121416181C1E0087
:1037B000000400020001800040002000100008000A
:1037C00004000200000000800040002000100008FB
:1037D000004000200010000800040002A400E8A13E
:1037E000A700ECA1A800A7A1B000E3A1B100C0A16F
:1037F000B700A4A1D700C1A1E000A4A8E100A2A83D
:10380000E800A8A8E900A6A8EA00BAA8EC00ACA8BD
:10381000ED00AAA8F200B0A8F300AEA8F700C2A17C
:10382000F900B4A8FA00B2A8FC00B9A80101A1A847
:103830001301A5A81B01A7A82B01A9A84401BDA895
:103840004801BEA84D01ADA86B01B1A8CE01A3A847
:10385000D001ABA8D201AFA8D401B3A8D601B5A8B6
:10386000D801B6A8DA01B7A8DC01B8A85102BBA8F4
:103870006102C0A8C702A6A1C902A5A1CA0240A8A8
:10388000CB0241A8D90242A89103A1A69203A2A605
:103890009303A3A69403A4A69503A5A69603A6A6A0
:1038A0009703A7A69803A8A69903A9A69A03AAA670
:1038B0009B03ABA69C03ACA69D03ADA69E03AEA640
:1038C0009F03AFA6A003B0A6A103B1A6A303B2A60F
:1038D000A403B3A6A503B4A6A603B5A6A703B6A6DC
:1038E000A803B7A6A903B8A6B103C1A6B203C2A68E
:1038F000B303C3A6B403C4A6B503C5A6B603C6A640
:10390000B703C7A6B803C8A6B903C9A6BA03CAA60F
:10391000BB03CBA6BC03CCA6BD03CDA6BE03CEA6DF
:10392000BF03CFA6C003D0A6C103D1A6C303D2A6AE
:10393000C403D3A6C503D4A6C603D5A6C703D6A67B
:10394000C803D7A6C903D8A60104A7A71004A1A736
:103950001104A2A71204A3A71304A4A71404A5A7E3
:103960001504A6A71604A8A71704A9A71804AAA7B0
:103970001904ABA71A04ACA71B04ADA71C04AEA77F
:103980001D04AFA71E04B0A71F04B1A72004B2A74F
:103990002104B3A72204B4A72304B5A72404B6A71F
:1039A0002504B7A72604B8A72704B9A72804BAA7EF
:1039B0002904BBA72A04BCA72B04BDA72C04BEA7BF
:1039C0002D04BFA72E04C0A72F04C1A73004D1A780
:1039D0003104D2A73204D3A73304D4A73404D5A723
:1039E0003504D6A73604D8A73704D9A73804DAA7F0
:1039F0003904DBA73A04DCA73B04DDA73C04DEA7BF
:103A00003D04DFA73E04E0A73F04E1A74004E2A78E
:103A10004104E3A74204E4A74304E5A74404E6A75E
:103A20004504E7A74604E8A74704E9A74804EAA72E
:103A30004904EBA74A04ECA74B04EDA74C04EEA7FE
:103A40004D04EFA74E04F0A74F04F1A75104D7A7E8
:103A500010205CA9132043A81420AAA1152044A873
:103A60001620ACA11820AEA11920AFA11C20B0A136
:103A70001D20B1A1252045A82620ADA13020EBA115
:103A80003220E4A13320E5A1352046A83B20F9A14E
:103A9000AC2080000321E6A1052147A8092148A800
:103AA0001621EDA1212159A96021F1A26121F2A2E3
:103AB0006221F3A26321F4A26421F5A26521F6A29A
:103AC0006621F7A26721F8A26821F9A26921FAA26A
:103AD0006A21FBA26B21FCA27021A1A27121A2A2EA
:103AE0007221A3A27321A4A27421A5A27521A6A26A
:103AF0007621A7A27721A8A27821A9A27921AAA23A
:103B00009021FBA19121FCA19221FAA19321FDA179
:103B1000962149A897214AA898214BA899214CA8F9
:103B20000822CAA10F22C7A11122C6A115224DA8A1
:103B30001A22CCA11D22D8A11E22DEA11F224EA82E
:103B40002022CFA123224FA82522CEA12722C4A123
:103B50002822C5A12922C9A12A22C8A12B22D2A18B
:103B60002E22D3A13422E0A13522DFA13622C3A127
:103B70003722CBA13D22D7A14822D6A14C22D5A1E4
:103B8000522250A86022D9A16122D4A16422DCA1D2
:103B90006522DDA1662251A8672252A86E22DAA111
:103BA0006F22DBA1952292A89922D1A1A522CDA1B5
:103BB000BF2253A81223D0A16024D9A26124DAA283
:103BC0006224DBA26324DCA26424DDA26524DEA2DD
:103BD0006624DFA26724E0A26824E1A26924E2A2AD
:103BE0007424C5A27524C6A27624C7A27724C8A2CD
:103BF0007824C9A27924CAA27A24CBA27B24CCA29D
:103C00007C24CDA27D24CEA27E24CFA27F24D0A26C
:103C10008024D1A28124D2A28224D3A28324D4A23C
:103C20008424D5A28524D6A28624D7A28724D8A20C
:103C30008824B1A28924B2A28A24B3A28B24B4A27C
:103C40008C24B5A28D24B6A28E24B7A28F24B8A24C
:103C50009024B9A29124BAA29224BBA29324BCA21C
:103C60009424BDA29524BEA29624BFA29724C0A2EC
:103C70009824C1A29924C2A29A24C3A29B24C4A2BC
:103C80000025A4A90125A5A90225A6A90325A7A960
:103C90000425A8A90525A9A90625AAA90725ABA930
:103CA0000825ACA90925ADA90A25AEA90B25AFA900
:103CB0000C25B0A90D25B1A90E25B2A90F25B3A9D0
:103CC0001025B4A91125B5A91225B6A91325B7A9A0
:103CD0001425B8A91525B9A91625BAA91725BBA970
:103CE0001825BCA91925BDA91A25BEA91B25BFA940
:103CF0001C25C0A91D25C1A91E25C2A91F25C3A910
:103D00002025C4A92125C5A92225C6A92325C7A9DF
:103D10002425C8A92525C9A92625CAA92725CBA9AF
:103D20002825CCA92925CDA92A25CEA92B25CFA97F
:103D30002C25D0A92D25D1A92E25D2A92F25D3A94F
:103D40003025D4A93125D5A93225D6A93325D7A91F
:103D50003425D8A93525D9A93625DAA93725DBA9EF
:103D60003825DCA93925DDA93A25DEA93B25DFA9BF
:103D70003C25E0A93D25E1A93E25E2A93F25E3A98F
:103D80004025E4A94125E5A94225E6A94325E7A95F
:103D90004425E8A94525E9A94625EAA94725EBA92F
:103DA0004825ECA94925EDA94A25EEA94B25EFA9FF
:103DB000502554A8512555A8522556A8532557A833
:103DC000542558A8552559A856255AA857255BA803
:103DD00058255CA859255DA85A255EA85B255FA8D3
:103DE0005C2560A85D2561A85E2562A85F2563A8A3
:103DF000602564A8612565A8622566A8632567A873
:103E0000642568A8652569A866256AA867256BA842
:103E100068256CA869256DA86A256EA86B256FA812
:103E20006C2570A86D2571A86E2572A86F2573A8E2
:103E3000702574A8712575A8722576A8732577A8B2
:103E4000812578A8822579A883257AA884257BA84E
:103E500085257CA886257DA887257EA8882580A81D
:103E6000892581A88A2582A88B2583A88C2584A8EA
:103E70008D2585A88E2586A88F2587A8932588A8B7
:103E8000942589A895258AA8A025F6A1A125F5A1A4
:103E9000B225F8A1B325F7A1BC258BA8BD258CA818
:103EA000C625F4A1C725F3A1CB25F0A1CE25F2A10B
:103EB000CF25F1A1E2258DA8E3258EA8E4258FA8C2
:103EC000E52590A80526EFA10626EEA1092691A8D2
:103ED0004026E2A14226E1A10030A1A10130A2A129
:103EE0000230A3A10330A8A10530A9A1063065A91D
:103EF000073096A90830B4A10930B5A10A30B6A19F
:103F00000B30B7A10C30B8A10D30B9A10E30BAA159
:103F10000F30BBA11030BEA11130BFA1123093A849
:103F20001330FEA11430B2A11530B3A11630BCA1DC
:103F30001730BDA11D3094A81E3095A8213040A98E
:103F4000223041A9233042A9243043A9253044A975
:103F5000263045A9273046A9283047A9293048A945
:103F60004130A1A44230A2A44330A3A44430A4A46D
:103F70004530A5A44630A6A44730A7A44830A8A43D
:103F80004930A9A44A30AAA44B30ABA44C30ACA40D
:103F90004D30ADA44E30AEA44F30AFA45030B0A4DD
:103FA0005130B1A45230B2A45330B3A45430B4A4AD
:103FB0005530B5A45630B6A45730B7A45830B8A47D
:103FC0005930B9A45A30BAA45B30BBA45C30BCA44D
:103FD0005D30BDA45E30BEA45F30BFA46030C0A41D
:103FE0006130C1A46230C2A46330C3A46430C4A4ED
:103FF0006530C5A46630C6A46730C7A46830C8A4BD
:104000006930C9A46A30CAA46B30CBA46C30CCA48C
:104010006D30CDA46E30CEA46F30CFA47030D0A45C
:104020007130D1A47230D2A47330D3A47430D4A42C
:104030007530D5A47630D6A47730D7A47830D8A4FC
:104040007930D9A47A30DAA47B30DBA47C30DCA4CC
:104050007D30DDA47E30DEA47F30DFA48030E0A49C
:104060008130E1A48230E2A48330E3A48430E4A46C
:104070008530E5A48630E6A48730E7A48830E8A43C
:104080008930E9A48A30EAA48B30EBA48C30ECA40C
:104090008D30EDA48E30EEA48F30EFA49030F0A4DC
:1040A0009130F1A49230F2A49330F3A49B3061A933
:1040B0009C3062A99D3066A99E3067A9A130A1A558
:1040C000A230A2A5A330A3A5A430A4A5A530A5A580
:1040D000A630A6A5A730A7A5A830A8A5A930A9A550
:1040E000AA30AAA5AB30ABA5AC30ACA5AD30ADA520
:1040F000AE30AEA5AF30AFA5B030B0A5B130B1A5F0
:10410000B230B2A5B330B3A5B430B4A5B530B5A5BF
:10411000B630B6A5B730B7A5B830B8A5B930B9A58F
:10412000BA30BAA5BB30BBA5BC30BCA5BD30BDA55F
:10413000BE30BEA5BF30BFA5C030C0A5C130C1A52F
:10414000C230C2A5C330C3A5C430C4A5C530C5A5FF
:10415000C630C6A5C730C7A5C830C8A5C930C9A5CF
:10416000CA30CAA5CB30CBA5CC30CCA5CD30CDA59F
:10417000CE30CEA5CF30CFA5D030D0A5D130D1A56F
:10418000D230D2A5D330D3A5D430D4A5D530D5A53F
:10419000D630D6A5D730D7A5D830D8A5D930D9A50F
:1041A000DA30DAA5DB30DBA5DC30DCA5DD30DDA5DF
:1041B000DE30DEA5DF30DFA5E030E0A5E130E1A5AF
:1041C000E230E2A5E330E3A5E430E4A5E530E5A57F
:1041D000E630E6A5E730E7A5E830E8A5E930E9A54F
:1041E000EA30EAA5EB30EBA5EC30ECA5ED30EDA51F
:1041F000EE30EEA5EF30EFA5F030F0A5F130F1A5EF
:10420000F230F2A5F330F3A5F430F4A5F530F5A5BE
:10421000F630F6A5FC3060A9FD3063A9FE3064A934
:104220000531C5A80631C6A80731C7A80831C8A8F6
:104230000931C9A80A31CAA80B31CBA80C31CCA8C6
:104240000D31CDA80E31CEA80F31CFA81031D0A896
:104250001131D1A81231D2A81331D3A81431D4A866
:104260001531D5A81631D6A81731D7A81831D8A836
:104270001931D9A81A31DAA81B31DBA81C31DCA806
:104280001D31DDA81E31DEA81F31DFA82031E0A8D6
:104290002131E1A82231E2A82331E3A82431E4A8A6
:1042A0002531E5A82631E6A82731E7A82831E8A876
:1042B0002931E9A82032E5A22132E6A22232E7A282
:1042C0002332E8A22432E9A22532EAA22632EBA266
:1042D0002732ECA22832EDA22932EEA231325AA9BD
:1042E000A33249A98E334AA98F334BA99C334CA9D9
:1042F0009D334DA99E334EA9A1334FA9C43350A974
:10430000CE3351A9D13352A9D23353A9D53354A9AD
:10431000004EBBD2014EA1B6024E4081034EDFC615
:10432000044E4181054E4281064E4381074EF2CD37
:10433000084EC9D5094EFDC80A4ECFC90B4EC2CF93
:104340000C4EA2D80D4EBBB20E4EEBD30F4E448195
:10435000104EA4D8114EF3B3124E4581134EA8D778
:10436000144ED2C7154EA7D8164EC0CA174E468156
:10437000184EF0C7194EFBB11A4EB5D21B4ED4B42D
:104380001C4EABB61D4EBFCB1E4EA9D81F4E47814B
:10439000204E4881214E4981224EAAB6234E4A81A1
:1043A000244EBDC1254ECFD1264E4B81274EA5C9E7
:1043B000284EADD8294E4C812A4EF6B82B4EBED190
:1043C0002C4EDCE32D4ED0D62E4E4D812F4E4E81FD
:1043D000304EE1B7314E4F81324EAEB4334E508144
:1043E000344ED9C1354E5181364EBCD8374E5281EC
:1043F000384EE8CD394EA4B53A4EAACE3B4EF7D64C
:104400003C4E53813D4EF6C03E4ED9BE3F4EAFD8D6
:10441000404E5481414E5581424E5681434ECBC44D
:10442000444E5781454EC3BE464E5881474EB1D883
:10443000484EB4C3494EE5D24A4E59814B4EAED692
:104440004C4EDACE4D4EA7D54E4EF5BA4F4EA6B7CE
:10445000504ED6C0514E5A81524EB9C6534ED2C557
:10446000544EC7C7554E5B81564ED4B9574E5C81EA
:10447000584ECBB3594ED2D25A4E5D815B4E5E81BF
:104480005C4EBFD85D4EC5BE5E4EF2C65F4EB2D228
:10449000604EB0CF614EE7CF624E5F81634E608168
:1044A000644E6181654E6281664EE9CA674E6381E2
:1044B000684E6481694EC0D86A4E65816B4E6681D4
:1044C0006C4E67816D4E68816E4E69816F4E6A8158
:1044D000704EF2C2714ED2C2724E6B81734EE9C8F9
:1044E000744E6C81754E6D81764E6E81774E6F8104
:1044F000784E7081794E71817A4E72817B4E7381D4
:104500007C4E74817D4E75817E4EACC77F4E768128
:10451000804E7781814E7881824E7981834E7A8177
:10452000844E7B81854E7C81864ECBC1874E7D81BA
:10453000884EE8D3894EF9D58A4E7E818B4EC2CA09
:104540008C4EFEB68D4EA1D88E4EDAD38F4EF7BF6D
:10455000904E8081914EC6D4924EA5BB934EC1D849
:10456000944EE5CE954EAEBE964E8181974E828199
:10457000984EA8D8994E83819A4EC7D19B4EA9D008
:104580009C4E84819D4E85819E4E86819F4EBDD8D6
:10459000A04EEFD9A14EF6CDA24EBABFA34E878151
:1045A000A44EBBBDA54EA5BAA64EE0D2A74EFAB208
:1045B000A84EE0BAA94EB6C4AA4E8881AB4EEDCF44
:1045C000AC4EA9BEAD4EA4CDAE4EC1C1AF4E898199
:1045D000B04E8A81B14E8B81B24ED7C7B34EF1D95E
:1045E000B44E8C81B54EF4D9B64E8D81B74E8E81C6
:1045F000B84E8F81B94E9081BA4ECBC8BB4EE9D828
:10460000BC4E9181BD4E9281BE4E9381BF4EDAD297
:10461000C04EB2CAC14ECAC8C24EECD8C34EEAD8C8
:10462000C44EC6D8C54EF6BDC64ECDC6C74EF0B3B5
:10463000C84E9481C94EEBD8CA4EF1BDCB4EE9BDF0
:10464000CC4E9581CD4ED4C8CE4ED3B4CF4E9681AC
:10465000D04E9781D14ED8C2D24E9881D34ED6B289
:10466000D44ED0D7D54ECBCAD64EFBCBD74ECCD519
:10467000D84EB6B8D94EC9CFDA4E9981DB4E9A8161
:10468000DC4E9B81DD4EDAD9DE4EF0D8DF4EAAC774
:10469000E04E9C81E14EEED8E24E9D81E34EFAB4AD
:1046A000E44EEEC1E54ED4D2E64E9E81E74E9F81A8
:1046B000E84EEDD8E94EA081EA4EC7D2EB4EEFD8D6
:1046C000EC4EC7C3ED4EA181EE4EA281EF4EA38109
:1046D000F04EF6D1F14EA481F24ED9D6F34EF2D877
:1046E000F44EA581F54EF5D8F64EFEBCF74EDBBC78
:1046F000F84EA681F94EA781FA4EA881FB4ECEC88E
:10470000FC4EA981FD4EDDB7FE4EAA81FF4EC2B719
:10471000004FAB81014FF3C6024FAC81034FAD8117
:10472000044FAE81054FAF81064FB081074FB18175
:10473000084FB281094FF8D80A4FC1D20B4FB3814D
:104740000C4FB4810D4FE9CE0E4FBFBC0F4FFCB7DD
:10475000104FA5B7114FDDD0124FB581134FB68161
:10476000144FB781154FB881164FB981174FDAD65C
:10477000184FC5D3194FEFBB1A4FE1BB1B4FF1D8F0
:104780001C4FBA811D4FBB811E4FA1C91F4FB0CE18
:10479000204FABB4214FBC81224FF3D8234FBD81B2
:1047A000244FCBC9254FF6D8264FD7C2274FF7D86D
:1047B000284FBE81294FBF812A4FB1CE2B4FF9D848
:1047C0002C4FC0812D4FC1812E4FC2812F4FAEB2D1
:1047D000304FC0B9314FC381324FA3D9334FC48159
:1047E000344FE9B0354FC581364FE6C1374FC681EA
:1047F000384FECC9394FC7813A4FC5CB3B4FC881C1
:104800003C4FC6CB3D4FA4D93E4FC9813F4FCA81D3
:10481000404FCB81414FCC81424FCD81434FE8B5D2
:10482000444FCE81454FCF81464FABB5474FD081E6
:10483000484FD181494FD2814A4FD3814B4FD481C8
:104840004C4FD5814D4FBBCE4E4FCDB54F4FA1D71D
:10485000504FF4D7514FD3D3524FD681534FE5CC5D
:10486000544FD781554FCEBA564FD881574FA2D902
:10487000584FDCD9594FE0D35A4FFDD85B4FF0B7B2
:104880005C4FF7D75D4FFED85E4FFAD85F4FA1D986
:10489000604FE3C4614FD981624FDA81634FB6D371
:1048A000644FF4D8654FDDD9664FDB81674FFBD885
:1048B000684FDC81694FE5C56A4FDD816B4FDE8152
:1048C0006C4FD0C06D4FDF816E4FE0816F4FF0D1E4
:1048D000704FDBB0714FE181724FE281734FD1BCF9
:1048E000744FA6D9754FE381764FA5D9774FE481F0
:1048F000784FE581794FE6817A4FE7817B4FACD9DC
:104900007C4FAED97D4FE8817E4FABD97F4FB9CA7E
:10491000804FE981814FEA81824FEB81834FA9D992
:10492000844FB6D6854FEC81864FED81874FEE815F
:10493000884FDEB3894FA8D98A4FEF818B4FFDC0D6
:104940008C4FF0818D4FCCCA8E4FF1818F4FAAD9F9
:10495000904FF281914FA7D9924FF381934FF481F9
:10496000944FB0D9954FF581964FF681974FB1B6D8
:10497000984FF781994FF8819A4FF9819B4FA9B9C8
:104980009C4FFA819D4FC0D29E4FFB819F4FFC816F
:10499000A04FC0CFA14FFD81A24FFE81A34FC2C245
:1049A000A44F4082A54FC4BDA64FECD5A74FE0B29F
:1049B000A84FC8C7A94FEBBFAA4FADD9AB4F418293
:1049C000AC4FAFD9AD4F4282AE4FEACEAF4FEEBA49
:1049D000B04F4382B14F4482B24F4582B34F4682BB
:1049E000B44F4782B54FD6C7B64F4882B74F4982BA
:1049F000B84F4A82B94F4B82BA4F4C82BB4F4D825F
:104A0000BC4F4E82BD4F4F82BE4F5082BF4FE3B16D
:104A1000C04F5182C14F5282C24F5382C34FD9B44B
:104A2000C44FEDB6C54FB4D9C64F5482C74F558257
:104A3000C84F5682C94F5782CA4FA1BFCB4F588229
:104A4000CC4F5982CD4F5A82CE4FDED9CF4FCEC7F1
:104A5000D04FFEC0D14FB8D9D24F5B82D34F5C82CA
:104A6000D44F5D82D54F5E82D64F5F82D74FD7CB72
:104A7000D84FFDB7D94F6082DA4FB5D9DB4F61828D
:104A8000DC4FB7D9DD4FA3B1DE4FE1D3DF4FB9D94A
:104A9000E04F6282E14FC5D0E24F6382E34FB6D967
:104AA000E44F6482E54F6582E64FB1D9E74F6682F5
:104AB000E84FB2D9E94FA9C1EA4FB3D9EB4F6782AA
:104AC000EC4F6882ED4FF3BCEE4FDED0EF4FA9B84C
:104AD000F04F6982F14FE3BEF24F6A82F34FBDD9C6
:104AE000F44F6B82F54F6C82F64F6D82F74F6E82FA
:104AF000F84FBAD9F94F6F82FA4FB3B0FB4F7082BB
:104B0000FC4F7182FD4F7282FE4FC2D9FF4F7382FC
:104B10000050748201507582025076820350778271
:104B2000045078820550798206507A8207507B8241
:104B300008507C8209507D820A507E820B50808210
:104B40000C50C4D90D50B6B10E5081820F50BFD950
:104B500010508282115083821250B9B51350848252
:104B60001450F3BE155085821650868217508782E6
:104B70001850C8CC1950F2BA1A50D0D21B508882A3
:104B80001C50C3D91D5089821E508A821F50E8BD17
:104B900020508B822150ABB322508C8223508D82C7
:104BA00024508E822550C5D92650EBBE27508F82C7
:104BB0002850C6D92950BBD92A50DFC42B50908227
:104BC0002C50BED92D50C1D92E50C0D92F50918212
:104BD0003050928231509382325094823350958279
:104BE0003450968235509782365098823750998249
:104BF00038509A8239509B823A50AED53B509C82B5
:104C00003C50B5D63D509D823E50E3C73F509E82FA
:104C100040509F824150A0824250A1824350C8D947
:104C20004450A2824550A3824650A4824750D9BC2A
:104C30004850CAD94950A5824A50A6824B50A782F3
:104C40004C50BCD94D50A8824E50CBD94F50ABC61A
:104C50005050A9825150AA825250AB825350AC821C
:104C60005450AD825550C9D95650AE825750AF827C
:104C70005850B0825950B1825A50F6D75B50B28228
:104C80005C50A3CD5D50B3825E50B4825F50B5825C
:104C90006050B6826150B7826250B8826350B98268
:104CA0006450BA826550A1BD6650BB826750BC8219
:104CB0006850BD826950BE826A50BF826B50C0820C
:104CC0006C50CCD96D50C1826E50C2826F50C3827D
:104CD0007050C4827150C5827250C6827350C782B0
:104CE0007450C8827550C9827650BCC57750B5CD16
:104CF0007850CA827950CB827A50CC827B50CDD901
:104D00007C50CD827D50CE827E50C7D97F50A5B3D6
:104D10008050FEBF8150CF828250D0828350D1829A
:104D20008450D2828550B5B88650D3828750D482C1
:104D30008850FCC08950D5828A50D6828B50D78249
:104D40008C50D8828D50F8B08E50D9828F50DA8234
:104D50009050DB829150DC829250DD829350DE8253
:104D60009450DF829550E0829650E1829750E28223
:104D70009850E3829950E4829A50E5829B50E682F3
:104D80009C50E7829D50E8829E50E9829F50EA82C3
:104D9000A050EB82A150EC82A250ED82A350F6B459
:104DA000A450EE82A550CED9A650EF82A750CFD9FD
:104DB000A850A2B4A950D0D9AA50F082AB50F18229
:104DC000AC50DFB4AD50F282AE50F382AF50F482FB
:104DD000B050F582B150F682B250C1B0B350F782F4
:104DE000B450F882B550F982B650FA82B750FB82BF
:104DF000B850FC82B950FD82BA50D1D9BB50B5C968
:104E0000BC50FE82BD504083BE504183BF504283A0
:104E1000C0504383C1504483C2504583C35046832E
:104E2000C4504783C5504883C6504983C7504A83FE
:104E3000C8504B83C9504C83CA504D83CB504E83CE
:104E4000CC504F83CD505083CE505183CF50F1CFB3
:104E5000D0505283D1505383D2505483D350558372
:104E6000D4505683D5505783D650D2D9D750588373
:104E7000D8505983D9505A83DA50C5C1DB505B836F
:104E8000DC505C83DD505D83DE505E83DF505F83EA
:104E9000E0506083E1506183E2506283E3506383BA
:104EA000E4506483E5506583E650D6D9E750AEC937
:104EB000E8506683E9506783EA506883EB50698362
:104EC000EC50D5D9ED50D4D9EE50D7D9EF506A83F4
:104ED000F0506B83F1506C83F2506D83F350DBCB59
:104EE000F4506E83F550A9BDF6506F83F750708370
:104EF000F8507183F9507283FA507383FB50A7C640
:104F0000FC507483FD507583FE507683FF50778389
:104F1000005178830151798302517A8303517B8355
:104F200004517C8305517D830651D3D90751D8D9CB
:104F300008517E83095180830A5181830B51D9D94D
:104F40000C5182830D5183830E5184830F518583CD
:104F500010518683115187831251E5C813518883FC
:104F60001451898315518A8316518B8317518C8371
:104F700018518D8319518E831A518F831B51908341
:104F80001C5191831D5192831E5193831F51948311
:104F9000205195832151DCC0225196832351978360
:104FA000245198832551998326519A8327519B83B5
:104FB00028519C8329519D832A519E832B519F8385
:104FC0002C51A0832D51A1832E51A2832F51A38355
:104FD0003051A4833151A5833251A6833351A78325
:104FE0003451A8833551A9833651AA833751AB83F5
:104FF0003851AC833951AD833A51AE833B51AF83C5
:105000003C51B0833D51B1833E51B2833F51F9B61B
:105010004051A3D84151CAD44251B3834351AAD479
:105020004451D6D04551E4B34651D7D54751B48306
:105030004851C8CF4951E2B94A51B5834B51CBBF12
:105040004C51B6834D51E2C34E51B7834F51B88393
:105050005051B9835151D2B65251BA835351BB8387
:105060005451C3CD5551EED95651F0D95751BC8347
:105070005851BD835951BE835A51B3B55B51BF835B
:105080005C51B5B65D51C0835E51C1835F51C2832F
:105090006051C3836151C4836251A4BE6351C5830F
:1050A0006451C6836551EBC86651C7836751C88395
:1050B0006851ABC86951C9836A51CA836B51CBB07F
:1050C0006C51ABB96D51F9C16E51E2D96F51CB83BF
:1050D0007051BCC07151B2B97251CC837351D8B9FF
:1050E0007451CBD07551F8B17651E4C67751DFBE1B
:1050F0007851E4B57951C8D77A51CD837B51F8D135
:105100007C51E6BC7D51DECA7E51CE837F51CF8378
:105110008051BDBC8151E6D98251E7D88351D083FB
:105120008451D1838551DAC48651D2838751D38388
:105130008851D4B88951BDC88A51D4838B51D58345
:105140008C51E1B28D51D9D48E51D6838F51D783F2
:105150009051D8839151D9839251B0C39351DA833E
:105160009451DB839551E1C39651A2DA9751DFC880
:105170009851DC839951B4D09A51DD839B51FCBE88
:105180009C51A9C59D51DE839E51DF839F51E083D1
:10519000A051DAB9A151E183A251A3DAA351E2836C
:1051A000A451A9D4A551A4DAA651E383A751E4835D
:1051B000A851E583A951E683AA51E783AB51FBD9F6
:1051C000AC51ACB6AD51E883AE51E983AF51EBB70A
:1051D000B051F9B1B151FCD9B251E5B3B351F6BEFA
:1051E000B451EA83B551F6BFB651B1D2B751E4C05C
:1051F000B851EB83B951EC83BA51ED83BB51B3B6CF
:10520000BC51FED9BD51FDD9BE51EE83BF51EF83D4
:10521000C051BBBEC151F083C251F183C351F2836F
:10522000C451E0C6C551F383C651BCD7C751A1DAFA
:10523000C851F483C951B9C1CA51F583CB51F2B5F4
:10524000CC51E8C1CD51F683CE51F783CF51F5BC97
:10525000D051F883D151D5B4D251F983D351FA83C7
:10526000D451FB83D551FC83D651FD83D751FE83A6
:10527000D8514084D9514184DA514284DB51DDC197
:10528000DC514384DD51FDC4DE514484DF5145844B
:10529000E051B8BCE151B2B7E2514684E3514784D2
:1052A000E451EFB7E5514884E6514984E7514A8417
:1052B000E8514B84E9514C84EA514D84EB51ECD9CF
:1052C000EC514E84ED51BEC6EE514F84EF51ADBF4F
:1052D000F051CBBBF1515084F2515184F351CAB516
:1052E000F4515284F551C9DBF651D7D0F7515384AC
:1052F000F851B9CDF951BCB0FA51F6B3FB51F7BB37
:10530000FC51CADBFD51AFBAFE515484FF51E4D4C5
:105310000052B6B50152F3B50252D6D80352D0C8E6
:1053200004525584055256840652D6B70752D0C748
:105330000852D7D8095257840A52AFBF0B5258842B
:105340000C5259840D52BBDB0E52D8D80F525A84DE
:1053500010525B841152CCD01252AEBB13525C84FB
:1053600014525D8415525E841652BEEB1752D0C1A2
:105370001852F5C11952F2D41A52D5B81B52B4B40E
:105380001C525F841D52F5B31E5260841F5261840B
:105390002052BEC921526284225263842352648403
:1053A0002452D0C5255265842652668427526784CC
:1053B0002852D9C52952FBC02A5268842B52F0B119
:1053C0002C5269842D52D9D82E52CEB92F526A84CC
:1053D0003052BDB531526B8432526C843352DAD8BC
:1053E00034526D8435526E843652C6D63752A2CBB3
:1053F0003852AFC83952B2C93A52CCB43B52CCBF82
:105400003C526F843D52F4B93E5270843F52DBD817
:105410004052DCD84152E7B64252C1BC4352EACCBA
:105420004452718445527284465273844752748444
:1054300048527584495276844A52F7CF4B5277844A
:105440004C52DDD84D52B0C74E5278844F527984B9
:105450005052D0B95152A3BD52527A8453527B84D8
:105460005452DECC55527C845652CAC657527D8463
:1054700058527E84595280845A5281845B5282846D
:105480005C52E0D85D5283845E52DED85F528484E1
:10549000605285846152DFD8625286846352878469
:1054A000645288846552FEB0665289846752E7BEB2
:1054B00068528A846952A3CA6A52F4BC6B528B84C4
:1054C0006C528C846D528D846E528E846F52B1B842
:1054D00070528F84715290847252EEB873529184DC
:1054E0007452928475529384765294847752958440
:1054F00078529684795297847A5298847B52998410
:105500007C529A847D52E2D87E529B847F52CBBDDE
:1055100080529C848152E4D88252E3D883529D8485
:1055200084529E8485529F848652A0848752A1848F
:105530008852FCC58952A2848A52A3848B52A484C7
:105540008C52A5848D52A6848E52A7848F52A88433
:105550009052E5D89152A9849252AA849352E6D8E7
:105560009452AB849552AC849652AD849752AE84DB
:105570009852AF849952B0849A52B1849B52A6C17A
:105580009C52B2849D52B0C89E52ECB09F52A6B9B4
:10559000A052D3BCA152F1CEA252BDDBA352D3C1C3
:1055A000A452B384A552B484A652B584A752B6843B
:1055B000A852AFB6A952FAD6AA52ACC5AB52D9BDC1
:1055C000AC52BEDBAD52BFDBAE52B784AF52B88433
:1055D000B052B984B152F8C0B252A2BEB352CDC0DB
:1055E000B452BA84B552BB84B652BC84B752BD849F
:1055F000B852BE84B952BF84BA52C084BB52C1846F
:10560000BC52C284BD52C384BE52C0DBBF52C6CAA4
:10561000C052C484C152C584C252C684C352AAB205
:10562000C452C784C552C884C652C984C752C2D3A3
:10563000C852CA84C952E3C3CA52CB84CB52ABD13D
:10564000CC52CC84CD52CD84CE52CE84CF52CF8496
:10565000D052C2DBD152D084D252D5C0D352D184E1
:10566000D452D284D552D384D652C3DBD752D484F9
:10567000D852B1BFD952D584DA52D684DB52D784FE
:10568000DC52D884DD52D984DE52DA84DF52BCC4C5
:10569000E052DB84E152DC84E252DD84E352DE84BA
:1056A000E452DAC7E552DF84E652E084E752E1844F
:1056B000E852E284E952E384EA52E484EB52E5845E
:1056C000EC52E684ED52E784EE52E884EF52E9842E
:1056D000F052C4DBF152EA84F252EB84F352EC84D0
:1056E000F452ED84F552EE84F652EF84F752F084D2
:1056F000F852F184F952E8D9FA52D7C9FB52F28430
:10570000FC52F384FD52F484FE52B4B9FF52F0CE41
:105710000053C8D40153F5840253F6840353F7842D
:105720000453F8840553FCB00653D2B40753F984EC
:105730000853D9D00953FA840A53FB840B53FC84D1
:105740000C53FD840D53E9D90E53FE840F53CBDE69
:105750001053EBD9115340851253418513534285A1
:10576000145343851553B0D81653AFBB1753B1B17B
:10577000185344851953D7B31A53CED81B534585B4
:105780001C5346851D53D1D41E5347851F5348854E
:105790002053B3BD2153EFBF225349852353BBCFC1
:1057A00024534A8525534B852653D0D827534C85FF
:1057B00028534D8529534E852A53CBB72B534F85FC
:1057C0002C5350852D5351852E53D1D82F535285AC
:1057D0003053538531535485325355853353568551
:1057E00034535785355358853653598537535A8521
:1057F00038535B853953A5C63A53F8C73B53BDD2DE
:105800003C535C853D535D853E53D2D83F53E4C441
:1058100040535E854153AECA42535F854353A7C789
:10582000445360854553A6D8465361854753FDC907
:105830004853E7CE4953DCBB4A53EBB04B53628528
:105840004C5363854D5364854E53AABB4F53ADD023
:10585000505365855153B0B15253E4D75353BFD71A
:10586000545366855553A5B55653F4C25753CFC408
:1058700058536785595368855A53A9B25B53698554
:105880005C53B7B25D536A855E53E5B15F53B2DFD7
:105890006053BCD56153A8BF6253ACC26353D5D823
:1058A0006453B1C265536B856653D4D86753D4CE65
:1058B00068536C856953E0DA6A536D856B53C0CECB
:1058C0006C536E856D536F856E53B4D86F53AEC3F2
:1058D0007053A1D37153A3CE725370857353B4BC6C
:1058E0007453B4C87553D1C2765371857753EDBEE6
:1058F0007853B6D0795372857A53E1DA7B53738546
:105900007C5374857D5375857E5376857F53E4C7BC
:1059100080537785815378858253A7B383537985E4
:105920008453F2B68553FCCC8653FAC087537A85EC
:1059300088537B858953F7C08A537C858B53B9D1B3
:105940008C53E1D18D53C7D88E537D858F537E857F
:10595000905380859153818592538285935383859B
:10596000945384859553DEB29653858597538685E7
:105970009853E5C0995387859A53F1BA9B5388850C
:105980009C5389859D53C8D89E538A859F53ADD417
:10599000A0538B85A1538C85A253E1CFA353C9D8C3
:1059A000A4538D85A553CAD8A653C3CFA7538E85BC
:1059B000A853F8B3A953C7BEAA538F85AB5390859C
:1059C000AC539185AD539285AE53CBD8AF539385ED
:1059D000B0539485B1539585B2539685B35397854B
:1059E000B4539885B5539985B653CCDBB7539A8594
:1059F000B8539B85B9539C85BA539D85BB53A5C8A5
:105A0000BC539E85BD539F85BE53A085BF53D8CF41
:105A1000C053A185C153FEC8C253CEB2C353A285A1
:105A2000C453A385C553A485C653A585C753A6856E
:105A3000C853D6D3C953E6B2CA53B0BCCB53D1D3A3
:105A4000CC53ABCBCD53B4B7CE53A785CF53A8859A
:105A5000D053A985D153A2B7D253AA85D353AB85CE
:105A6000D453E5CAD553AC85D653A1C8D753DCCAA5
:105A7000D853E4B1D953F0D0DA53AD85DB53D1C557
:105A8000DC53AE85DD53AF85DE53B085DF53C5DB18
:105A9000E053FEB5E153B185E253B285E353DABF7B
:105AA000E453C5B9E553E4BEE653EDC1E753B3850E
:105AB000E853B6DFE953B5DFEA53BBD6EB53D0BDAD
:105AC000EC53D9D5ED53C8B0EE53A3B6EF53C9BFCD
:105AD000F053A8CCF153B3DFF253B7CAF353D2D388
