:020000040800F2
:100000004006002045010008C5180008C718000870
:10001000CB180008CF180008D31800080000000013
:10002000000000000000000000000000D7180008D9
:10003000D918000800000000DB180008DD180008CF
:100040005F0100085F0100085F010008DF18000879
:100050005F0100085F0100085F0100085F01000800
:100060005F0100085F0100085F0100085F010008F0
:100070005F0100085F0100085F0100085F010008E0
:100080005F0100085F0100085F0100085F010008D0
:100090005F0100085F0100085F0100085F010008C0
:1000A0005F0100085F0100085F0100085F010008B0
:1000B0005F0100085F0100085F0100085F010008A0
:1000C0005F0100085F0100085F0100085F01000890
:1000D0005F0100085F0100085F0100085F01000880
:1000E0005F0100085F0100085F0100085F01000870
:1000F0005F0100085F0100085F0100085F01000860
:100100005F0100085F0100085F0100085F0100084F
:100110005F0100085F0100085F0100085F0100083F
:100120005F0100085F0100085F0100085F0100082F
:10013000DFF80CD003F0A2FA0048004711180008BD
:10014000400600200648804706480047FEE7FEE7D5
:10015000FEE7FEE7FEE7FEE7FEE7FEE7FEE7FEE777
:1001600047020008310100080CB500200190009002
:100170006C48006840F480306A49086000BF6948F4
:10018000006800F4003000900198401C0190009835
:1001900018B90198B0F5A06FF1D16248006800F479
:1001A000003010B10120009001E000200090009884
:1001B000012843D15C48006840F010005A490860AB
:1001C0000846006820F0030008600846006840F018
:1001D0000200086053484068524948600846406839
:1001E00048600846406840F48060486008464068BF
:1001F00020F47C1048600846406840F4E8104860ED
:100200000846006840F08070086000BF45480068FC
:1002100000F000700028F9D04248406820F0030048
:10022000404948600846406840F00200486000BF0E
:100230003C48406800F00C000828F9D10CBD10B50E
:10024000FFF792FF10BD10B53648006840F001007E
:1002500034490860084640683449084031494860DC
:1002600008460068324908402E4908600846006880
:1002700020F4802008600846406820F4FE004860B2
:100280004FF41F008860FFF7DAFF4FF00060294944
:10029000086010BD10B5002100200022214B5B68D2
:1002A00003F00C0121B1042906D0082928D107E068
:1002B000214B224C236027E01F4B204C236023E07E
:1002C000184B5B6803F47010164B5B6803F48032C4
:1002D000022303EB904022B9194B4343174C236090
:1002E0000DE0104B5B6803F4003323B1144B434320
:1002F000124C236003E0104B4343104C236003E097
:100300000D4B0E4C236000BF00BF064B5B68C3F370
:1003100003130C4CE15C094B1B68CB40074C23607A
:1003200010BD000000100240002002400000FFF855
:10033000FFFFF6FE08ED00E000127A00000000204A
:1003400000093D000400002031490143314A116099
:10035000704770B5002100230F22C47804B32D4CE0
:10036000246804F4E064C4F5E064210AC1F10403E4
:10037000CA40447804FA03F1847814402143090107
:10038000254C0678A155047804F01F050124AC40E3
:1003900005786D11AD0005F1E025C5F8004109E0D3
:1003A000047804F01F050124AC401C4D067876113A
:1003B00045F8264070BD1A4A0A400243154B1B1FE0
:1003C0001A60704739B1134A121D12680243114B6B
:1003D0001B1D1A6006E00F4A121D126882430D4B66
:1003E0001B1D1A607047042808D14FF0E0210969ED
:1003F00041F004014FF0E022116107E04FF0E021ED
:10040000096921F004014FF0E022116170470000FA
:100410000000FA050CED00E000E400E080E100E0FF
:1004200080FFFF1F10B5012000F01AFF002000F030
:1004300017FF10BD2A49086070472949091F086045
:100440007047274984310860704701460020254ADB
:1004500010884FF67F4210400843224A10807047B0
:10046000014600201F4A10884FF680721040084352
:100470001C4A1080704708B500220092194A2C3A95
:100480000092009A02440092009A116008BD08B5DB
:1004900001460020009013482C3800900098084432
:1004A00000900098008808BD0D489C300068C0B2DC
:1004B00070470C480830008840F0010009490831B5
:1004C000088070470648A0300068C0B270470548F1
:1004D0000830008840F00200024908310880704767
:1004E00004860D422C6C004030B943F2DB028100DF
:1004F000A1F1C0410A6005E043F2D2028100A1F1FE
:10050000C0410A606FF07042411C8900A1F1C041F6
:100510000A608100A1F1C041C1F804217047102890
:100520000AD118214FF020421166402151664FF048
:10053000FC319166D16610E01821F74A1160402124
:100540004FF02042C2F884104FF0FC31F24A0832DA
:1005500011604FF02042C2F88C1070471820EE490D
:100560002031086000200906C1F8A4004FF0FC30DB
:10057000E94928310860091D0860091D08607047B5
:10058000D0E901121143C268114302691143426963
:10059000114382691143C2691143026A1143426ADD
:1005A0001143826A1143C26A1143026B114302680C
:1005B0009200A2F1C0421160816808290BD1016844
:1005C0008900A1F1C041096841F040020168890039
:1005D000A1F1C0410A60416B0968426B526841EA6F
:1005E0000211426B926841EA0221426B928941EA10
:1005F0000241426B128A41EA0251426B127D41EA8A
:100600000261426B926911430268521C9200A2F18E
:10061000C0421160C16AB1F5804F1BD1816B09687E
:10062000826B526841EA0211826B926841EA0221B0
:10063000826B128A41EA0251826B127D41EA0261A9
:10064000826B9269114302689200A2F1C042C2F823
:10065000041107E06FF0704201688900A1F1C04108
:10066000C1F80421704730B50021002200234468FE
:1006700044F0080485682C43C5682C4305692C4365
:10068000456944EA4524856944EA4531C4692468DA
:10069000C5696D6844EA0524C5692D8944EA0544A5
:1006A000C5692D7B44EA0562046A2468056A6D68A1
:1006B00044EA0524056A2D8944EA0544056A2D7B30
:1006C00044EA05630468102C05D14FF020442166EC
:1006D000A266E36608E0904C21604FF02044C4F825
:1006E00088208D4C0C34236030BD016841F010012E
:1006F000426841EA4221826841EA4231864A203218
:100700001160C1680968C268526841EA0221C26882
:10071000128941EA0241C268127B41EA02617E4AC3
:1007200028321160016909680269526841EA0221B0
:100730000269128941EA02410269127B41EA0261BF
:10074000754A2C321160416909684269526841EA70
:1007500002214269128941EA02414269127B41EA5F
:1007600002614FF02042C2F8B010704700210160D2
:100770000221416000218160C160016141618161AC
:10078000C16101624FF480514162490081620021E0
:10079000C16201630F21426B1160426B5160FF2106
:1007A000426B91600F21426BD160426B1161426BD1
:1007B00051610021426B91610F21826B1160826B4C
:1007C0005160FF21826B91600F21826BD160826B3F
:1007D0001161826B51610021826B91617047102120
:1007E0000160002141608160C160016141618161FE
:1007F000FC21C2691160C2695160C2699160C2691D
:10080000D160026A1160026A5160026A9160026AF4
:10081000D16070470021016041608160FC21C268A5
:100820001160C2685160C2689160C268D16002699B
:10083000116002695160026991600269D160426988
:10084000116042695160426991604269D1607047AC
:1008500051B18200A2F1C042126842F0010382004D
:10086000A2F1C042136009E08200A2F1C042126806
:100870002A4B1A408300A3F1C0431A60704799B114
:10088000102808D14FF02042126E42F004024FF0BF
:1008900020431A661DE0204A126842F004024FF01D
:1008A0002043C3F8802014E0102809D14FF02042E3
:1008B000126E1A4BDB1E1A404FF020431A6608E0F6
:1008C000154A1268154BDB1E1A404FF02043C3F83F
:1008D0008020704748B110492031096841F0040177
:1008E0004FF02042C2F8A01009E00B4920310968FE
:1008F0000A4AD21E11404FF02042C2F8A0107047A1
:10090000B9B110280CD14FF02042126E42F04002D3
:100910004FF020431A661FE0800000A0FEFF0F008A
:10092000724A126842F040024FF02043C3F8802020
:1009300012E0102808D14FF02042126E6C4B1A4082
:100940004FF020431A6607E0684A1268684B1A4065
:100950004FF02043C3F88020704701460020102943
:1009600003D14FF02042506F02E0604A1432106809
:10097000704710B5F2B1102807D14FF020435B6EDD
:100980000B434FF02044636632E0B0F5807F08D11E
:10099000564B1B1D1B680B434FF02044C4F884309A
:1009A00026E0524B24331B680B434FF02044C4F81D
:1009B000A4301DE0102807D14FF020435B6E8B431D
:1009C0004FF02044636613E0B0F5807F08D1474BB9
:1009D0001B1D1B688B434FF02044C4F8843007E094
:1009E000424B24331B688B434FF02044C4F8A4309F
:1009F00010BD10B5024600200023102A03D14FF08D
:100A00002044636E09E0B2F5807F03D1374C241D8A
:100A1000236802E0354C2434236803EA01040CB156
:100A2000012000E0002010BD102807D14FF0204227
:100A3000526E8A434FF020435A6613E0B0F5807F30
:100A400008D12A4A121D12688A434FF02043C3F886
:100A5000842007E0254A243212688A434FF020435D
:100A6000C3F8A420704770B502460020002300247C
:100A70000025102A03D14FF02046736E09E0B2F52D
:100A8000807F03D1194E361D336802E0174E24369D
:100A9000336803EA010403EAD10514B10DB1012062
:100AA00000E0002070BD102808D14FF02042526EA7
:100AB00022EAD1024FF020435A6615E0B0F5807F5C
:100AC00009D10A4A121D126822EAD1024FF02043CE
:100AD000C3F8842008E0054A2432126822EAD102D1
:100AE0004FF02043C3F8A42070470000800000A00E
:100AF000BFFF0F0010B50446CC48844208D1012145
:100B0000042000F093FB0021042000F08FFB46E05E
:100B1000C748844208D10121082000F087FB00214A
:100B2000082000F083FB3AE0C248844208D101214A
:100B3000102000F07BFB0021102000F077FB2EE05E
:100B4000BD48844208D10121202000F06FFB002124
:100B5000202000F06BFB22E0B848844208D101213C
:100B6000402000F063FB0021402000F05FFB16E016
:100B7000B348844208D10121802000F057FB0021B6
:100B8000802000F053FB0AE0AE48844207D10121E7
:100B9000801500F04BFB0021A01500F047FB10BDB5
:100BA00010B50121084600F041FB0021012000F0B2
:100BB0003DFB10BD2DE9F041024600250026002036
:100BC00000230024002791F803C00CF00F0591F8D2
:100BD00003C00CF0100CBCF1000F03D091F802C060
:100BE0004CEA050591F800C0BCF1000F31D0146843
:100BF00000202BE04FF0010C0CFA00F3B1F800C01C
:100C00000CEA03069E4220D183004FF00F0C0CFA31
:100C100003F7BC4305FA03FC4CEA040491F803C053
:100C2000BCF1280F06D14FF0010C0CFA00FCC2F801
:100C300014C00AE091F803C0BCF1480F05D14FF091
:100C4000010C0CFA00FCC2F810C0401C0828D1D3DB
:100C50001460B1F800C0BCF1FF0F34DD546800200F
:100C60002EE000F1080C4FF0010808FA0CF3B1F87F
:100C700000C00CEA03069E4221D183004FF00F0C06
:100C80000CFA03F7BC4305FA03FC4CEA040491F8A0
:100C900003C0BCF1280F05D100F1080C08FA0CF8CC
:100CA000C2F8148091F803C0BCF1480F07D100F1DD
:100CB000080C4FF0010808FA0CF8C2F81080401C2C
:100CC0000828CED35460BDE8F0814FF6FF71018053
:100CD000022181700421C170704702460020936890
:100CE0000B400BB1012000E00020704701468868EE
:100CF00080B2704702460020D3680B400BB1012040
:100D000000E0002070470146C86880B2704701616A
:100D10007047416170470AB1016100E0416170476D
:100D2000C16070474FF480320A4382618161826101
:100D300082698269704702460020434B18684FF66B
:100D40008073184040EA021008433F4B1860704718
:100D50003E49C8617047F0B50A46002300240021CF
:100D6000002500F00046B6F1004F02D1364EF16981
:100D700001E0354E7168C0F3034583B200F44016BC
:100D8000B6F5401F08D121F070612F4E766826F02D
:100D900070662D4F7E6012E000F48016B6F5801F5D
:100DA00006D1032606FA05F4A14341F0706106E07E
:100DB000460D360103FA06F6B14341F0706122B1E7
:100DC000460D360103FA06F6314300F00046B6F14F
:100DD000004F02D11C4EF16101E01B4E7160F0BD6D
:100DE00030B500228B071C0F0F2303FA04F2164BB9
:100DF00008338C1053F824309343134C08348D106F
:100E000044F8253023468C1053F824308C07240FE7
:100E100000FA04F423430C4C08348D1044F82530B8
:100E200030BD0A49DC31086070470000000801400D
:100E3000000C014000100140001401400018014066
:100E4000001C014000200140000001400000204241
:100E500010B50121080700F0F6F900214FF080508D
:100E600000F0F1F910BD2A4908627047284908616D
:100E7000704701460020274A106820F0E000084330
:100E8000106070472249A0310860704710B50246D3
:100E90000020204B186820F00300104318601E4B00
:100EA0001B6843F004031C4C2360012901D130BFAF
:100EB00000E020BF184B1B6823F00403164C23608E
:100EC00010BD1448006840F004001249086008464C
:100ED000006840F0020008600F48006840F004001D
:100EE0000D49086000BF00BF30BF704701460020B9
:100EF000084A52680A400AB1012000E00020704709
:100F00000449096841EA8001024A11607047000003
:100F100000000E420070004010ED00E0DF48006865
:100F200040F00100DD49086008464068DC4908409F
:100F3000DA49486008460068DA490840D74908603D
:100F40000846006820F4802008600846406820F4C5
:100F5000FE0048604FF41F0088607047CF49096861
:100F600021F48031CD4A11601146096821F48021B5
:100F70001160B0F5803F03D0B0F5802F0ED106E0B0
:100F8000C649096841F48031C44A116007E0C34989
:100F9000096841F4A021C14A116000E000BF00BF10
:100FA000704710B501460022002300204A11012A93
:100FB00002D1BA4C236806E0022A02D1B74C236A58
:100FC00001E0B64C636A01F01F02012494401C400A
:100FD0000CB1012000E0002010BD38B500200090C9
:100FE0000024002500BF3120FFF7DBFF05460098F5
:100FF000401C00900098B0F5A06F01D0002DF2D0F9
:101000003120FFF7CEFF08B1012400E00024204684
:1010100038BD01460020A14A106820F0F80040EADF
:10102000C10010607047A049086070470246002068
:101030009A4B586820F47C1042EA01031843974BFE
:101040005860704798490866704701460020934AE7
:10105000506820F003000843506070478F48406894
:1010600000F00C007047014600208C4A506820F0C8
:10107000F00008435060704701460020874A5068DE
:1010800020F4E06008435060704701460020834A26
:10109000506820F4605040EAC1005060704729B1A8
:1010A0007E4A527A02437D4B5A7204E07B4A527A5E
:1010B00082437A4B5A7270477B49D8310860704737
:1010C00001460020754A506820F4404008435060B3
:1010D00070470021714A20321170704A82F8201046
:1010E000012802D004280AD104E001216B4A2032F1
:1010F000117005E00521694A2032117000E000BF3F
:1011000000BF70476949086070476449096A014334
:10111000624A11627047654944390860704730B5CA
:1011200000210022002400235C4D6D6805F00C01B5
:1011300021B1042905D0082923D105E05C4D0560C3
:1011400022E05B4D05601FE0544D6D6805F47012A0
:10115000524D6D6805F48034022505EB92421CB9AE
:10116000544D554305600BE04C4D6D6805F400355A
:101170001DB1504D5543056002E04D4D554305608E
:1011800002E04B4D056000BF00BF444D6D6805F0A7
:10119000F0010909484D6B5C0568DD4045603F4D35
:1011A0006D6805F4E061090A434D6B5C4568DD40FC
:1011B00085603A4D6D6805F46051C90A3E4D6B5C1F
:1011C0004568DD40C560354D6D6805F44041890BCB
:1011D0003A4D6B5CC568B5FBF3F5056130BD29B1CF
:1011E0002E4A526902432D4B5A6104E02B4A526940
:1011F00082432A4B5A61704729B1284A92690243B7
:10120000264B9A6104E0254A92698243234B9A61F6
:10121000704729B1214AD2690243204BDA6104E0C8
:101220001E4AD26982431D4BDA61704729B11B4ABD
:10123000D2680243194BDA6004E0184AD26882434C
:10124000164BDA60704729B1144A12690243134BF6
:101250001A6104E0114A12698243104B1A61704707
:1012600012494039086070470F49C86470470B49FC
:10127000C87170470948406A40F080700749486269
:10128000704701460020054A92680A400AB10120D1
:1012900000E000207047014988727047001002404A
:1012A0000000FFF8FFFFF6FE0000424280044242C9
:1012B00000127A0000093D001400002024000020E4
:1012C00029B1504A128802434E4B1A8004E04D4A1D
:1012D000128882434B4B1A8070474A48001D008891
:1012E00040F010004749091D088070474548001D1F
:1012F00000884FF6EF7108404249091D0880704789
:10130000002140481C300188001F008841EA00404D
:10131000704700B50246FFF7E0FF100C394918315D
:101320000880091D0A80FFF7E1FF00BD00B50246F5
:10133000FFF7D3FFC2F30340324908310880091D8B
:101340000A80FFF7D3FF00BD00B50246FFF7C5FFD7
:10135000100C2C4920310880091D0A80FFF7C6FFB8
:1013600000BD00202749103109880907080B2549CD
:10137000143109880843704700BF2248001D0088C7
:1013800000F020000028F8D070471E48001D00889B
:101390004FF6F77108401B49091D088000BF194826
:1013A000001D008800F008000028F8D070470146B2
:1013B0000020144A121D12880A400AB1012000E0E0
:1013C000002070470F49091D098881430D4A121DED
:1013D00011807047014600200A4A121D12880A40F7
:1013E000D0B2084A12880A4012B108B1012000E0C8
:1013F000002070470349091D09888143014A121DD5
:10140000118070470028004010B50446FB48844214
:1014100009D101218803FFF709FF00214FF4804023
:10142000FFF704FF32E0F648844209D10121480465
:10143000FFF709FF00214FF40030FFF704FF25E01C
:10144000F048844209D101218804FFF7FCFE002105
:101450004FF48020FFF7F7FE18E0EB48844209D1F3
:101460000121C804FFF7EFFE00214FF40020FFF731
:10147000EAFE0BE0E548844208D101210805FFF7A8
:10148000E2FE00214FF48010FFF7DDFE10BD2DE9D4
:10149000F04786B005460E460024A24600BFA1468E
:1014A0000027B08900B100BF2F462C8A4CF6FF7090
:1014B0000440F08804432C82AC894EF6F3100440BB
:1014C000B08831890843718908430443AC81AC8AF0
:1014D0004FF6FF400440B0890443AC8201A8FFF7F7
:1014E0001EFEC648874202D1DDF810A001E0DDF8FB
:1014F0000CA0A88900F4004040B10AEBCA0000EB40
:101500000A1031684900B0FBF1F807E00AEBCA00A5
:1015100000EB0A1031688900B0FBF1F86420B8FBD9
:10152000F0F004012009642101FB1089A88900F46E
:10153000004040B1322000EBC900B0FBF1F000F0F8
:101540000700044308E0322000EB09106421B0FBDF
:10155000F1F000F00F0004432C8106B0BDE8F087E5
:101560004FF41651016000218180C18001810C215E
:10157000418100218181704710B502460020108A08
:101580004FF2FF0318400B884C8823438C88234379
:10159000CC8823431843108210BD00210180418074
:1015A0008180C180704721B1828942F400528281DA
:1015B00004E082894DF6FF731A4082817047F0B5CE
:1015C0000346002400260025002040F66A17B94291
:1015D00000D100BF1846C1F3421401F01F060127D5
:1015E00007FA06F5012C01D10C3004E0022C01D1E0
:1015F000103000E014301AB107682F43076002E092
:101600000768AF430760F0BD1AB1838A0B4383823A
:1016100002E0838A8B4383827047028A4FF6F0731D
:101620001A400282028A0A430282704782894FF27C
:10163000FF731A40828182890A438281704721B1F7
:10164000828942F00202828104E082894FF6FD73B2
:101650001A4082817047028A4FF6DF731A40028275
:10166000028A0A430282704721B1028A42F4804210
:10167000028204E0028A4BF6FF731A40028270472E
:10168000C1F308028280704701468888C0F30800D1
:101690007047818941F0010181817047028BD2B28C
:1016A0000283028B42EA012202837047028B02F41A
:1016B0007F420283028B0A430283704721B1828AF0
:1016C00042F02002828204E0828A4FF6DF731A40E1
:1016D0008282704721B1828A42F01002828204E045
:1016E000828A4FF6EF731A408282704721B1828A54
:1016F00042F00802828204E0828A4FF6F7731A40B1
:101700008282704721B1828942F40042828103E0E3
:101710008289C2F30E028281704721B1828A42F42B
:101720000062828204E0828A4FF2FF731A40828252
:101730007047828A4FF6FB731A408282828A0A437C
:101740008282704721B1828A42F00202828204E0E2
:10175000828A4FF6FD731A4082827047024600204B
:10176000B1F5007F00D100BF13880B400BB1012001
:1017700000E00020704701F40072B2F5007F00D154
:1017800000BFCA430280704770B5024600240023A0
:101790000025002040F66A16B14200D100BFC1F317
:1017A000421501F01F03012606FA03F3012D02D1B1
:1017B0009689334006E0022D02D1168A334001E0BB
:1017C000968A33400C12012606FA04F41688344037
:1017D00013B10CB1012000E0002070BD10B5002253
:1017E000002340F66A14A14200D100BF0A1201246E
:1017F0009440A3B2DC43048010BD000000380140D7
:101800000044004000480040004C004000500040B0
:1018100088B001F022FB204801F0D7FD00214FF4F1
:10182000784001F0D8FD1D4803881D48028800213A
:10183000084601F06DFB01F0CBFD002419A1204604
:1018400001F039FD01F018F801F0EEFD00F088FC20
:10185000194800F0DAFC1EE018480068012808D199
:10186000FFF74EFD0446144900F0F7FD0020134930
:1018700008600121124801F0F2FD01280BD101A8F6
:1018800000F009FD01A800F0ACFC4AF2A5510420CB
:10189000FEF7F1FD00BFDFE71C0200200E02002072
:1018A0000C0200202020202020202020424820520E
:1018B00054432064656D6F00280000206C010020F7
:1018C00000080140704700BFFEE700BFFEE700BF11
:1018D000FEE700BFFEE7704770477047704710B5DE
:1018E0000120FFF777FD38B10120FFF783FD0120CC
:1018F00002490860FFF740FD10BD00006C010020A8
:1019000002460E2A70D2DFE802F086071019222B59
:10191000353F49535D67727CF748405C00F0080032
:1019200008B9002070470120FCE7F348405C00F054
:10193000040008B90020F5E70120F3E7EE48405C19
:1019400000F0020008B90020ECE70120EAE7EA48CD
:10195000405C00F0010008B90020E3E70120E1E766
:10196000E54B481C185C00F0800008B90020D9E75E
:101970000120D7E7E04B481C185C00F0400008B994
:101980000020CFE70120CDE7DB4B481C185C00F0BE
:10199000200008B90020C5E70120C3E7D64B481C4A
:1019A000185C00F0100008B90020BBE70120B9E77F
:1019B000D14B481C185C00F0080008B90020B1E7C2
:1019C0000120AFE7CC4B481C185C00F0040008B9BC
:1019D0000020A7E70120A5E7C74B481C185C00F0D2
:1019E000020010B900209DE715E001209AE7C24BE4
:1019F000481C185C00F0010008B9002092E70120A3
:101A000090E7BD4B881C185C00F0800008B90020EE
:101A100088E7012086E7002084E72DE9FF4F83B0A7
:101A20000C461F466421039890FBF1F0C0B2019070
:101A3000039890FBF1F201FB1200C5B20198132844
:101A400006D00198142803D0002007B0BDE8F08F1D
:101A50000198142806D105F1630000EB40001FFA3D
:101A600080F904E0681E00EB40001FFA80F9A249EB
:101A700009F10200085C00F0600A4FEA6A1A09F1F5
:101A80000200085C00F01F0BBAF1010F04D1ABF1AA
:101A9000010000F0FF0803E00BF11E0000F0FF085A
:101AA0000A2C07DA601E9549095C05980844401E17
:101AB00086B208E0A4F10A00914931F810100598A7
:101AC0000844401E86B2022C08DDE91705EB91712F
:101AD0008910A5EB810109B9701C86B246453EDB31
:101AE000A6EB080086B2012401200290002000909D
:101AF00049460298FFF704FF10B94FF01D0A01E0B4
:101B00004FF01E0A7C4911F80900C11700EB117152
:101B10004FEA211B1DE0A6EB0A0086B20298401C8A
:101B2000C0B202905C4508D10098C043C0B200909A
:101B3000009820B9601CC4B201E0601CC4B24946E0
:101B40000298FFF7DDFE10B94FF01D0A01E04FF0DB
:101B50001E0A5645DFDA701CC0B205904FE0A8EBB4
:101B6000060000F0FF081DB963251320019001E075
:101B7000681EC5B2A9F103001FFA80F90C245E4962
:101B800011F80900C11700EB11714FEA211BBBF1DD
:101B9000000F02D10C20029001E00D2002900020E5
:101BA000009049460298FFF7ABFE10B94FF01D0AAE
:101BB00001E04FF01E0A1BE0A8EB0A0000F0FF084E
:101BC0000298401EC0B20290009808B9601EC4B2CC
:101BD0005C4503D10098C043C0B2009049460298CA
:101BE000FFF78EFE10B94FF01D0A01E04FF01E0AFC
:101BF000D045E1DCAAEB0800401CC0B2059001987A
:101C000007F8010B07F8015B07F8014B05983870DE
:101C100001201AE710B50A46B0F5F86F09DBA0F508
:101C2000F86398B23C2390FBF3F403FB1403D9B29E
:101C30000AE0C0F5F86398B23C2390FBF3F403FB91
:101C40001403C3F13C03D9B2117010BD10B50023C9
:101C500005E011F8014B00F8014B5C1CA3B2934264
:101C6000F7DB10BD2DE9FC4105460E4617461C4624
:101C70000F2224A12046FFF7E9FF01AB3A46314687
:101C80002846FFF7CAFE08B9BDE8FC819DF805208B
:101C90009DF8041001EBC10303EB011102EB81007D
:101CA0006946FFF7B7FF9DF800000A2190FBF1F2AB
:101CB00001FB1200174951F82080022241462046BC
:101CC000FFF7C4FF9DF800000C2190FBF1F201FB2F
:101CD0001200114951F8208002224146A01CFFF752
:101CE000B5FF9DF8060001281AD102220BA1A01D04
:101CF000FFF7ACFF1EE00000F63C0008FC3F0008C8
:101D000006400008BCD7D7D3C4EAD5FDD4C2B3F58A
:101D1000D2BB0000A4000020CC000020D5FD0000B4
:101D20009DF80600401E8C4A52F820100222A01D89
:101D3000FFF78CFF9DF807000A280EDD9DF80700CD
:101D40000A2190FBF1F0854951F82080022241469A
:101D500004F10A00FFF77AFF05E0022280A104F1F6
:101D60000A00FFF773FF9DF80700401E0A2190FB51
:101D7000F1F201FB1200784951F82080022241461D
:101D800004F10C00FFF762FF00BF7DE72DE9F04191
:101D900004460D46B4F5FA6F03DB40F602008442B8
:101DA00002DD0020BDE8F0810DB10C2D01DD002029
:101DB000F8E7681E4006010E0F2A01DB481CC1B27D
:101DC00008464FEAE17C01EB5C7C4FEAEC08A4F5A5
:101DD000FA6C0CEB4C0CC444DFF8888118F80C60EA
:101DE0004FEAE17C01EB5C7C4FEAEC0CA1EBCC0C04
:101DF00006FA0CFC0CF080075B48405C187097B149
:101E0000012905D00B2903D0122901D0152907D1AA
:101E100040F2FC70844203DA1878401C187002E02B
:101E20001878401E18700120BCE72DE9F8430546DC
:101E3000884614461E466B46224641462846FFF712
:101E4000A5FF10B90020BDE8F883A8F10100400605
:101E5000070E0F2C01DB781CC7B29DF800008442EE
:101E600008D1424850F8271005223046FFF7EEFE11
:101E70000120E8E70F223EA13046FFF7E7FE9DF87C
:101E8000000084420BDA394850F827100422B01CB5
:101E9000FFF7DCFE9DF80000001BC4B24DE0781C8B
:101EA000172801DD0020CEE7304A781C52F82010B8
:101EB0000422B01CFFF7CAFE0F2C0ADA6B460F2271
:101EC00041462846FFF762FF9DF80000001BC4B2A0
:101ED00033E0A8F101002A4911F80090B8F1020F8F
:101EE00017D1E91705EB91718910A5EB810181B933
:101EF000642195FBF1F201FB125131B94FF4C87125
:101F000095FBF1F201FB125119B909F1010000F042
:101F1000FF0908F10100C0B280460D2801D14FF041
:101F200001086B46012241462846FFF72FFFA9EB27
:101F300004009DF800100844C4B20A2094FBF0F09D
:101F40003030B0720A2094FBF0F100FB11403030C9
:101F5000F072012077E70000FC0000202C01002037
:101F6000B3F500004B3F0008E43F000844000020A8
:101F7000C0EBC1A2B6ACBBB9D3D03F3FCCEC0000A4
:101F800018400008F0B58DB004463022704901A811
:101F900001F07EFA6069451E642195FBF1F1284647
:101FA000EA1705EB9272C1EBA2014FF4C87295FBE0
:101FB000F2F28F186069C11700EB91718910A0EBE4
:101FC000810191B96422616991FBF2F302FB131163
:101FD00031B99200616991FBF2F302FB131121B94F
:101FE0002169022901DD012600E0002640F26D1082
:101FF00005FB00712069401E01AA52F82000084428
:10200000E16808440644072096FBF0F100FB1160EC
:10201000A0610DB0F0BD10B501460869801E0861D1
:10202000002805DC08690C3008614869401E4861D9
:102030006423486990FBF3F04A69D31702EB93736A
:10204000C0EBA3004FF4C87492FBF4F3034440F2D6
:102050006F14086960430C2490FBF4F01844CB68BB
:10206000034440F26D1402FB04303A4BC01A00EBFB
:1020700040008B6803EBC000C0EB00104B6803EB23
:102080008000C0EB00100B6803EB800010BD2DE951
:10209000F04107460C463048B7FBF0F6B7FBF0F1CD
:1020A00000FB11784FF4616098FBF0F0A0604FF4F2
:1020B000616098FBF0F100FB11803C2190FBF1F096
:1020C00060604FF4616098FBF0F100FB11803C21EF
:1020D00090FBF1F201FB1200206040F2B27509E0C2
:1020E00005F0030010B94FF4B77001E040F26D1035
:1020F000361A6D1C05F0030010B94FF4B77001E0FB
:1021000040F26D10B042EBDD65616069C11700EB14
:1021100091718910A0EB810111B91D200F49486010
:10212000012505E0681E0D4951F82000361A6D1C86
:10213000681E0A4951F82000B042F3DD1C204860B7
:102140002561701CE0602046FFF71CFFBDE8F081B0
:10215000244000088BFA0A00805101003C01002055
:1021600008B54FF4C060FEF7EFF803208DF80000CB
:1021700001208DF8010000208DF8020001208DF86B
:1021800003006846FEF7E5F808BD10B501214FF0E1
:10219000C050FFF73EF80120FEF765FEFEF742F95A
:1021A0000120FEF7AFFF00BF6120FEF7FAFE002816
:1021B000FAD04FF40070FEF7A8FF0120FEF7ABFF46
:1021C000FFF7E3F8FFF7D8F801210846FFF778F8A2
:1021D000FFF7D2F849F63F40FFF7A8F8FFF7CCF831
:1021E00010BD70B50446FFF7D0FFFFF7C5F82046D5
:1021F000FFF7C8FE2046FFF70EFFA0F5E145284691
:10220000FFF787F8FFF7B8F870BD10B50446042053
:10221000FEF73DF94AF2A55188420ED0EAA001F03E
:1022200055FCF1A001F052FC2046FFF7DAFF4AF21C
:10223000A5510420FEF71FF92AE001214FF0C050FC
:10224000FEF7E7FF0120FEF70EFE0120FEF75AFF22
:1022500000BF6120FEF7A5FE0028FAD07B20FEF724
:10226000A0FE18B1E6A001F031FC06E07A20FEF7EE
:1022700098FE10B1EBA001F029FCF3A001F026FCC0
:10228000FFF783F801210846FFF71AF8FFF774F803
:10229000FEF7F0FF10BD38B5044600200090002581
:1022A000F1A001F013FC00BFFD4801F00FFC6946EE
:1022B000FCA001F0FFF840F2B2710098884204D30C
:1022C00040F2F6710098884204D9F7A0009901F015
:1022D000FDFB06E0FDA0009901F0F8FB00986061AD
:1022E00000E0E1E700BF00BFFE4801F0EFFB6946F8
:1022F000ECA001F0DFF8009810B100980C2804D988
:10230000E9A0009901F0E2FB06E0F7A0009901F0D6
:10231000DDFB0098206100E0E6E700BF20690D28A2
:1023200032D2DFE800F0310714080F09100A0B1150
:102330000C120D0000BF00BF00BF00BF00BF00BFF8
:102340001F2521E000BF00BF00BF1E251CE0606903
:10235000C11700EB91718910A0EB810191B9642242
:10236000616991FBF2F302FB131131B992006169CB
:1023700091FBF2F302FB131121B92169022901DD5E
:102380001D2500E01C2500BF00BF00BF2946DC481A
:1023900001F09CFB6946C3A001F08CF8009810B1D5
:1023A0000098A84204D9C0A0009901F08FFB06E074
:1023B000D4A0009901F08AFB0098E06000E0E5E716
:1023C00000BF00BFD54801F081FB6946B5A001F010
:1023D00071F80098172804D9B3A0009901F076FB92
:1023E00006E0CFA0009901F071FB0098A06000E02A
:1023F000E8E700BF00BFD04801F068FB6946A9A02C
:1024000001F058F800983B2804D9A7A0009901F0E2
:102410005DFB06E0C9A0009901F058FB00986060E0
:1024200000E0E8E700BF00BFCA4801F04FFB694683
:102430009CA001F03FF800983B2804D99AA000998D
:1024400001F044FB06E0C4A0009901F03FFB0098B6
:10245000206000E0E8E700BF38BDF0B5B9B0054640
:102460000C4605F5E14621463046FFF710FEA06810
:1024700018B9606808B9206818B1BD48006800281C
:102480002CD0227B217CA38A98B207ABFFF7C5FA38
:102490009DF81F0000909DF81E309DF81D209DF8AE
:1024A0001C10B4A001F012FB227B217CA38A98B2FD
:1024B00007ABFFF7D7FB07A9B7A001F007FB227B0B
:1024C000217CA38A98B207ABFFF7AFFC18B107A92C
:1024D000B1A001F0FBFA0020A54908606069C01EA8
:1024E0000C2190FBF1F201FB1200B04951F8207071
:1024F000DFF8BCC2A3695CF8233094E80700CDE99B
:102500000232CDE90410D4E90310CDE900013B46C5
:102510002946A848626901F0D9FA2A46A6A107A867
:1025200001F0E4FA00F054FFC08800EB400087B2ED
:1025300007A9384600F0BFFEE0680090A4A107A8F4
:10254000D4E9043201F0D2FA00F042FFC08800EB77
:10255000800087B207A9384600F0ADFE6069C01E52
:102560000C2190FBF1F201FB12009F4951F8207001
:102570003A469EA107A801F0B9FA00F029FFC088E9
:1025800000EB40004004070C07A9384600F093FE1A
:102590009C49A06951F820209BA107A801F0A6FA48
:1025A00000F016FFC088C0EBC00087B207A938460C
:1025B00000F081FE2068009099A107A8D4E90132BB
:1025C00001F094FA3AE100000D0A0D0A205254433A
:1025D000206E6F742079657420636F6E666967750D
:1025E0007265642E2E2E2E000D0A0D0A20525443C1
:1025F00020636F6E666967757265642E2E2E2E00DD
:102600000D0A0D0A20506F776572204F6E205265BB
:10261000736574206F636375727265642E2E2E2E3F
:10262000000000000D0A0D0A2045787465726E6185
:102630006C205265736574206F6363757272656494
:102640002E2E2E2E000000000D0A204E6F206E65EB
:10265000656420746F20636F6E66696775726520AC
:102660005254432E2E2E2E000D0A3D3D3D3D3D3D44
:102670003D3D3D3D3D3D3D3D3D3D3D3D3D3D3D3D8A
:102680003D3D3DC9E8D6C3CAB1BCE43D3D3D3D3DFD
:102690003D3D3D3D3D3D3D3D3D3D3D3D3D00000021
:1026A0001C7E0008256400000D0A20C4FACAE4C894
:1026B000EBB5C4CAFDD7D6CAC73A2564A3ACB2BB32
:1026C000B7FBBACFD2AAC7F3000000000A0D202042
:1026D000C4EAB7DDB1BBC9E8D6C3CEAA3A202564A7
:1026E0000A0D0000947D00080A0D2020D4C2B7DD39
:1026F000B1BBC9E8D6C3CEAA3A2025640A0D0000B2
:10270000EC7E00080A0D2020C8D5C6DAB1BBC9E8A6
:10271000D6C3CEAA3A2025640A0D0000D87D000851
:102720000A0D2020CAB1D6D3B1BBC9E8D6C3CEAA00
:102730003A2025640A0D0000A87E00080A0D20201A
:10274000B7D6D6D3B1BBC9E8D6C3CEAA3A20256442
:102750000A0D0000647E00080A0D2020C3EBD6D3CA
:10276000B1BBC9E8D6C3CEAA3A2025640A0D000041
:10277000080200200D0A20BDF1CCECD0C2C0FAA3A3
:10278000BA25302E326425302E32642C25302E327C
:10279000642C25302E3264000D0A20BDF1CCECC52E
:1027A000A9C0FAA3BA25730D0A0000008C0100200D
:1027B00070010020447D000820554E49582054697E
:1027C0006D655374616D70203D202564200000000C
:1027D00020446174653A2025642D25642D256420EC
:1027E0002020202020200000D801002020436869FC
:1027F0006E65736520257320796561722020202025
:1028000020200000BC010020202573202020202053
:102810002020202020202020202020202000000018
:102820002054696D653A202025302E32643A2530D7
:102830002E32643A25302E326400000000F0C8FDCC
:10284000C088C004070C07A9384600F034FD39B031
:10285000F0BD04460CE007480068012808D1FEF7E7
:102860004FFD05462146FFF7F8FD002001490860AD
:10287000F1E700006C01002000B585B001210420C3
:10288000FEF7BAFC01218803FEF7B6FC4FF4007096
:10289000ADF8100018208DF8130003208DF81200F9
:1028A00004A92248FEF786F94FF48060ADF81000C5
:1028B00004208DF8130004A91C48FEF77BF94FF49F
:1028C000E13000900020ADF80400ADF80600ADF84E
:1028D0000800ADF80C000C20ADF80A006946144859
:1028E000FEF7D5FD01211248FEF75DFE05B000BDE3
:1028F00070B504460D46E1B20D48FEF7C1FE00BFBB
:1029000080210B48FEF72AFF0028F9D0204670BD31
:1029100010B5044600BF20210548FEF71FFF002820
:10292000F9D00348FEF7B0FE10BD000000080140DA
:102930000038014001B502E00098401E0090009868
:102940000028F9D108BD08B501216020FEF754FC2C
:1029500003208DF8020018208DF803004FF480400A
:10296000ADF800006946FE48FEF724F94FF4004038
:10297000ADF800006946FA48FEF71CF90120ADF8F1
:1029800000006946F648FEF715F90220ADF8000090
:102990006946F348FEF70EF98020ADF8000069465D
:1029A000F048FEF707F94FF48070ADF80000694673
:1029B000EC48FEF7FFF84FF40070ADF800006946F0
:1029C000E848FEF7F7F84FF48060ADF8000069467C
:1029D000E448FEF7EFF84FF40060ADF800006946F8
:1029E000E048FEF7E7F84FF48050ADF80000694684
:1029F000DC48FEF7DFF84FF40050ADF80000694600
:102A0000D848FEF7D7F84FF48040ADF8000069468B
:102A1000D448FEF7CFF84FF40040ADF80000694607
:102A2000D048FEF7C7F84FF48070ADF80000694653
:102A3000CB48FEF7BFF84FF40070ADF800006946D0
:102A4000C748FEF7B7F84FF48060ADF8000069465C
:102A5000C348FEF7AFF803208DF8020018208DF868
:102A600003001020ADF800006946BD48FEF7A2F84B
:102A70002020ADF800006946B948FEF79BF8802099
:102A8000ADF800006946B648FEF794F84FF40060D0
:102A9000ADF800006946B248FEF78CF810208DF8BA
:102AA000030003208DF802000220ADF80000694603
:102AB000AC48FEF77FF810208DF8030003208DF856
:102AC00002004FF48050ADF800006946A448FEF7BC
:102AD00071F808BD00B597B001210802FEF77FFB31
:102AE00001200190042003908006079000200290AE
:102AF0000490059006900890099008200A901020F4
:102B00000B9000200C900E900F9010904FF480507E
:102B10001190002012901390149001A81590169017
:102B200008A8FDF72DFD01210020FDF791FE17B04B
:102B300000BD10B5CF2000F0BFFF002000F0C0FFA7
:102B4000812000F0BDFF302000F0BAFFED2000F042
:102B5000B3FF642000F0B4FF032000F0B1FF1220A7
:102B600000F0AEFF812000F0ABFFE82000F0A4FFF2
:102B7000852000F0A5FF102000F0A2FF782000F0D3
:102B80009FFFCB2000F098FF392000F099FF2C2008
:102B900000F096FF002000F093FF342000F090FF3B
:102BA000022000F08DFFF72000F086FF202000F0CB
:102BB00087FFEA2000F080FF002000F081FF002066
:102BC00000F07EFFB12000F077FF002000F078FFDA
:102BD0001B2000F075FFB62000F06EFF0A2000F009
:102BE0006FFFA22000F06CFFC02000F065FF3520D1
:102BF00000F066FFC12000F05FFF112000F060FFD1
:102C0000C52000F059FF452000F05AFF452000F094
:102C100057FFC72000F050FFA22000F051FFF22024
:102C200000F04AFF002000F04BFF262000F044FF98
:102C3000012000F045FFE02000F03EFF0F2000F0F3
:102C40003FFF262000F03CFF242000F039FF0B203E
:102C500000F036FF0E2000F033FF092000F030FFB7
:102C6000542000F02DFFA82000F02AFF462000F09D
:102C700027FF0C2000F024FF172000F021FF09207F
:102C800000F01EFF0F2000F01BFF072000F018FFD0
:102C9000002000F015FFE12000F00EFF002000F002
:102CA0000FFF192000F00CFF1B2000F009FF04208B
:102CB00000F006FF102000F003FF072000F000FFE7
:102CC0002A2000F0FDFE472000F0FAFE392000F037
:102CD000F7FE032000F0F4FE062000F0F1FE0620CF
:102CE00000F0EEFE302000F0EBFE382000F0E8FEB1
:102CF0000F2000F0E5FE362000F0DEFEC82000F0D8
:102D0000DFFE2A2000F0D8FE002000F0D9FE0020CF
:102D100000F0D6FE002000F0D3FEEF2000F0D0FE41
:102D20002B2000F0C9FE002000F0CAFE002000F0B9
:102D3000C7FE012000F0C4FE3F2000F0C1FE3A2093
:102D400000F0BAFE552000F0BBFE112000F0B4FEEA
:102D50000548FFF7EFFD292000F0AEFE10BD000092
:102D60000014014000180140FCBF020010B50446E9
:102D7000072C00DD10BDFE480470204604EBD07126
:102D80004910A4EB410139B9F020FA4908804FF409
:102D9000A070F949088006E04FF4A070F54908805A
:102DA000F020F5490880362000F086FE082141EA2F
:102DB000441000F085FE2A2000F07EFE002000F086
:102DC0007FFE002000F07CFEEA490988491EC1F31D
:102DD000072000F075FEE7490978491EC8B200F0E7
:102DE0006FFE2B2000F068FE002000F069FE00203E
:102DF00000F066FEE0490988491EC1F3072000F093
:102E00005FFEDD490978491EC8B200F059FE2C204A
:102E100000F052FE00BFADE710B50221D748FDF724
:102E200078FF40F6FF20FFF785FD0221D348FDF72C
:102E30006EFF40F6FF20FFF77DFD10BD10B5044684
:102E40002CB14FF48051CE48FDF763FF04E04FF4FE
:102E50008051CB48FDF75BFF10BD10B5FFF773FD48
:102E6000FFF738FE0120FFF7E9FFFFF7D5FFFFF777
:102E700060FEBF480078FFF779FF10BD2DE9F041F3
:102E800004460D4616461F462A2000F015FE201265
:102E900000F016FEE0B200F013FEA119491EC1F3C6
:102EA0000F2000F00DFEA119491EC8B200F008FE67
:102EB0002B2000F001FE281200F002FEE8B200F024
:102EC000FFFDE919491EC1F30F2000F0F9FDE919D2
:102ED000491EC8B200F0F4FDBDE8F08170B50446AB
:102EE0000D4601231A4629462046FFF7C7FF70BD4D
:102EF00070B504460D4600262C2000F0DDFD00BF15
:102F000003E0284600F0DCFD761CA642F9D370BD34
:102F10002DE9F04106460F4614461D462B46224633
:102F200039463046FFF7AAFF04FB05F095490988AA
:102F3000FFF7DEFFBDE8F08170B505460C468D4811
:102F4000008885420CDA8C480088844208DA2146E1
:102F50002846FFF7C3FF8C4801880120FFF7C8FF10
:102F600070BD70B50024002500262E2000F0A4FDC1
:102F700000F09CFD044600F099FD044600F096FD2B
:102F8000064600F093FD0546E012C002A91240EA91
:102F9000411040EAE62070BD70B504460D46294652
:102FA0002046FFF79BFFFFF7DCFF0646304670BD6B
:102FB0002DE9FF4F83B081464FF0000AD3460598B4
:102FC000A0EB090504990698461ACDF804900498D8
:102FD0000090002D01DD012705E00DB9002702E07A
:102FE0004FF0FF376D42002E02DD4FF0010806E082
:102FF00016B94FF0000802E04FF0FF387642B542B4
:1030000001DD2C4600E034460020029019E0DDE9A5
:103010000010FFF791FFAA44B344A24505DDAAEBD7
:10302000040A0198384480B20190A34505DDABEB5A
:10303000040B0098404480B200900298401C80B27B
:103040000290611C02988842E1DD07B0BDE8F08F74
:103050002DE9F04104460D4616461F46DDF818805E
:10306000B8F1000F0CD03B46324629462046FFF708
:1030700005FF06FB07F044490988FFF739FF27E001
:10308000A019401E82B22B4629462046FFF790FF2A
:10309000E819401E83B2A019401E82B2E819401EF2
:1030A00081B22046FFF784FFE819401E83B2224612
:1030B00029462046FFF77CFFE919491E8BB2A1196A
:1030C000491E8AB2A119491E88B22946FFF770FF2E
:1030D000BDE8F0812DE9F05F05460E4691469B461E
:1030E00000240FFA89F70320A0EB49000FFA80FAB9
:1030F00097E0BBF1000F50D0A0464BE006EB080272
:1031000091B22A1990B2FFF717FF06EB080291B2AD
:103110002A1B90B2FFF710FF321991B2A5EB0802FB
:1031200090B2FFF709FF321B91B2A5EB080290B2F3
:10313000FFF702FFA6EB080291B22A1B90B2FFF73D
:10314000FBFEA6EB080291B22A1990B2FFF7F4FE3B
:10315000321B91B205EB080290B2FFF7EDFE321977
:1031600091B205EB080290B2FFF7E6FE0EE0000018
:10317000100200200C0200200E0200200018014066
:10318000001401401A0200201802002008F101007A
:103190000FFA80F8B845B1DD2FE0F21991B22A1983
:1031A00090B2FFF7C9FEF21991B22A1B90B2FFF755
:1031B000C3FE321991B2EA1B90B2FFF7BDFE321B7B
:1031C00091B2EA1B90B2FFF7B7FEF21B91B22A1B35
:1031D00090B2FFF7B1FEF21B91B22A1990B2FFF73D
:1031E000ABFE321B91B2EA1990B2FFF7A5FE32197D
:1031F00091B2EA1990B2FFF79FFE601C04B2BAF1D7
:10320000000F05DAA000801D50440FFA80FA07E095
:10321000E01B80000A3050440FFA80FA781E07B293
:1032200000BFBC427FF765AFBDE8F09F2DE9F05FBE
:10323000804689461646A6F120001FFA80FA754995
:1032400009688988734A1268D28801FB02F0C117A5
:1032500000EB5171C1F3C7076E48006800680AFBB4
:10326000070B6C480068C3886A4800688288494632
:103270004046FFF703FE2C2000F01EFC002416E061
:10328000002510E01BF8040080212941084020B1EE
:103290006148008800F014FC03E06048008800F0FA
:1032A0000FFC681CC5B2082DECDB601CC4B2BC422C
:1032B000E6DBBDE8F09F70B504460D46002624E02D
:1032C0003046544909688988084455490988884224
:1032D00005DD00264F480068C088204484B220469F
:1032E0004C490968C98808444E490988884201DD6B
:1032F000002600242A7821463046FFF797FF6D1CF0
:10330000444800688088304486B228780028D7D1A5
:1033100070BD70B505460E46144624E028463D496A
:103320000968898808443E490988884205DD0025E6
:1033300038480068C088304486B23046354909684C
:10334000C988084437490988884201DD00250026DC
:10335000227831462846FFF769FF641C2D48006833
:103360008088284485B220780028D7D170BD70B5F8
:1033700005460E46144624E0304626490968C988A9
:10338000084428490988884205DD0026214800684C
:103390008088284485B228461E49096889880844DF
:1033A0001F490988884201DD002500262278314620
:1033B0002846FFF73BFF641C16480068C08830446D
:1033C00086B220780028D7D170BD124908607047B6
:1033D000104800687047104A1080104A11807047EA
:1033E0000D4A128802800D4A12880A8070470A49E5
:1033F0000880704709490880704770B50446FFF798
:10340000E7FFC5882B460648028821460020FFF7C3
:103410007FFD70BD14020020180200201A02002057
:103420000C0200200E02002008B501211420FDF737
:10343000E3FE0120ADF8000004208DF8030069468A
:103440001148FDF7B7FB4FF40050ADF80000042021
:103450008DF8030069460D48FDF7ACFB08BD70B55B
:1034600004460D4629462046FDF737FC012808D1C1
:1034700000BF29462046FDF730FC0128F9D0012085
:1034800070BD0020FCE70000000801400010014072
:1034900040EA01039B0703D009E008C9121F08C0D6
:1034A000042AFAD203E011F8013B00F8013B521E56
:1034B000F9D270470FB400B589B00BA800906A46E6
:1034C00003480A9900F0D0F809B05DF814FB000039
:1034D000340200202DE9FF5F1D464FF0FF3BD5E988
:1034E000014691465F464FF00008A9697F1C01988C
:1034F0008847296A824688470028F6D1BAF1FF3FFB
:103500000CD024F4C064002E19DD600614D5BAF185
:103510002B0F09D0BAF12D0F0ED103E0584604B09D
:10352000BDE8F09F44F48064A9697F1C0198884736
:10353000761E8246002E02DDBAF1300F03D0B9F1BB
:10354000000F26D032E0A969761E44F400747F1C77
:10355000019888478246002E05DDBAF1780F06D023
:10356000BAF1580F03D0B9F1000F10D01EE0B9F135
:10357000000F02D0B9F1100F18D1A969761E24F4FA
:1035800000747F1C019888478246102002E00820C2
:1035900000E00A20814609E008FB0908A969761EB7
:1035A00044F400747F1C019888478246002E05DD94
:1035B0004946504600F04AF80028EDDAE9690198DA
:1035C0008847A00502D46FF00100A8E7E00725D1E5
:1035D000600613D5600502D5C8F1000000E0404642
:1035E00029680A1D2A600968220501D5087015E0BE
:1035F000220701D5088011E008600FE02868011D4E
:1036000029600068210502D580F8008006E02107C6
:1036100002D5A0F8008001E0C0F8008038467EE7BF
:1036200030B50B46014600202022012409E021FA92
:1036300002F59D4205D303FA02F5491B04FA02F58F
:103640002844151EA2F10102F1DC30BD3A2800D257
:10365000303820F02002412A01D3A2F137008842FD
:1036600001D34FF0FF307047024B9361024BD3619F
:1036700000F032B811290008BD360008064C074D8D
:1036800006E0E06840F0010394E807009847103432
:10369000AC42F6D3FCF750FDF87F00081880000814
:1036A000094910B508784C1C18B1401E0870205C00
:1036B00010BD00210720ABBE207010BD0249087864
:1036C000421C0A70704700003C020020026811444E
:1036D0001378016018467047D1600449516104496C
:1036E000116200211161114600F00AB8CD360008C0
:1036F000F5360008C0B24FF4F05100F097B9000061
:103700002DE9F34F8BB04FF0000801F10C000C468F
:103710004FF0010B46460DF1080A01906269012144
:103720000198904705002DD0252D2CD0216A88477F
:10373000C0B16269012101989047216A8847002839
:10374000F7D1411E62690198904700E0761CA1699B
:103750000B988847216A88470028F7D1E1690B98C0
:103760008847DBE7A1690B9888470746A84201D143
:10377000761CD3E7E1690B9888477F1C02D1B8F12A
:10378000000F6FD046E1002762693D463946019837
:1037900090472A2804D162690121019890470125A8
:1037A000DFF884926269012101989047A0F130010D
:1037B0000A290AD24F45E5DC07EB870100EB4107F8
:1037C000303FDFD445F01005ECE7E90601D46FF097
:1037D00000476C280AD04C2814D0682815D06A28D5
:1037E0000DD074281CD07A281AD01DE062690121FE
:1037F000019890476C2802D045F0040514E045F08C
:1038000002050DE045F020050AE0626901210198FA
:103810009047682802D045F0080505E045F40065AA
:103820006269012101989047C4E9015765283DD09C
:1038300019DC58287AD00CDC452837D004DC252840
:1038400026D0412831D131E046282FD047282CD12D
:103850002CE05B2877D0612828D063287CD06428AE
:1038600023D15AE0D0E06F2848D008DC66281DD06C
:1038700067281BD0692821D06E2816D127E0702830
:1038800045D0732868D0752847D078280DD14DE0F1
:10389000A1690B988847054625283FF469AFE1697F
:1038A0000B9888476D1C3FF46AAFB3E023466A4625
:1038B0006FF001000B99AFF300809EE045F04000EF
:1038C0006060A80723464FF0000236D43EE0E807C8
:1038D0007FF447AF2068011D21600068290501D5EC
:1038E00006701BE7290701D5068017E7A90703D54E
:1038F000F117C0E9006111E706600FE745F04000ED
:103900006060A80723464FF0080216D41EE040F678
:103910000E0125EA0100606016E045F0400060609D
:10392000A80723464FF00A0207D40FE045F04000F5
:103930006060A80708D5234610226FF001000B999C
:10394000AFF3008059E007E0234610226FF001003A
:103950000B99FFF7BFFD50E04FF000094F464B4673
:10396000632802D05B2806D040E0E80601D401209D
:10397000A06001273AE062690121019890475E2822
:1039800005D14FF0010962694946019890472169C4
:1039900039B900210A46534643F82120491C082919
:1039A000FADBB0B3216969B9C11700EBD1625311D9
:1039B0000AEB830122F01F02821A01200B6890405B
:1039C00003430B6062690121019890475D28E8D1AB
:1039D000B9F1000F09D00020514651F82020D24300
:1039E00041F82020401C0828F7DB02AB2246009754
:1039F0006FF001000B99AFF3008000280CDA401C37
:103A000008D1BBF1000F05D04FF0FF300DB0BDE87D
:103A1000F08FFFE74046F9E7E90701D108F1010817
:103A200006444FF0000B79E6CCCCCC0C7F2801D9B2
:103A3000002208E0064A02EB5002C007127800D1CB
:103A4000120902F00F020120904008407047000068
:103A5000B47B000870B58C1810F8015B15F00703F3
:103A600001D110F8013B2A1106D110F8012B03E017
:103A700010F8016B01F8016B5B1EF9D12B0705D41F
:103A80000023521E0DD401F8013BFAE710F8013B68
:103A9000CB1A921C03E013F8015B01F8015B521E84
:103AA000F9D5A142D8D3002070BD0000014800889C
:103AB00070470000000002604FF0C041088070476E
:103AC0000149088070470000000002600FB4054BF8
:103AD00010B503A9044A029800F02CF810BC5DF858
:103AE00014FB0000F1280008380200200FB4084B36
:103AF00010B504A902AA039800F01CF8044602A914
:103B0000002000F0F3F8204610BC5DF814FB000024
:103B1000ED3C000802E008C8121F08C1002AFAD1D3
:103B200070477047002001E001C1121F002AFBD13D
:103B3000704700002DE9FF4F8BB09A460F460546AF
:103B4000002606E025280BD052460D9990476D1CA3
:103B5000761C28780028F5D10FB03046BDE8F08FEC
:103B60000024A0460122604900E0044315F8013F0B
:103B7000203B02FA03F00842F7D128782E2817D10B
:103B800015F8010F44F004042A280ED06FF02F021C
:103B90002878A0F1300109290AD808EB880102EB46
:103BA000410100EB01086D1CF2E757F8048B6D1C16
:103BB000287869283ED006DC0028CDD063280BD0B9
:103BC000642804D136E0732810D075284BD05246B3
:103BD0000D999047761C85E017F8040B8DF80000CE
:103BE00000208DF80100E946012003E057F8049B0E
:103BF0004FF0FF3061074FF0000401D40AE0641C6D
:103C000044450DDA8442FADB19F804100029F6D194
:103C100006E0641C8442FCDB19F804100029F8D18A
:103C2000264404E019F8010B52460D999047641E92
:103C3000F8D257E001CF4FF00A0B002802DA4042D9
:103C40002D2102E0210504D52B218DF8241001211E
:103C500003E0E10705D02021F7E70DF120090891E5
:103C60000CE00021F9E701CF4FF00A0BF9E75946C4
:103C7000FFF7D6FC01F1300209F8012D0028F6D13A
:103C8000ADEB090000F1200B600701D44FF00108F3
:103C9000D84502DDA8EB0B0000E0002080460024A0
:103CA00006E009A85246005D0D999047641C761CF9
:103CB00008988442F5DB04E0302052460D99904785
:103CC000761CB8F10001A8F10108F5DC05E019F84F
:103CD000010B52460D999047761CBBF10001ABF1E8
:103CE000010BF4DC6D1C34E7092801000A68531C41
:103CF0000B601070704704AE530A57485526BD0D2F
:103D000026500D954446AAB9056A4D09AD4224AE28
:103D1000B604AE4A6A4DBE0A4D520D25465D52BAF2
:103D20000B544E0D6A43296D37095B4B749BC104DC
:103D300097540A4B485B25BC06A55006D4454ADA81
:103D4000B802B64D0957422497B704974A664B3ECE
:103D50000D4A510EA54656D4BA05AD4E02B64439A9
:103D60003738092E4B7C96BF0C95530D4A486DA5EC
:103D70003B0B554F056A454AADB9025D4D092D42D1
:103D80002C95B60A954A7B4ABD06CA510B55465535
:103D90005ABB04DA4E0A5B43352BB8052B4C8A9587
:103DA0003F0E955206AA487AD53C0AB54F04B6454F
:103DB0004A57390A574D0526423E93350D954975A8
:103DC000AABE056A51096D4654AEBB04AD4F0A4DFB
:103DD000434D26B70D254B8D52BF0B54520B6A47EE
:103DE000696D3C095B50049B454A4BB90A4B4DAB8E
:103DF00025C206A55406D4496ADA3D0AB6510937E8
:103E0000465497BB04974F064B4436A5370EA54A38
:103E100086B2BF05AC530AB6475936BC092E500CC2
:103E200096454D4AB80D4A4C0DA54125AAB6056ADE
:103E3000497AADBD025D52092D475C95BA0A954E8F
:103E40000B4A434B55370AD54A955ABF04BA530A11
:103E50005B48652BBC052B500A9345474AB906AA17
:103E60004C0AD54124DAB604B64A69573D0A4E5188
:103E70000D26465E933A0D534D05AA4336B53709D4
:103E80006D4BB4AEBF04AD530A4D486D25BC0D2536
:103E90004F0D52445DAA380B5A4C056D4124ADB606
:103EA000049B4A7A4BBE0A4B510AA5465B52BA069E
:103EB000D24E0ADA42355B3709374B8497C10497F3
:103EC00053064B4866A53C0EA54F06B2444AB63889
:103ED0000AAE4C092E423C97350C96497D4ABD0DE1
:103EE0004A510DA54555AABA056A4E0A6D43452E9D
:103EF000B7052D4B8A95BF0A95530B4A476B553B27
:103F00000AD54F055A454A5D380A5B4C052B423AA3
:103F100093B60693497729BD06AA510AD54654DAC5
:103F2000BA04B64E0A57434527380D264A8E933EAB
:103F30000D52520DAA4766B53B056D4F04AE454A7A
:103F40004EB90A4D4C0D15412D92B54EA6999CA225
:103F5000988000180010244EA6999CA29880821880
:103F60000010244EA6D99EA2988082180010044EFC
:103F7000E6D99EA6A88082180010000FE6D9BEA63A
:103F8000988882188000000FEFD9BEA6998C82987D
:103F90008000000FEFDBBEA6999CA2988000180F4E
:103FA000EFDBBEA6999CA2988000180FEFDBBEA2A3
:103FB000998CA0988082180BEFDBBEA6998CA298F2
:103FC0008082180FEFDBBEE6D99EA2988082180F80
:103FD000EFFBBFE6D99EA6988082180FFFFFFCEF8B
:103FE000D9BEA618061404130615051406150615E1
:103FF000071708170817081808160716001F3B5A56
:104000007897B5D4F300110130014E010003030687
:1040100001040602050003051F1C1F1E1F1E1F1F93
:104020001E1F1E1F000000001F0000003B000000BC
:104030005A0000007800000097000000B500000062
:10404000D4000000F3000000110100003001000066
:104050004E01000000000000000000000000000011
:1040600000000000000000181818181818080008B0
:104070001800000000000034242424000000000088
:10408000000000000000000016247F2424247E2469
:1040900024000000000000083E6848681C16121248
:1040A0007C10100000000061D29674081016294997
:1040B000C6000000000000003C646438724ACE462E
:1040C0007F00000000000018181818000000000011
:1040D00000000000000000040818103030303010DC
:1040E00010180C04000000201008080C0404040C34
:1040F00008181020000000080A341C6A080000009C
:10410000000000000000000000001818187F1818B8
:10411000180000000000000000000000000000186F
:10412000180830000000000000000000003C000003
:104130000000000000000000000000000000001867
:10414000180000000000000206040C0808101020EF
:1041500020400000000000003C6642475B7342665E
:104160003C00000000000000187848080808080813
:104170007E000000000000003C46060604081020F7
:104180007E000000000000007C0606043C020206DF
:104190007C000000000000000C1C14246444FF0498
:1041A00004000000000000007E6060607E020206E5
:1041B0007C000000000000001E3060487642426231
:1041C0003C000000000000007E0206040C081810ED
:1041D00030000000000000003C6242361C66424293
:1041E0003C000000000000003C664242661A0204E7
:1041F00078000000000000000000181800000018FF
:10420000180000000000000000001818000000184E
:104210001808300000000000000004183060100C86
:104220000600000000000000000000007E007E008C
:1042300000000000000000000000301804060C1010
:1042400020000000000000301C06060618100010B8
:10425000100000000000001C224141DDB5A5A5AF03
:1042600094C0403C00000000181C342426627E43A9
:10427000C1000000000000007C4642467C424242F1
:104280007C000000000000001E20404040404060D4
:104290003E000000000000007C464243434342468B
:1042A00078000000000000007E6060607E6060605A
:1042B0007E000000000000007E6060607E60606044
:1042C00060000000000000001E604040CE424262DC
:1042D0003E00000000000000424242427E42424254
:1042E00042000000000000007E1818181818181866
:1042F0007E000000000000007C0404040404044468
:1043000078000000000000004244485070584C44BF
:10431000420000000000000020202020202020205B
:104320003E000000000000006266675F5B5BC1C189
:10433000C100000000000000626272525A4A4E46FC
:1043400046000000000000003C6243C3C3C3436258
:104350003C000000000000007C464242467840409D
:1043600040000000000000003C6243C3C3C343623E
:104370003C180F00000000007C6662667C6C64667E
:1043800062000000000000003E6040601C06020267
:104390007C000000000000007F181818181818187A
:1043A00018000000000000004242424242424262C5
:1043B0003C00000000000000C14342622624341C7F
:1043C0001800000000000000C1C141495B5B766637
:1043D000660000000000000043663418181C2466C4
:1043E000C300000000000000C14266341C18181809
:1043F00018000000000000007E02040C181020606D
:104400007E0000000000001C101010101010101092
:104410001010101C000000402020101008080C0490
:10442000060200000000003C0C0C0C0C0C0C0C0CE8
:104430000C0C0C3C00000000181C24620000000062
:10444000000000000000000000000000000000006C
:10445000000000FF0000002010000000000000002D
:10446000000000000000000000003C06023E424642
:104470007A0000000000004040405C62424242423C
:104480007C0000000000000000001E206040602052
:104490003E0000000000000202023E62424242660C
:1044A0003A0000000000000000003C62427E4060D4
:1044B0003E0000000000000F1810107E10101010B9
:1044C000100000000000000000003F6642665840F7
:1044D0003E43423C0000004040405C624242424257
:1044E00042000000000000181800780808080808BA
:1044F0007E000000000000040C007C04040404049E
:1045000004040C78000000606060626C787068647D
:104510006200000000000078080808080808080881
:104520007E000000000000000000764B4B4B4B4B20
:104530004B0000000000000000005C62424242426A
:10454000420000000000000000003C624243426262
:104550003C0000000000000000005C624242424259
:104560007C4040400000000000003E624242426643
:104570003A0202020000000000006E726360606098
:10458000600000000000000000003E20203C060209
:104590007C000000000000001010FE101010101031
:1045A0001E0000000000000000004242424242663D
:1045B0003A00000000000000000043426624341866
:1045C00018000000000000000000C1C15B5A5E66D8
:1045D0006600000000000000000062261C181C2677
:1045E0006200000000000000000043426624341C0A
:1045F000181830E00000000000007E060C181020A3
:104600007E0000000000000E181010103070101016
:104610001010180E00000808080808080808080804
:104620000808080800000030180808080C0E0808E0
:10463000080818300000000000000000714B060060
:10464000000000000000000000000000000000006A
:10465000000000000000000000000000000000005A
:10466000000000000000000000000000000000004A
:1046700000000000000000000000000000000380B7
:104680000180018001800180018001800180018022
:1046900001800000000003C003C000000000000013
:1046A00000000000000000000000000000000E708C
:1046B0000E700E700C3000000000000000000000C2
:1046C00000000000000000000000000000000000EA
:1046D00000000000000000000000000000000000DA
:1046E0000618063806307FFE0C300C300C300C30CB
:1046F0007FFE0C601C601860186000000000000065
:1047000000000000000000000000000000C000C029
:104710000FF83CC831C031803D801F8003F001F8A4
:10472000031C030C031C3FF83FE0070006000000D9
:104730000000000000000000000000001C007E0ED1
:10474000630C631863307E6000C001800300077C47
:104750000EE61CC618C630C6607C000000000000D3
:1047600000000000000000000000000000000FE05A
:104770001CF0387038701C601FC00F003F8C71CC6B
:1047800060EC607C70383CFC1FCE00000000000034
:10479000000000000000000000000000000003C056
:1047A0000180018001800000000000000000000086
:1047B00000000000000000000000000000000000F9
:1047C000000000000000000000000000003000E0D9
:1047D00001C0018003000700060006000E000E0065
:1047E0000E000E00060007000300038001C000E079
:1047F0000030000000000000000000000C00060077
:104800000380018001C000E0006000600070007063
:1048100000700060006000E000C0018003800600BE
:104820000C000000000000000000000000000180FB
:1048300011881DB803C007E03DBC0188018000005D
:104840000000000000000000000000000000000068
:104850000000000000000000000000000000000058
:1048600000000000018001800180018001807FFE46
:104870000180018001800180000000000000000034
:104880000000000000000000000000000000000028
:104890000000000000000000000000000000000018
:1048A0000000000003C003C001C001C003801F005E
:1048B00000000000000000000000000000000000F8
:1048C00000000000000000000000000000000FF0E9
:1048D00000000000000000000000000000000000D8
:1048E00000000000000000000000000000000000C8
:1048F00000000000000000000000000000000000B8
:104900000000000003C003C003C00000000000005E
:10491000000000000000000000000000000000187F
:1049200000380030006000E000C001C001800300DA
:10493000030006000E000C001C00180030000000F0
:1049400000000000000000000000000000000180E6
:104950000FF01C38381C301C707E70EE738E7E0E8B
:104960007C0C300C381C1E780FE0000000000000AA
:104970000000000000000000000000000000000037
:1049800007C01FC039C001C001C001C001C001C0C3
:1049900001C001C001C03FFC3FFC0000000000005E
:1049A0000000000000000000000000000000038084
:1049B0001FF018380038001800380038007001E087
:1049C000038007001C003FFC3FFC000000000000CB
:1049D0000000000000000000000000000000078050
:1049E0001FF0003800380038003007E007F00038CA
:1049F000001C001C001820F83FE000000000000030
:104A000000000000000000000000000000000000A6
:104A100000F001B0033007300E301C3038307030F9
:104A20007FFE7FFE003000300030000000000000FC
:104A30000000000000000000000000000000000076
:104A40001FF818001800180018001FE000F8001CDC
:104A5000001C001C003800F01FC000000000000017
:104A60000000000000000000000000000000000046
:104A700003F80F001C001800300037F83C3C300CE5
:104A8000300C380C381C1E380FF0000000000000FD
:104A90000000000000000000000000000000000016
:104AA0003FFC001C001800380070006000E001C0EE
:104AB00001800380070006000E00000000000000D7
:104AC000000000000000000000000000000003C023
:104AD0001FF8381C381C381C1C380FF007F01C78E5
:104AE000381C300C381C3C380FF00000000000006F
:104AF0000000000000000000000000000000038033
:104B00001FF03838301C701C700C380C1FFC0FCC98
:104B1000001C001800701FE01F8000000000000053
:104B20000000000000000000000000000000000085
:104B300000000000000003C003C00180000000006E
:104B40000000000003C003C003C00000000000001C
:104B50000000000000000000000000000000000055
:104B600000000000000003C003C00180000000003E
:104B70000000000003C003C001C001C003800F009B
:104B80000000000000000000000000000000000025
:104B900000000000003800F001C007001E003800CF
:104BA0000E00078001C0007000300000000000000F
:104BB00000000000000000000000000000000000F5
:104BC000000000000000000000003FFC00000000AA
:104BD0003FFC3FFC0000000000000000000000005F
:104BE00000000000000000000000000000000000C5
:104BF000000000001C000F00038001E00078001C92
:104C0000007001E003800E000C00000000000000B6
:104C100000000000000000000000000000000FC0C5
:104C200000F0003800380038003803F0038003003B
:104C30000300000000000780078000000000000063
:104C400000000000000000000000000000E007F885
:104C50000C0C18063006700363F36633C673CC631E
:104C6000CC62CC66CCE6C7FCE00060007000381077
:104C70001FF0000000000000000000000000000025
:104C800003C007E006E00E700E700C301C381818D8
:104C90003FFC3FFC700E600EE007000000000000CB
:104CA0000000000000000000000000000000000004
:104CB0003FF03838381C381C38383FF03FF8381C83
:104CC000380C380C381C3FF83FE0000000000000B2
:104CD000000000000000000000000000000000E0F4
:104CE00007FC1E04380038003000700070007000AF
:104CF000300038003C001F9C07FC00000000000052
:104D000000000000000000000000000000000000A3
:104D10003FF03078301C300C300E300E300E300E3C
:104D2000300E301C30383FF03FC000000000000063
:104D30000000000000000000000000000000000073
:104D40001FF818001800180018001FF81FF81800A6
:104D50001800180018001FF81FF8000000000000DD
:104D60000000000000000000000000000000000043
:104D70001FF818001800180018001FF81FF8180076
:104D800018001800180018001800000000000000AB
:104D9000000000000000000000000000000000F023
:104DA00007FC1E04380030007000700070FC700CAE
:104DB000700C300C380C1F1C07FC000000000000B9
:104DC00000000000000000000000000000000000E3
:104DD000300C300C300C300C300C3FFC3FFC300CF5
:104DE000300C300C300C300C300C00000000000097
:104DF00000000000000000000000000000000000B3
:104E00003FFC0180018001800180018001800180E0
:104E10000180018001803FFC3FFC00000000000099
:104E20000000000000000000000000000000000082
:104E30001FF0003000300030003000300030003013
:104E40000030003000701DE01FC0000000000000B6
:104E50000000000000000000000000000000000052
:104E6000381C387038E039C03B803F003F003B8041
:104E700039C038E038703838381C000000000000B5
:104E80000000000000000000000000000000000022
:104E90001C001C001C001C001C001C001C001C0032
:104EA0001C001C001C001FFC1FFC00000000000078
:104EB00000000000000000000000000000000000F2
:104EC000381C7C3C6C3E6E6E666E66CE63C6638636
:104ED0006186600660066006600600000000000053
:104EE00000000000000000000000000000000000C2
:104EF0003C0C3C0C3E0C360C330C338C318C31CCDE
:104F000030EC306C307C303C301C00000000000085
:104F1000000000000000000000000000000001C0D0
:104F20000FF81C3C381C700E700E60066006700E88
:104F3000700E700C381C1E780FE00000000000009E
:104F40000000000000000000000000000000000061
:104F50003FF0383C381C380C380C381C38783FE0AF
:104F60003800380038003800380000000000000029
:104F7000000000000000000000000000000001C070
:104F80000FF81C3C381C700E700E60066006700E28
:104F9000700E700C381C1E780FE0018001C000FFFD
:104FA000003C0000000000000000000000000000C5
:104FB0003FF0383838183818383838F03FC038E003
:104FC000387038383838381C380E000000000000BF
:104FD000000000000000000000000000000001E0F0
:104FE0000FF83800380038003C001F8003F00078CC
:104FF000001C001C001C38783FE00000000000008E
:1050000000000000000000000000000000000000A0
:105010007FFE01800180018001800180018001808C
:1050200001800180018001800180000000000000FB
:105030000000000000000000000000000000000070
:10504000300C300C300C300C300C300C300C300C80
:10505000300C300C381C1C380FF000000000000031
:105060000000000000000000000000000000000040
:10507000E006700E700E381C381C1C181C380C30E2
:105080000E70066007E003C003C0000000000000CF
:105090000000000000000000000000000000000010
:1050A00060066006600660066186638673C673CE1E
:1050B000766C366C3C3C3C3C381C00000000000028
:1050C00000000000000000000000000000000000E0
:1050D000301C38181C380E7007E003C003C007E00E
:1050E0000E701C381838381C700E000000000000CC
:1050F00000000000000000000000000000000000B0
:10510000700E700C381C1C380E70066007E003C06F
:10511000018001800180018001800000000000000A
:10512000000000000000000000000000000000007F
:105130003FFC001C0038007000E001C00380070045
:105140000E000C0018003FFC3FFC000000000000B7
:1051500000000000000000000000000007F007F061
:10516000060006000600060006000600060006000F
:1051700006000600060006000600060006000600FF
:1051800007F0000000000000000000000000180010
:105190001C000C000600070003000380018001C012
:1051A00000C000600070003000380018000C0000E3
:1051B0000000000000000000000000000FE00FE011
:1051C00000600060006000600060006000600060DF
:1051D00000600060006000600060006000600060CF
:1051E0000FE00000000000000000000000000000D0
:1051F00003C006C006600C301818301C0000000008
:10520000000000000000000000000000000000009E
:10521000000000000000000000000000000000008E
:10522000000000000000000000000000000000007E
:10523000000000000000000000000000000000006E
:10524000FFFF0000000000000000000000001E0042
:1052500003800000000000000000000000000000CB
:10526000000000000000000000000000000000003E
:10527000000000000000000000000000000000002E
:105280000000000000001FF01038001C001C0FFC84
:105290001C1C381C381C3CFC1FDC000000000000FB
:1052A00000000000000000000000000000003800C6
:1052B0003800380038003BF83E1C3C1C380C380CD9
:1052C000380C380C381C3C781FE00000000000004F
:1052D00000000000000000000000000000000000CE
:1052E00000000000000007F80E001C003800380025
:1052F000380038001C000F1807F8000000000000FC
:105300000000000000000000000000000000001C81
:10531000001C001C001C0FFC1C1C381C301C301C0A
:10532000301C301C383C1CFC0F9C000000000000AE
:10533000000000000000000000000000000000006D
:105340000000000000000FF01C38381C300C3FFC3F
:105350003000300038001E0C07FC00000000000088
:10536000000000000000000000000000003C01FE02
:1053700003800300030003007FFC7FFC03000300A5
:10538000030003000300030003000000000000000E
:10539000000000000000000000000000000000000D
:1053A0000000000000000FFE1C38381838181838AC
:1053B0001FF03B8030003FF01FFC300E700E381C99
:1053C0001FF800000000000000000000000038008E
:1053D0003800380038003BF83E383C1C381C381C7C
:1053E000381C381C381C381C381C00000000000019
:1053F000000000000000000000000000018003C069
:1054000003C0000000001FC001C001C001C001C0F6
:1054100001C001C001C001C03FFC0000000000004D
:1054200000000000000000000000000000200070EC
:105430000070000000003FF000700070007000700D
:10544000007000700070007000700070007020E04C
:105450003FC0000000000000000000000000180035
:10546000180018001800183C187018E01B801F0066
:105470001B8019E018701838181C0000000000008C
:1054800000000000000000000000000000001FC03D
:1054900001C001C001C001C001C001C001C001C004
:1054A00001C001C001C001C03FFC000000000000BD
:1054B00000000000000000000000000000000000EC
:1054C0000000000000006F3C79EE71CE718E718E8D
:1054D000718E718E718E718E718E000000000000D1
:1054E00000000000000000000000000000000000BC
:1054F0000000000000003BF83E383C1C381C381C03
:10550000381C381C381C381C381C000000000000F7
:10551000000000000000000000000000000000008B
:105520000000000000000FF01C3C381C700E700ED4
:10553000700E700C381C1E780FE000000000000098
:10554000000000000000000000000000000000005B
:105550000000000000003BF83E1C3C1C380C380CDE
:10556000380C380C381C3C783FE0380038003800E4
:1055700038000000000000000000000000000000F3
:105580000000000000000FFC1C1C381C301C301CEC
:10559000301C301C383C1CFC0F9C001C001C001CE8
:1055A000001C0000000000000000000000000000DF
:1055B00000000000000019F81F1C1C0C180E180039
:1055C0001800180018001800180000000000000063
:1055D00000000000000000000000000000000000CB
:1055E0000000000000000FF81C0018001E000FC093
:1055F00001F80018001818381FF000000000000023
:10560000000000000000000000000000000000009A
:105610000600060006007FFC0600060006000600E5
:10562000060006000700078401FC000000000000DF
:10563000000000000000000000000000000000006A
:10564000000000000000381C381C381C381C381CB6
:10565000381C381C383C1CFC0FDC0000000000002B
:10566000000000000000000000000000000000003A
:10567000000000000000700C381C38181C380C307A
:105680000E70066007E003C003C0000000000000C9
:10569000000000000000000000000000000000000A
:1056A000000000000000600660066186738E73CC07
:1056B00033CC366C366C3C3C3C38000000000000BB
:1056C00000000000000000000000000000000000DA
:1056D000000000000000381C1C380E7007E003C0FA
:1056E00003C007E00E701C38381E000000000000E8
:1056F00000000000000000000000000000000000AA
:10570000000000000000700C381C38181C380C30E9
:105710000E70066007E003C003C0038007000E00A0
:105720007C000000000000000000000000000000FD
:105730000000000000001FF80038007000E001C009
:10574000038007000C001FFC3FFC0000000000006D
:10575000000000000000000000000000007801F8D8
:105760000380038003800380038003003F003E002A
:10577000030003800380038003800380038001C053
:1057800000F800000000000001800180018001801D
:105790000180018001800180018001800180018001
:1057A00001800180018001800180018001800180F1
:1057B0000180000000000000000000001E001F80AB
:1057C000018001C001C001C001C000C000FC007C1C
:1057D00000C001C001C001C001C001C001C0038000
:1057E0001F0000000000000000000000000000009A
:1057F000000000000000000000001C003F0671CE09
:1058000060FC00000000000000000000000000003C
:105810000000000000000000000000000000000088
:105820000000000000000000000000000000000078
:105830000000000000000000000000000000000068
:105840000000000000000000000000000000000058
:105850000000000000000000000000000000000048
:105860000000000000000000000000000000000038
:105870000000000000000000000000000000000028
:10588000000000000000003C00003C00003C000064
:105890003C00003C00003C00003C00003C00003CA0
:1058A00000003C00003C00003C00003C00003C00CC
:1058B000000000000000003C00007E00003C0000F2
:1058C00000000000000000000000000000000000D8
:1058D00000000000000000000000000000000000C8
:1058E00000000000000003C3E003C3E003C3C003E3
:1058F000C3C003C3C003C3C003C1C0000000000095
:105900000000000000000000000000000000000097
:105910000000000000000000000000000000000087
:105920000000000000000000000000000000000077
:105930000000000000000000000000000000000067
:1059400000000000000000000000000001E0E00195
:10595000C0E001C0E001C0E03FFFFE3FFFFE03C129
:10596000C00381C00381C00381C07FFFFC7FFFFCB7
:1059700007838007038007038007038007078000F1
:105980000000000000000000000000000000000017
:105990000000000000000000000000000000000007
:1059A000000000000700000F00000E0001FFF007DC
:1059B000FFF01F0E001E1E001E1C001E1C000FDC30
:1059C0000007FC0000FF80003FF00038F800387846
:1059D00000783C0070783071F83FFFE01FFF000056
:1059E000E00000E00000E000000000000000000017
:1059F00000000000000000000000000000000000A7
:105A00000000000000000F800F3FE01E78703C7027
:105A100070707070E07071C03FE3801FC700000EAF
:105A200000001C0000780000F0F001E7FC03CF0E3E
:105A3000078E0E0F0E0E1E0E0E3C07BC7003F800F4
:105A40000000000000000000000000000000000056
:105A50000000000000000000000000000000000046
:105A600000000000000000000001FF0007FF800FA1
:105A700003C00F03C00F03C00F0780079F0003FE82
:105A80000003F0000FF83C3E7C3C3C1F3C780FF8D4
:105A90007807F87C01F03E03F81FFFFC07FE1F00AB
:105AA00000000000000000000000000000000000F6
:105AB00000000000000000000000000000000000E6
:105AC000000000000000003E00003C00003C000020
:105AD0003C00003C00003C00003C000000000000D6
