:020000040800F2
:100000004004002045010008A9110008AB110008B8
:10001000AF110008B3110008B7110008000000007C
:10002000000000000000000000000000BB110008FC
:10003000BD11000800000000BF110008C111000838
:100040005F0100085F0100085F0100085F01000810
:100050005F0100085F0100085F0100085F01000800
:100060005F0100085F0100085F0100085F010008F0
:100070005F0100085F0100085F0100085F010008E0
:100080005F0100085F0100085F0100085F010008D0
:100090005F0100085F0100085F0100085F010008C0
:1000A0005F0100085F0100085F0100085F010008B0
:1000B0005F0100085F0100085F0100085F010008A0
:1000C0005F0100085F0100085F0100085F01000890
:1000D0005F0100085F0100085F0100085F01000880
:1000E0005F0100085F0100085F0100085F01000870
:1000F0005F0100085F0100085F0100085F01000860
:100100005F0100085F0100085F0100085F0100084F
:100110005F0100085F0100085F0100085F0100083F
:100120005F0100085F0100085F0100085F0100082F
:10013000DFF80CD001F006F900480047510E000826
:10014000400400200648804706480047FEE7FEE7D7
:10015000FEE7FEE7FEE7FEE7FEE7FEE7FEE7FEE777
:1001600047020008310100080CB500200190009002
:100170006C48006840F480306A49086000BF6948F4
:10018000006800F4003000900198401C0190009835
:1001900018B90198B0F5A06FF1D16248006800F479
:1001A000003010B10120009001E000200090009884
:1001B000012843D15C48006840F010005A490860AB
:1001C0000846006820F0030008600846006840F018
:1001D0000200086053484068524948600846406839
:1001E00048600846406840F48060486008464068BF
:1001F00020F47C1048600846406840F4E8104860ED
:100200000846006840F08070086000BF45480068FC
:1002100000F000700028F9D04248406820F0030048
:10022000404948600846406840F00200486000BF0E
:100230003C48406800F00C000828F9D10CBD10B50E
:10024000FFF792FF10BD10B53648006840F001007E
:1002500034490860084640683449084031494860DC
:1002600008460068324908402E4908600846006880
:1002700020F4802008600846406820F4FE004860B2
:100280004FF41F008860FFF7DAFF4FF00060294944
:10029000086010BD10B5002100200022214B5B68D2
:1002A00003F00C0121B1042906D0082928D107E068
:1002B000214B224C236027E01F4B204C236023E07E
:1002C000184B5B6803F47010164B5B6803F48032C4
:1002D000022303EB904022B9194B4343174C236090
:1002E0000DE0104B5B6803F4003323B1144B434320
:1002F000124C236003E0104B4343104C236003E097
:100300000D4B0E4C236000BF00BF064B5B68C3F370
:1003100003130C4CE15C094B1B68CB40074C23607A
:1003200010BD000000100240002002400000FFF855
:10033000FFFFF6FE08ED00E000127A00000000204A
:1003400000093D000400002010B50446CC4884425A
:1003500008D10121042000F02DFB0021042000F031
:1003600029FB46E0C748844208D10121082000F05B
:1003700021FB0021082000F01DFB3AE0C248844226
:1003800008D10121102000F015FB0021102000F001
:1003900011FB2EE0BD48844208D10121202000F04D
:1003A00009FB0021202000F005FB22E0B848844230
:1003B00008D10121402000F0FDFA0021402000F08A
:1003C000F9FA16E0B348844208D10121802000F0F8
:1003D000F1FA0021802000F0EDFA0AE0AE488442F4
:1003E00007D10121801500F0E5FA0021A01500F0E9
:1003F000E1FA10BD10B50121084600F0DBFA00213A
:10040000012000F0D7FA10BD2DE9F0410246002589
:100410000026002000230024002791F803C00CF0E0
:100420000F0591F803C00CF0100CBCF1000F03D0C5
:1004300091F802C04CEA050591F800C0BCF1000F2C
:1004400031D0146800202BE04FF0010C0CFA00F3BF
:10045000B1F800C00CEA03069E4220D183004FF0A1
:100460000F0C0CFA03F7BC4305FA03FC4CEA040436
:1004700091F803C0BCF1280F06D14FF0010C0CFA23
:1004800000FCC2F814C00AE091F803C0BCF1480FA8
:1004900005D14FF0010C0CFA00FCC2F810C0401C52
:1004A0000828D1D31460B1F800C0BCF1FF0F34DDCF
:1004B000546800202EE000F1080C4FF0010808FA03
:1004C0000CF3B1F800C00CEA03069E4221D1830070
:1004D0004FF00F0C0CFA03F7BC4305FA03FC4CEA8F
:1004E000040491F803C0BCF1280F05D100F1080CF9
:1004F00008FA0CF8C2F8148091F803C0BCF1480F58
:1005000007D100F1080C4FF0010808FA0CF8C2F806
:100510001080401C0828CED35460BDE8F0814FF60F
:10052000FF710180022181700421C1707047024671
:10053000002093680B400BB1012000E000207047C1
:100540000146886880B2704702460020D3680B409D
:100550000BB1012000E0002070470146C86880B25E
:10056000704701617047416170470AB1016100E065
:1005700041617047C16070474FF480320A43826125
:100580008161826182698269704702460020434B23
:1005900018684FF68073184040EA021008433F4B3A
:1005A000186070473E49C8617047F0B50A4600239D
:1005B00000240021002500F00046B6F1004F02D1D2
:1005C000364EF16901E0354E7168C0F3034583B2E0
:1005D00000F44016B6F5401F08D121F070612F4E8F
:1005E000766826F070662D4F7E6012E000F480166B
:1005F000B6F5801F06D1032606FA05F4A14341F0A3
:10060000706106E0460D360103FA06F6B14341F08B
:10061000706122B1460D360103FA06F6314300F04F
:100620000046B6F1004F02D11C4EF16101E01B4EB5
:100630007160F0BD30B500228B071C0F0F2303FA49
:1006400004F2164B08338C1053F824309343134CA8
:1006500008348D1044F8253023468C1053F824308C
:100660008C07240F00FA04F423430C4C08348D103B
:1006700044F8253030BD0A49DC310860704700007D
:1006800000080140000C014000100140001401402E
:1006900000180140001C0140002001400000014002
:1006A00000002042DF48006840F00100DD4908609A
:1006B00008464068DC490840DA4948600846006856
:1006C000DA490840D74908600846006820F48020CD
:1006D00008600846406820F4FE0048604FF41F00A0
:1006E00088607047CF49096821F48031CD4A116094
:1006F0001146096821F480211160B0F5803F03D0D4
:10070000B0F5802F0ED106E0C649096841F480316A
:10071000C44A116007E0C349096841F4A021C14AF5
:10072000116000E000BF00BF704710B50146002215
:10073000002300204A11012A02D1BA4C236806E0A6
:10074000022A02D1B74C236A01E0B64C636A01F079
:100750001F02012494401C400CB1012000E0002045
:1007600010BD38B5002000900024002500BF3120C6
:10077000FFF7DBFF05460098401C00900098B0F59D
:10078000A06F01D0002DF2D03120FFF7CEFF08B1CD
:10079000012400E00024204638BD01460020A14A83
:1007A000106820F0F80040EAC10010607047A049CE
:1007B00008607047024600209A4B586820F47C106D
:1007C00042EA01031843974B5860704798490866FE
:1007D000704701460020934A506820F00300084308
:1007E000506070478F48406800F00C007047014629
:1007F00000208C4A506820F0F00008435060704799
:1008000001460020874A506820F4E06008435060A9
:10081000704701460020834A506820F4605040EA47
:10082000C1005060704729B17E4A527A02437D4B25
:100830005A7204E07B4A527A82437A4B5A7270476A
:100840007B49D8310860704701460020754A5068DE
:1008500020F440400843506070470021714A203224
:100860001170704A82F82010012802D004280AD1A1
:1008700004E001216B4A2032117005E00521694A2C
:100880002032117000E000BF00BF70476949086066
:1008900070476449096A0143624A116270476549B9
:1008A00044390860704730B500210022002400233D
:1008B0005C4D6D6805F00C0121B1042905D00829B3
:1008C00023D105E05C4D056022E05B4D05601FE033
:1008D000544D6D6805F47012524D6D6805F4803406
:1008E000022505EB92421CB9544D554305600BE0BF
:1008F0004C4D6D6805F400351DB1504D55430560F4
:1009000002E04D4D5543056002E04B4D056000BFD0
:1009100000BF444D6D6805F0F0010909484D6B5C5E
:100920000568DD4045603F4D6D6805F4E061090AEA
:10093000434D6B5C4568DD4085603A4D6D6805F45C
:100940006051C90A3E4D6B5C4568DD40C560354D60
:100950006D6805F44041890B3A4D6B5CC568B5FB89
:10096000F3F5056130BD29B12E4A526902432D4B82
:100970005A6104E02B4A526982432A4B5A617047FC
:1009800029B1284A92690243264B9A6104E0254A1C
:1009900092698243234B9A61704729B1214AD269F7
:1009A0000243204BDA6104E01E4AD26982431D4BA8
:1009B000DA61704729B11B4AD2680243194BDA60E9
:1009C00004E0184AD2688243164BDA60704729B1B6
:1009D000144A12690243134B1A6104E0114A126966
:1009E0008243104B1A6170471249403908607047C2
:1009F0000F49C86470470B49C87170470948406A7D
:100A000040F0807007494862704701460020054A5F
:100A100092680A400AB1012000E0002070470149B5
:100A200088727047001002400000FFF8FFFFF6FEDA
:100A3000000042428004424200127A0000093D0058
:100A4000140000202400002010B50446FB48844216
:100A500009D101218803FFF7ADFF00214FF4804049
:100A6000FFF7A8FF32E0F648844209D1012148048B
:100A7000FFF7ADFF00214FF40030FFF7A8FF25E09E
:100A8000F048844209D101218804FFF7A0FF00212A
:100A90004FF48020FFF79BFF18E0EB48844209D118
:100AA0000121C804FFF793FF00214FF40020FFF756
:100AB0008EFF0BE0E548844208D101210805FFF7CD
:100AC00086FF00214FF48010FFF781FF10BD2DE954
:100AD000F04786B005460E460024A24600BFA14658
:100AE0000027B08900B100BF2F462C8A4CF6FF705A
:100AF0000440F08804432C82AC894EF6F310044085
:100B0000B08831890843718908430443AC81AC8AB9
:100B10004FF6FF400440B0890443AC8201A8FFF7C0
:100B2000C2FEC648874202D1DDF810A001E0DDF820
:100B30000CA0A88900F4004040B10AEBCA0000EB09
:100B40000A1031684900B0FBF1F807E00AEBCA006F
:100B500000EB0A1031688900B0FBF1F86420B8FBA3
:100B6000F0F004012009642101FB1089A88900F438
:100B7000004040B1322000EBC900B0FBF1F000F0C2
:100B80000700044308E0322000EB09106421B0FBA9
:100B9000F1F000F00F0004432C8106B0BDE8F087AF
:100BA0004FF41651016000218180C18001810C2128
:100BB000418100218181704710B502460020108AD2
:100BC0004FF2FF0318400B884C8823438C88234343
:100BD000CC8823431843108210BD0021018041803E
:100BE0008180C180704721B1828942F400528281A4
:100BF00004E082894DF6FF731A4082817047F0B598
:100C00000346002400260025002040F66A17B9425A
:100C100000D100BF1846C1F3421401F01F0601279E
:100C200007FA06F5012C01D10C3004E0022C01D1A9
:100C3000103000E014301AB107682F43076002E05B
:100C40000768AF430760F0BD1AB1838A0B43838204
:100C500002E0838A8B4383827047028A4FF6F073E7
:100C60001A400282028A0A430282704782894FF246
:100C7000FF731A40828182890A438281704721B1C1
:100C8000828942F00202828104E082894FF6FD737C
:100C90001A4082817047028A4FF6DF731A4002823F
:100CA000028A0A430282704721B1028A42F48042DA
:100CB000028204E0028A4BF6FF731A4002827047F8
:100CC000C1F308028280704701468888C0F308009B
:100CD0007047818941F0010181817047028BD2B256
:100CE0000283028B42EA012202837047028B02F4E4
:100CF0007F420283028B0A430283704721B1828ABA
:100D000042F02002828204E0828A4FF6DF731A40AA
:100D10008282704721B1828A42F01002828204E00E
:100D2000828A4FF6EF731A408282704721B1828A1D
:100D300042F00802828204E0828A4FF6F7731A407A
:100D40008282704721B1828942F40042828103E0AD
:100D50008289C2F30E028281704721B1828A42F4F5
:100D60000062828204E0828A4FF2FF731A4082821C
:100D70007047828A4FF6FB731A408282828A0A4346
:100D80008282704721B1828A42F00202828204E0AC
:100D9000828A4FF6FD731A40828270470246002015
:100DA000B1F5007F00D100BF13880B400BB10120CB
:100DB00000E00020704701F40072B2F5007F00D11E
:100DC00000BFCA430280704770B50246002400236A
:100DD0000025002040F66A16B14200D100BFC1F3E1
:100DE000421501F01F03012606FA03F3012D02D17B
:100DF0009689334006E0022D02D1168A334001E085
:100E0000968A33400C12012606FA04F41688344000
:100E100013B10CB1012000E0002070BD10B500221C
:100E2000002340F66A14A14200D100BF0A12012437
:100E30009440A3B2DC43048010BD000000380140A0
:100E40000044004000480040004C0040005000407A
:100E50001CB50A20019000F0B5F900F0E3F93CA0C0
:100E600000F0A2FA48A000F09FFA01A956A0019A4A
:100E700000F09AFA5EA000F097FA6D480146026809
:100E800051A000F091FA6BA000F08EFA784801466C
:100E900002684DA000F088FA764800F085FA76489E
:100EA00080780090744843780278014673A000F07F
:100EB0007BFA7DA000F078FA8B48807800908A4811
:100EC00043780278014689A000F06EFA0C2000F009
:100ED00013FC0446002C25D0012020600221201D97
:100EE000044601600321201D044601608B4800F088
:100EF0005BFA8B4800F058FA21468AA000F054FAB9
:100F000054F8041993A000F04FFA54F8041991A072
:100F100000F04AFA94A0216800F046FA204600F05A
:100F2000C3FB02E095A000F03FFA20209D49086035
:100F3000012008600220091D086000BFFEE701B51E
:100F400002E00098401E009000980028F9D108BDEA
:100F50000D0A534354CEC4BCFED3A6D3C3A1AAA149
:100F6000AAD7D4B6AFB7D6C5E4B1E4C1BFB5BDA169
:100F7000B0D6B8B6A8B5C4B4E6B4A2BFD5BCE4A197
:100F8000B1CAB5D1E90D0A000D0ACAB9D3C3A1B0DF
:100F90000975696E7433325F7420696E65725465C9
:100FA000737456616C7565203D31303B20A1B1D31F
:100FB000EFBEE4B6A8D2E5B5C4BED6B2BFB1E4C1B7
:100FC000BFA3BA0D0A000000BDE1B9FBA3BACBFC78
:100FD000B5C4B5D8D6B7CEAAA3BA307825782CB187
:100FE000E4C1BFD6B5CEAAA3BA25640D0A0000009D
:100FF0000D0ACAB9D3C3A1B075696E7433325F7478
:10100000207465737456616C7565205F5F45585236
:10101000414D203D37203BA1B1D3EFBEE4B6A8D26D
:10102000E5B5C4C8ABBED6B1E4C1BFA3BA0D0A00D2
:10103000005000200D0ACAB9D3C3A1B075696E74FF
:1010400033325F74207465737456616C7565322039
:10105000203D37203B20A1B1D3EFBEE4B6A8D2E5B6
:10106000B5C4C8ABBED6B1E4C1BFA3BA0D0A000077
:1010700028000020AC17000804500020BDE1B9FB97
:10108000A3BACBFCB5C4B5D8D6B7CEAAA3BA30782C
:1010900025782CB1E4C1BFD6B5CEAAA3BA25642C5D
:1010A00025642C25640D0A000D0ACAB9D3C3A1B06A
:1010B00075696E74385F74207465737447727570E7
:1010C000325B335D203D7B312C322C337D3BA1B133
:1010D000D3EFBEE4B6A8D2E5B5C4C8ABBED6CAFD50
:1010E000D7E9A3BA0D0A00002C000020BDE1B9FB2E
:1010F000A3BACBFCB5C4B5D8D6B7CEAAA3BA3078BC
:1011000025782CB1E4C1BFD6B5CEAAA3BA2564A375
:10111000AC25642C25640D0A00000000F4170008BB
:1011200064170008BDE1B9FBA3BAB2D9D7F7BAF387
:10113000CBFCB5C4B5D8D6B7CEAAA3BA307825783B
:101140002CB2E9BFB4B1E4C1BFD6B5B2D9D7F7A3C9
:10115000BA0D0A002A28706F696E7465722D2D29E8
:101160003D25642C200D0A002A28706F696E746575
:1011700072293D25642C200D0A0000000D0ACAB911
:10118000D3C36D616C6C6F63B6AFCCACB7D6C5E43E
:10119000B1E4C1BFB3F6B4EDA3A1A3A1A3A10D0A0D
:1011A00000000000100C0140704700BFFEE700BFC8
:1011B000FEE700BFFEE700BFFEE7704770477047DD
:1011C0007047000008B501210820FFF7D9FB202057
:1011D000ADF8000010208DF8030003208DF8020008
:1011E00069460F48FFF710F90120ADF80000694685
:1011F0000B48FFF709F90220ADF8000069460848DE
:10120000FFF702F920210648FFF7ABF90121044856
:10121000FFF7A7F902210248FFF7A3F908BD000074
:10122000000C014000B585B001210420FFF7A8FBA8
:1012300001218803FFF7A4FB4FF40070ADF8100004
:1012400018208DF8130003208DF8120004A92248FD
:10125000FFF7DAF84FF48060ADF8100004208DF845
:10126000130004A91C48FFF7CFF84FF4E1300090B9
:101270000020ADF80400ADF80600ADF80800ADF8A8
:101280000C000C20ADF80A0069461448FFF71FFC5B
:1012900001211248FFF7A7FC05B000BD70B5044658
:1012A0000D46E1B20D48FFF70BFD00BF80210B4852
:1012B000FFF774FD0028F9D0204670BD10B5044634
:1012C00000BF20210548FFF769FD0028F9D0034839
:1012D000FFF7FAFC10BD0000000801400038014093
:1012E0002DE9F05F0546002092469B46884606465B
:1012F000814640241BE0284641464746224600F0EE
:1013000042F853465A46C01A914110D31146184626
:10131000224600F029F82D1A67EB01084F462246B5
:101320000120002100F020F817EB00094E41201E9B
:10133000A4F10104DFDC484631462A464346BDE8B5
:10134000F09F0000064C074D06E0E06840F0010306
:1013500094E8070098471034AC42F6D3FEF7ECFE51
:101360004C1800088C180008202A04DB203A00FAE8
:1013700002F1002070479140C2F1200320FA03F3EC
:10138000194390407047202A04DB203A21FA02F0EA
:101390000021704721FA02F3D040C2F120029140AF
:1013A00008431946704700000FB4054B10B503A958
:1013B000044A029800F018F810BC5DF814FB000015
:1013C0009D1200083000002002E008C8121F08C16A
:1013D000002AFAD170477047002001E001C1121FB6
:1013E000002AFBD1704700002DE9FF4F8DB09B46CE
:1013F0000F460446002606E025280BD05A460F99D2
:101400009047641C761C20780028F5D111B0304636
:10141000BDE8F08F0025A8460122984900E0054369
:1014200014F8013F203B02FA03F00842F7D120787C
:101430002E2817D114F8010F45F004052A280ED0E4
:101440006FF02F022078A0F1300109290AD808EBAB
:10145000880102EB410100EB0108641CF2E757F838
:10146000048B641C20786C280DD004DC4C2812D02E
:101470006A2811D104E074280DD07A280CD10AE032
:1014800045F4001507E0617845F48015814202D1EA
:10149000641C05F58015641C2278692A45D008DC97
:1014A000002AB3D0582A69D0632A10D0642A08D100
:1014B0003BE0702A67D0732A13D0752A5CD0782A53
:1014C0005CD010465A460F999047761CD3E017F827
:1014D000040B8DF8000000208DF80100E946012082
:1014E00003E057F8049B4FF0FF3069074FF0000509
:1014F00001D40AE06D1C45450DDA8542FADB19F886
:1015000005100029F6D106E06D1C8542FCDB19F8B8
:1015100005100029F8D12E4404E019F8010B5A46B1
:101520000F9990476D1EF8D2A5E00A200021CDE961
:101530000801C5F3025002280DD001CFC117031EC8
:1015400071F100030DDA4FF0000CD0EB0C006CEBE6
:1015500001012D2308E0FF1D27F00707F7E802012E
:10156000EDE72B0504D52B238DF8283001233BE034
:10157000EB0739D02023F7E70A2000E010200021F4
:10158000CDE9080107E01020002145F00405CDE970
:1015900008014FF00808C5F3025002280FD001CF10
:1015A00000214FF0000A2B071FD5702A0DD0DDE96E
:1015B00008C38CF0100C5CEA030C0CD015E0FF1D86
:1015C00027F00707F7E80201EBE740228DF8282013
:1015D0004FF0010A0BE050EA010306D030238DF8EA
:1015E00028308DF8292002239A46582A04D024A2B4
:1015F0000DF120090B9209E026A2F9E7DDE90823A5
:10160000FFF76EFE0B9B9B5C09F8013D50EA01025F
:10161000F4D1ADEB090020300890680701D44FF0F9
:1016200001080899884502DDA8EB010000E00020D0
:101630008046002506E00AA85A46405D0F9990476B
:101640006D1C761C5545F6DB04E030205A460F9998
:101650009047761CB8F10001A8F10108F5DC05E01F
:1016600019F8010B5A460F999047761C0899481EA5
:1016700008900029F4DC641CC5E60000092801007C
:1016800030313233343536373839616263646566F8
:1016900000000000303132333435363738394142BA
:1016A000434445460000000010B5002821D0114BEE
:1016B0000022001F196803E0814203D80A464968E6
:1016C0000029F9D152B11368841A9C4204D10068F0
:1016D00018441060104602E0506000E0186039B114
:1016E00002680B1A934203D10B681A4402604968DE
:1016F000416010BD34000020F0B50B30154D20F0D6
:1017000007010024144A0FE003688B420BD38B427D
:1017100005D95E1A43184768C3E9006700E04368CB
:10172000136002C004E0021D10680028ECD12046BE
:10173000002802D1286808B10020F0BD064A0748F9
:101740001060074A121A22F00702C0E900240120A3
:101750002860D7E738000020340000200C5000201B
:10176000085200200D0AB6A8D2E5BAF3B5C4B2D922
:10177000D7F7CEAAA3BA0D0A2A28706F696E7465CE
:10178000722B2B293D313B0D0A2A28706F696E742C
:1017900065722B2B293D323B0D0A2A706F696E74DE
:1017A00065723D333B0D0A0D0A0000000D0ACAB9EF
:1017B000D3C3A1B075696E74385F74207465737497
:1017C000477275705B335D205F5F455852414D2015
:1017D0003D7B312C322C337D3BA1B1D3EFBEE4B63F
:1017E000A8D2E5B5C4C8ABBED6CAFDD7E9A3BA0D29
:1017F0000A0000000D0ACAB9D3C3A1B00975696E09
:101800007433325F74202A706F696E746572203D84
:10181000202875696E7433325F742A296D616C6C8F
:101820006F632873697A656F662875696E743332E1
:101830005F74292A33293B20A1B1B6AFCCACB7D60F
:10184000C5E4B5C4B1E4C1BF0D0A00008C1800089E
:10185000000000203C000000C8130008C818000861
:101860000050002008000000C8130008C818000835
:101870003C00002004040000D8130008D018000821
:101880000850002000020000D813000800A24A04FB
:101890000000000000000000010203040607080920
:1018A0000000000001020304010203040607080906
:1018B0000204060807000000010203000000000007
:1018C000000000000000000007000000010203000B
:0400000508000131BD
:00000001FF
