:020000042000DA
:10000000008400204501002029030020BF020020B9
:10001000250300208D0100209D0400200000000029
:100020000000000000000000000000004D03002060
:1000300091010020000000002B0300203904002063
:100040005F0100205F0100205F0100205F010020B0
:100050005F0100205F0100205F0100205F010020A0
:100060005F0100205F0100205F0100205F01002090
:100070005F0100205F0100205F0100205F01002080
:100080005F0100205F0100205F0100205F01002070
:100090005F0100205F0100205F0100205F01002060
:1000A0005F0100205F0100205F0100205F01002050
:1000B0005F0100205F0100205F0100205F01002040
:1000C0005F0100205F0100205F0100205F01002030
:1000D0005F0100205F0100205F0100205F01002020
:1000E0005F0100205F0100205F0100205F01002010
:1000F0005F0100205F0100205F0100205F01002000
:100100005F0100205F0100205F0100205F010020EF
:100110005F0100205F0100205F0100205F010020DF
:100120005F0100205F0100205F0100205F010020CF
:10013000DFF80CD000F018F800480047C104002098
:10014000008400200648804706480047FEE7FEE797
:10015000FEE7FEE7FEE7FEE7FEE7FEE7FEE7FEE777
:100160003D04002031010020064C074D06E0E06808
:1001700040F0010394E8070098471034AC42F6D3EE
:10018000FFF7DAFFC4050020D405002000BFFEE71A
:10019000704701B502E00098401E009000980028CA
:1001A000F9D108BD2DE9F0410246002500260020C6
:1001B00000230024002791F803C00CF00F0591F8EC
:1001C00003C00CF0100CBCF1000F03D091F802C07A
:1001D0004CEA050591F800C0BCF1000F31D014685D
:1001E00000202BE04FF0010C0CFA00F3B1F800C036
:1001F0000CEA03069E4220D183004FF00F0C0CFA4C
:1002000003F7BC4305FA03FC4CEA040491F803C06D
:10021000BCF1280F06D14FF0010C0CFA00FCC2F81B
:1002200014C00AE091F803C0BCF1480F05D14FF0AB
:10023000010C0CFA00FCC2F810C0401C0828D1D3F5
:100240001460B1F800C0BCF1FF0F34DD5468002029
:100250002EE000F1080C4FF0010808FA0CF3B1F899
:1002600000C00CEA03069E4221D183004FF00F0C20
:100270000CFA03F7BC4305FA03FC4CEA040491F8BA
:1002800003C0BCF1280F05D100F1080C08FA0CF8E6
:10029000C2F8148091F803C0BCF1480F07D100F1F7
:1002A000080C4FF0010808FA0CF8C2F81080401C46
:1002B0000828CED35460BDE8F0810161704700BFCB
:1002C000FEE7000008B50121082000F02FF82020EB
:1002D000ADF8000010208DF8030003208DF8020017
:1002E00069460F48FFF75EFF0120ADF80000694640
:1002F0000B48FFF757FF0220ADF800006946084899
:10030000FFF750FF20210648FFF7D7FF01210448DF
:10031000FFF7D3FF02210248FFF7CFFF08BD00001F
:10032000000C014000BFFEE77047704729B1064A44
:1003300092690243044B9A6104E0034A9269824342
:10034000014B9A617047000000100240704710B5E1
:1003500000F002F810BD00000CB5002001900090E4
:100360003348006840F480303149086000BF3048AD
:10037000006800F4003000900198401C0190009843
:1003800018B90198B0F5A06FF1D12948006800F4C0
:10039000003010B10120009001E000200090009892
:1003A000012843D12348006840F01000214908602B
:1003B0000846006820F0030008600846006840F026
:1003C000020008601A4840681949486008464068B9
:1003D00048600846406840F48060486008464068CD
:1003E00020F47C1048600846406840F4E8104860FB
:1003F0000846006840F08070086000BF0C48006844
:1004000000F000700028F9D00948406820F003008F
:10041000074948600846406840F00200486000BF55
:100420000348406800F00C000828F9D10CBD00001A
:1004300000100240002002407047000010B5134831
:10044000006840F001001149086008464068104902
:1004500008400E494860084600680E4908400B49AC
:1004600008600846006820F480200860084640685C
:1004700020F4FE0048604FF41F008860FFF767FF1C
:100480004FF000500449086010BD00000010024009
:100490000000FFF8FFFFF6FE08ED00E000BFFEE7FA
:1004A00002E008C8121F08C1002AFAD1704770473D
:1004B000002001E001C1121F002AFBD1704700009B
:1004C000FFF700FF79E020203C4908603C48FFF737
:1004D00060FE20203949091F08600120091D0860BD
:1004E0003748FFF756FE01203449091F08600220F3
:1004F000091D08603248FFF74CFE02202F49091FF2
:1005000008602020091D08600120091F08600220E2
:1005100008602B48FFF73DFE20202849091F08608E
:100520000120091D08600220091F08602448FFF708
:1005300030FE20202149091F0860012008600220A8
:10054000091D08601E48FFF724FE20201B49086093
:10055000012008600220091F08601948FFF719FEF2
:100560002020164908600120091F08600220091D8B
:1005700008601348FFF70DFE20201049091F08608E
:100580000120091D0860022008600D48FFF701FEE8
:1005900020200A49086001200860022008600848FD
:1005A000FFF7F7FD20200549091F086001200860BA
:1005B000022008600248FFF7ECFD84E7140C0140BC
:1005C000FFFF0F00D4050020008000200004000081
:0405D000B004002053
:0400000520000131A5
:00000001FF
