:020000040800F2
:100000006847002045010008FB1600080911000898
:10001000F91600084F020008373A000800000000F7
:100020000000000000000000000000000D3000088B
:10003000510D000800000000C9180008B136000882
:100040005F0100085F0100085F0100085F01000810
:100050005F0100085F0100085F0100085F01000800
:100060005F0100085F0100085F0100085F010008F0
:100070005F0100085F0100085F0100085F010008E0
:100080005F0100085F0100085F010008FF380008F9
:10009000C93900085F0100085F0100085F0100081E
:1000A0005F0100085F0100085F0100085F010008B0
:1000B0005F0100085F0100085F0100085F010008A0
:1000C0005F0100085F0100085F0100085F01000890
:1000D0005F0100085F0100085F0100085F01000880
:1000E0005F0100085F0100085F0100085F01000870
:1000F0005F0100085F0100085F0100085F01000860
:100100005F010008452000085F0100085F0100084A
:100110005F0100085F0100085F0100085F0100083F
:100120005F0100085F0100085F010008BD090008C9
:10013000DFF80CD000F02EF800480047E93C00083A
:10014000684700200648804706480047FEE7FEE76C
:10015000FEE7FEE7FEE7FEE7FEE7FEE7FEE7FEE777
:10016000B53600083101000830B50B4601460020C5
:100170002022012409E021FA02F59D4205D303FA69
:1001800002F5491B04FA02F52844151EA2F10102EA
:10019000F1DC30BD064C074D06E0E06840F001039D
:1001A00094E8070098471034AC42F6D3FFF7C4FF39
:1001B000F83D0008183E000870B58C1810F8015B77
:1001C00015F0070301D110F8013B2A1106D110F8F0
:1001D000012B03E010F8016B01F8016B5B1EF9D1F4
:1001E0002B0705D40023521E0DD401F8013BFAE77A
:1001F00010F8013BCB1A921C03E013F8015B01F8E5
:10020000015B521EF9D5A142D8D3002070BD10B5B4
:1002100000280FD04FF48054012811D0022815D1A6
:100220001021012002F09CFF2146BDE81040022071
:1002300002F04CBF1021BDE81040012002F090BF39
:100240002146BDE81040022002F040BF10BDFEE78D
:10025000C1B2000A40EA01207047000070B50020DA
:100260008F4B904C5988A4F1400202E0155C255454
:10027000401C8842FAD38B48626820304260A268F2
:1002800082601F290FD00220FFF7C1FF00202060ED
:10029000607B1A22052103F003F8BDE870400021BD
:1002A000012002F0DDBFE17B282901D02A290FD1EE
:1002B000207D627CE57C40EA0260A27C120442EA76
:1002C000052210435860E07DA27D40EA022098603C
:1002D000754A206890427DD1744A607B12689042D2
:1002E00003D8A27B0AB1102A0DD90220FFF78FFF95
:1002F000607B2422052102F0D3FFBDE8704000217D
:10030000012002F0ADBF252968D01ADC15297CD068
:100310000DDC08297AD005DCF1B303293FD004298C
:100320002DD177E00A2972D0122928D13BE01A3961
:100330000A2924D2DFE801F0433B237A3F23232319
:10034000234B8A297DD00EDC552967D006DC28296D
:100350004CD02A2950D02F2911D153E05A2932D01C
:1003600088290CD172E0A82968D004DC8F2969D0D3
:100370009E2904D16EE0AA2974D0AF297AD0022038
:10038000FFF745FF607B2022052102F089FFBDE8D1
:1003900070400021012000E024E002F061BFBDE8D0
:1003A000704001F0F5BCBDE8704001F0FFBBBDE856
:1003B000704001F0F9BCBDE8704001F0F5BCBDE84B
:1003C000704001F033BCBDE8704001F029BCBDE8CD
:1003D000704001E056E001E001F0A4BCBDE87040CF
:1003E00001F066BCBDE8704001F0E2BCD3E9011247
:1003F000BDE8704001F020BCD3E90112BDE87040B7
:1004000001F010BDBDE8704002E00BE012E025E015
:1004100001F0EABCBDE8704001F0B0BBBDE870403F
:1004200001F0DEBBBDE8704001F0DABBBDE8704012
:1004300001F0D6BBBDE8704001F0D2BBBDE8704012
:1004400002E013E01AE00DE001F0CABBBDE8704025
:1004500001F0C6BBBDE8704001F0C2BBBDE8704012
:1004600001F0BEBBBDE8704001F0BABBBDE8704012
:1004700001F0B6BBBDE8704001F0B2BBBDE8704012
:1004800001F0AEBB0220FFF7C2FE607B20220521F7
:1004900002F006FFBDE870400021012002F0E0BE3E
:1004A000F0000020684200205553424354010020D0
:1004B0002DE9F041194E1A4F1A4C1B4D28E047F612
:1004C000FF702060288800F00F01317007EB810079
:1004D000D0F8002C92B213040CD5D0F8002C40F6C2
:1004E0008F731A40C0F8002C1048491E50F82100A4
:1004F00080470DE012060BD5D0F8002C48F60F739C
:100500001A40C0F8002C0A48491E50F821008047C4
:10051000206828800004D2D4BDE8F08118000020B3
:1005200000500040445C0040500100203401002095
:10053000180100202DE9F84F002000904BF6BF77FE
:1005400048F28008614E624D40F68F7ADFF8849160
:1005500048F60F7B604C2CE0088800F00F0089F80B
:10056000000078B304EB8001D1F8002C0092BDF8B4
:10057000002012040AD5D1F8002C02EA0A02C1F8C0
:10058000002C5649401E51F820008047BDF800005D
:1005900000060ED599F8000004EB8001D1F8002C7C
:1005A00002EA0B02C1F8002C4D49401E51F8200010
:1005B00080474648443000684A4908800004CBD44C
:1005C000BDE8F88FFFE730682880288800F0300009
:1005D0006880288800F4405028803068384080F4D3
:1005E000005080F0200040EA080030600888C00613
:1005F00020D4306800EA0B00306000F087FD3068DE
:1006000038402988C90401D580F48050298889049C
:1006100001D580F400506988C90601D580F010002A
:100620006988890601D580F0200080B240EA080080
:100630003060C5E730680090BDF80000000520D5A7
:10064000306800EA0A00306002F03CFE3068384052
:100650002988C90401D580F480502988890401D5EE
:1006600080F400506988C90601D580F010006988BF
:10067000890601D580F0200080B240EA0800306091
:100680009EE7BDF80000000493D5306800EA0A0038
:10069000306001F0E1F8306838402988C90401D59C
:1006A00080F480502988890401D580F4005069883D
:1006B000C90601D580F010006988890601D580F04F
:1006C000200080B240EA0800306079E7005C00401A
:1006D0002A000020180000200050004034010020B3
:1006E0001801002050010020810008480844D0F87B
:1006F000001C490409D5D0F8001C48F68F7211403F
:100700004CF280021143C0F8001C704700500040BA
:10071000810008480844D0F8001C490609D5D0F8E3
:10072000001C48F68F72114048F2C0021143C0F815
:10073000001C704700500040810006480844D0F873
:10074000001C48F68F62114048F280021143C0F845
:10075000001C70470050004070B500254FF48034F5
:1007600000E0641E24B1802001F046FC0028F8D08F
:100770002CB140F2FF5001F0F9FB284670BD032078
:1007800070BD000070B5054600243B49486B00E091
:10079000486B10F0450FFBD0410705D5032404201A
:1007A00001F0E4FB204670BDC00705D00124012004
:1007B00001F0DCFB204670BD01F018FCA84201D01E
:1007C000102070BD40F2FF5001F0D0FB002001F07E
:1007D0002FFC2A49084201D1204670BD002801DAC9
:1007E0001C2070BD410001D5092070BD810001D5DC
:1007F0000A2070BDC10001D50B2070BD010101D5DB
:100800000C2070BD410101D50D2070BDC10101D585
:100810000E2070BD010201D50F2070BD410201D52F
:10082000102070BD810201D5112070BDC10201D51B
:10083000122070BD010301D5132070BD410301D505
:10084000142070BD810301D5152070BDC10301D5F1
:10085000162070BD010401D5172070BD410401D5DB
:10086000182070BD810401D5192070BD000701D585
:100870001A2070BD204670BD0080014008E0FFFDD9
:1008800010B500240E4A516B00E0516B11F0450F7A
:10089000FBD0480705D50324042001F067FB204660
:1008A00010BDC80705D00124012001F05FFB2046E0
:1008B00010BD40F2FF5001F059FB204610BD000072
:1008C0000080014010B500240A4A516B00E0516BD2
:1008D00011F0450FFBD0480705D50324042001F093
:1008E00045FB204610BD40F2FF5001F03FFB204683
:1008F00010BD00000080014070B506460C46002582
:100900001C4A506B00E0506B10F0450FFBD04107C4
:1009100005D50324042001F029FB204670BDC00743
:1009200005D00124012001F021FB204670BD01F01B
:100930005DFBB04201D0102070BD40F2FF5001F0CD
:1009400015FB002001F074FB10F4604F03D081040C
:1009500005D5132070BD000C2080284670BD4104D1
:1009600001D5102070BD000401D50F2070BD2846B0
:1009700070BD00000080014010B500204FF48031B0
:100980000D4B5A6B01E0491E5A6B12F0450F01D115
:100990000029F8D109B1510705D50324042001F03D
:1009A000E5FA204610BD5106FCD50024402001F098
:1009B000DDFA204610BD00000080014001F076BF46
:1009C000C10002D50249086070470249486070477B
:1009D0000404024000000240002904D0016841F0F4
:1009E00001010160704701684FF6FE72114001601D
:1009F0007047002A03D002680A4302607047026809
:100A00008A430260704730B5026847F6F0739A4334
:100A10000C6A8B682343D1E904452C4323438C693A
:100A20002343CC6923434C6A23438C6A23431343F7
:100A30000360CA6842600A6882604968C16030BD6C
:100A40002DE9F047DFF89880D8F8001001F1100583
:100A500028880E7A234F4FF03009002801D1042E48
:100A600004D0AC88A04215D8042614E01E480178B2
:100A7000012903D00726102038802BE01B4A0021D3
:100A800012681B4B92B2921C43F81210A7F8009008
:100A900001701FE00226844200D90446A968A0B272
:100AA00088478246002000F0F7FA0146A2B250467D
:100AB00002F0C2FFA1B2002002F044FB2888001B14
:100AC0002880688820446880A7F8009009494FF47E
:100AD00040500880D8F800000672BDE8F08700009A
:100AE0001C0000202C00002014000020505C00405E
:100AF000006000402A0000202DE9F041214E3468BA
:100B000010342088A168002915D0A0B1A58885429D
:100B100000D90546A8B2884707462088401B208098
:100B2000608828446080002000F096FA0146AAB24E
:100B3000384600F0B7FE2088134F302538B11349EE
:100B4000280208800021084602F0FCFA3D80208837
:100B5000A188884204D3316803200872BDE8F0817F
:100B600018B1316805200872F8E73168062008726C
:100B7000074800210068074A80B2801C42F8101024
:100B80003D80EBE71C0000202C0000202A00002004
:100B9000505C0040006000402DE9F843634E30682F
:100BA00042780024624D062A296801D08AB117E0F4
:100BB0000278520669D18078012804D0022804D036
:100BC000032804D061E0CC695FE00C6A5DE04C6A08
:100BD0005BE0438823B9C388022B01D1037923B199
:100BE000082A39D00A2A3CD04FE00278530601D1B6
:100BF000838833B102F07F02012A04D0022A0CD08C
:100C000043E04C4C41E08A6940790021904710BB99
:100C10003068807AF8B1474C37E0417901F00F0035
:100C200001F070020B06444907D501EB8001D1F8B1
:100C3000001CC1F30111090106E001EB8001D1F8AC
:100C4000001CC1F3013109033C4B1B7883421CD9C2
:100C50000AB901B1374C18E00078400615D1384C7C
:100C600013E0027802F07F02012A0ED1827A62B18B
:100C7000428852B9027942B9C288012A05D18A69EB
:100C800040790021904700B92E4C09274FF0000809
:100C90003CB13068A0F8128084610020A047002099
:100CA00006E029683068096940788847032816D02B
:100CB00031680A8AA2F57F43FF3B0DD0022811D08C
:100CC00082B1087800062AD5C88800900098824230
:100CD0000CD9009808821AE00F72BDE8F8833068DA
:100CE0000772FAE74FF008000872F6E70FD228689B
:100CF000154B90F82C00824202D283F8008006E067
:100D0000B2FBF0F400FB142008B901201870286829
:100D100090F82C008882BDE8F843FFF791BE0320CD
:100D200008720A4900030880D7E700001C00002071
:100D300020000020B934000800500040C00100200D
:100D40004934000891340008140000202A000020D3
:100D5000704700F045BC00F073BC000070B586B071
:100D60000121080300F004FE0121D42000F000FE60
:100D70000124ADF8004003208DF8020010208DF80A
:100D80000300264D6946284600F00EF92021ADF8F3
:100D9000001018218DF80310214E6946304600F0EE
:100DA00003F94021ADF800106946304600F0FCF828
:100DB0008021ADF800106946304600F0F5F80121B9
:100DC000284600F046F90020ADF804004FF4827187
:100DD000ADF80610ADF808000221ADF80A10ADF824
:100DE0000C400902ADF80E10ADF81000ADF812007D
:100DF0000720ADF814000B4C01A9204602F0C9F8F9
:100E00000121204601F026FF02F012F8064988422F
:100E100002D1002006B070BD0120FBE700100140A8
:100E200000080140003001401740EF002DE9FC4769
:100E30000E460024002700970197584D4FF0080AEE
:100E4000C5F800A0102068604FF04009C5F8089070
:100E5000EF604FF48068C5F81080284601F01EF955
:100E60001020FFF78FFC002833D14D480089000483
:100E7000286037206860C5F80890EF60C5F81080DA
:100E8000284601F00BF93720FFF77CFC002820D121
:100E900005F114004AF6FF710160C0F804A030218A
:100EA00081600221C16007610121416101F076F892
:100EB0002F6033206860C5F80890EF60C5F8108097
:100EC000284601F0EBF83320FFF75CFC05462800CC
:100ED00001D0BDE8FC874FF4001A6F46DFF8C480EC
:100EE00040F22A6908E0504601F086F820B101F08E
:100EF000CFF847F82400641CD8F8340010EA090F32
:100F0000F1D0082001F078F820B1082001F02EF887
:100F10000420DEE7022001F06FF820B1022001F08A
:100F200025F80220D5E7202001F066F820B1202026
:100F300001F01CF80620CCE74FF40074204601F0C5
:100F40005BF820B1204601F011F80720C1E740F21C
:100F5000FF5001F00BF800980099000601F47F4162
:100F600040EA0120009901F47F0140EA1120009934
:100F700040EA1160706001980199000601F47F4118
:100F800040EA0120019901F47F0140EA1120019912
:100F900040EA1160306028469BE70000384300209B
:100FA000EC010020008001402DE9F0410022CC78C6
:100FB00004F00F03E40601D58C7823430C784FF03E
:100FC0000F0714F0FF0F4FF0010C1CD005680CFA4E
:100FD00002F40E882640A64211D1960007FA06F8C0
:100FE00025EA080503FA06F848EA0505CE78282E12
:100FF00002D0482E02D002E0446100E00461521C9D
:10100000082AE4D305600A88FF2A1ED94568002211
:1010100002F108060CFA06F40E882640A64210D10A
:10102000960007FA06F825EA080503FA06F848EAE2
:101030000505CE78282E00D14461CE78482E00D107
:101040000461521C082AE3D34560BDE8F081416188
:1010500070470161704700000549096889B201EBDA
:10106000C0000449001D31F8100080B27047000034
:10107000505C0040006000400549096889B201EBFE
:10108000C0000449801D31F81000C0F3090070470A
:10109000505C0040006000400449096889B201EBDF
:1010A000C000034931F8100080B27047505C004026
:1010B00000600040002801D0034870470349012028
:1010C0000968088200207047540100201C0000209D
:1010D00010B50B480168001D0468001D0068084435
:1010E00000280BD00822074900F040F805492046A7
:1010F0000422BDE81040103100F038B810BD0000E7
:10110000E8F7FF1FFE000020FEE7000010B5144CBA
:101110002068017A02290AD0042908D006290BD0B8
:10112000082021680872BDE8104000F0CFBBFFF72F
:1011300087FC2068007AF4E74178052909D1017815
:10114000490606D1C07801F06BFF06480068006AC6
:10115000804705480068806880470820E1E7000074
:101160001C0000202400002020000020F0B50023F7
:101170000A2530263727002412E0B5EB107F04D96A
:1011800006EB107C01F813C003E007EB107C01F8BC
:1011900013C0000101EB430C8CF801405B1CDBB277
:1011A0009342EAD3F0BD000038B50121082000F0D9
:1011B000DFFB2020ADF8000010208DF80300032095
:1011C0008DF802000F4C69462046FFF7EDFE012125
:1011D000ADF8001069462046FFF7E6FE0221ADF8A3
:1011E000001069462046FFF7DFFE20212046FFF76A
:1011F00030FF01212046FFF72CFF02212046FFF798
:1012000028FF38BD000C014010B5002000F06AF83E
:10121000BDE81040012000F065B800002DE9F04164
:101220002D4F002807F11005A5F1080602D001286E
:1012300015D111E0FFF792FD01F0FAFD2749884230
:101240000AD14FF4805030604FF4C0602860000332
:1012500038600020BDE8F08101F0E0F808B101201D
:10126000F8E71F4800F086FF1D4CB4F85400000456
:1012700001F0DCFB217E891C94F85600022820D066
:10128000227A01209040C21700EBD250401222690E
:10129000521C8A40400882406A604FF400707060BF
:1012A000B4F85400000401F0C1FB0B4C241F206073
:1012B0004FF4006000F018FF2060206830B101207A
:1012C000C8E72069401C80026860E6E768687168CA
:1012D000484378600020BDE7340000201740EF004D
:1012E000C842002070B500250D4C002803D001280D
:1012F00011D0012070BDFFF731FD01F099FD0949C2
:10130000884205D108A002F013FC0020206005E00F
:101310000120206002E001F081F82060284670BDC5
:10132000300000201740EF00666C61736820696E22
:10133000697420737563637365650A0038B5144674
:101340001A46002803D0012807D0012038BD01F536
:101350000011204601F08AFC11E000920A460023A9
:10136000204601F003FB01F0B3FB064C206001F0C6
:1013700048F80028FBD1206808B1012038BD0020C2
:1013800038BD000030000020F8B516461D46002884
:1013900003D001280CD00120F8BD01F5001420462F
:1013A00001F068FD2A462146304601F089FC12E032
:1013B0000A4600233046009501F0EEFB074C206002
:1013C00001F0B8FB206001F01CF80028FBD1206878
:1013D00008B10120F8BD0020F8BD00003000002059
:1013E00000B50D4909680A7802F07F02212A08D168
:1013F000FE2806D1488820B9888810B9C8880128F5
:1014000001D0022000BD0548886100204882FFF716
:1014100051FE002000BD00001C000020B510000897
:10142000014902F025B8000060010020014902F0E6
:101430001FB800005801002005490968C97805292E
:1014400001D900207047034A02EBC10102F010B835
:101450001C00002098010020002901D002207047C4
:1014600008B10220704700207047000010B50F49F6
:1014700009680A7802F07F02212A07D1FF2805D1E6
:10148000488818B9888808B9C88808B1022010BDF2
:101490000120FFF73DF90220FFF726F9054904482E
:1014A000086005490020087010BD00001C000020E5
:1014B0005553424368420020F000002070B52F4889
:1014C000002585722F492E480968C079487200208E
:1014D00001F09EFD4FF40071002001F059FE202123
:1014E000002001F03DFE1821002001F0BDFD264C3A
:1014F0000020217801F0C8FD5821002001F012FEE3
:101500000020FFF719F9002001F0F8FD002101206B
:1015100001F03EFE9821012001F004FE202101206F
:1015200001F01EFE0021012001F0D0FD002102206B
:1015300001F02EFED821022001F096FD2178022034
:1015400001F0A2FD4FF44051022001F0BFFD002147
:10155000022001F005FE2178002001F095FD002019
:1015600001F0CCFD002001F05BFD0849012008607E
:101570000849074808600848057070BD0C02002043
:10158000763D00081C00002094010020E8010020A6
:101590005553424368420020F000002070477047D6
:1015A00010B5FFF795FD054800240068847200F02F
:1015B000ADF902F00BFA0248046010BD1C000020D7
:1015C000E8010020044805490068884202D0022052
:1015D000FEF71DBE7047000068420020555342438D
:1015E00010B5154B187802280FD04FF4405403283B
:1015F00016D0042801D005281CD1002018702146DF
:10160000BDE81040022001F061BD0C48C17B2829D3
:1016100010D1D3E90112407BBDE8104000F00CBBB3
:101620000121002001F01CFE2146BDE810400220EF
:1016300001F04CBD10BD0000F00000206842002009
:1016400070B51B4CE57BA4F14001022002F0CEF9FD
:1016500018494880087878B1012811D00220FEF797
:10166000D6FD607B2422052101F01AFEBDE8704002
:101670000021022001F0F4BDBDE87040FEF7EEBD90
:101680002A2D0DD00120FEF7C2FD607B242205210A
:1016900001F006FEBDE870400021022001F0E0BD2F
:1016A0008A68607B4968BDE8704000F0BBBB000001
:1016B00068420020F000002010B509480068807AD8
:1016C00000280BD00749052008600120FFF720F80B
:1016D0000220FFF709F804490020087010BD00003F
:1016E0001C000020E8010020F00000200149042037
:1016F00008607047E8010020FEE77047704700006F
:1017000070B50F23C27801260178002A1ED0144A32
:10171000126802F4E062C2F5E062120AC2F1040447
:10172000D3404578A54082781A402A43120101F13E
:10173000E02181F80024007800F01F018E4040096C
:10174000800000F1E020C0F8006170BD01F01F00D2
:1017500086404809800000F1E020C0F8806170BD3B
:101760000CED00E0024908430249086070470000A0
:101770000000FA050CED00E070B50220314D29683B
:101780004C780A78530606D002F07F0101292ED04A
:10179000022931D03AE0092C06D0052C07D0032CC1
:1017A00012D0012C18D031E001F0E4FE2EE0C87810
:1017B0007F2805D8887818B9888808B9887A08B148
:1017C00008203CE0002021E0CA78012A1ED1898847
:1017D000E1B901F0EBFE19E0CA78012A16D18A8836
:1017E000A2B9497A890611D501F0A6FD0EE00B2CAD
:1017F0000CD101F037FF09E0012C02D0032C03D0FB
:1018000004E001F099FD01E001F0E2FE30B10E4983
:10181000E0B2096849698847032802D018B1082056
:101820000DE009200BE00620084900220968084B5A
:1018300089B2891C43F81120064A30211180296899
:10184000087270BD1C00002020000020505C004089
:10185000006000402C00002010B5104C2068007A79
:1018600002280ED004280CD003280CD005280AD05A
:1018700007280DD0082021680872BDE8104000F04C
:1018800025B80820F7E7FFF737F92068007AF2E774
:1018900003480068C06880470820ECE71C0000206F
:1018A00020000020521C5208064B03EB4101002A85
:1018B00006D031F8043B20F8023B521E002AF8D132
:1018C00070470000006000407047000010B50B48F2
:1018D00090F82C10002001F0D7FB09480068007A2E
:1018E000082805D1074A41021180074A10211180BA
:1018F000092801D0002010BD012010BD6801002082
:101900001C0000202A0000202C00002010B501201F
:1019100001F0CAFF012106480160064A002101606A
:10192000031D19604FF4E05111800160002010BDCB
:10193000405C004028000020054A002903D051697E
:101940000143516170475169814351617047000003
:1019500000100240054A002903D0D1690143D1613A
:101960007047D1698143D161704700000010024087
:10197000054A002903D0916901439161704791693B
:1019800081439161704700000010024010B5264A63
:10199000516801F00C01254B002927D0042927D0DC
:1019A000082927D00360516801F0F0010909204B94
:1019B0005C5C0168E1404160546804F4E064240A1E
:1019C0001C5D21FA04F48460546804F46054E40A51
:1019D0001B5DD940C160526802F44042920B144B27
:1019E0001B1F9A5CB1FBF2F1016110BD0360DAE7E5
:1019F0000360D8E7516801F47011536803F4803331
:101A0000022404EB914133B153689B0307D5094B82
:101A100059430160C7E7074B59430160C3E7034BD4
:101A200059430160BFE700000010024000127A0035
:101A30000400002000093D000149086070470000D3
:101A4000D800424270B50546274C284E2078002821
:101A500007D156F825004143E16050432061012041
:101A600020702078012820D1606848B32048E169BF
:101A700040220144812001F0CBFF60684038606063
:101A8000E0694030E0614021012001F05BFB302142
:101A9000012001F065FBE0684030E06020694038DB
:101AA000206114488168403981602069002806D18E
:101AB0006060E061E060104A03211170207070BD29
:101AC00036F825000A4A83B22846E168FFF736FC5B
:101AD00040220749812001F09BFF56F8250040383D
:101AE00060604020E061CEE74C0000203C00002018
:101AF0002802002088420020F000002070B5044633
:101B0000D0181B4A52F82420904212D92A2902D117
:101B10000220FEF77CFB0020FEF779FB2122052145
:101B2000204601F0BDFB0021012001F099FB0020BF
:101B300070BD11480F4D50F82400AA6858438242E6
:101B400013D02A290DD00020FEF761FB687B2422E8
:101B5000052101F0A5FB0021012001F081FB0020FF
:101B600070BD0220FEF753FBF0E7012070BD0000BE
:101B700044000020684200203C00002010B5FFF720
:101B80004DFB00280ED008483A220221407B01F08C
:101B900087FB0121084601F063FBBDE810400020EF
:101BA000FEF735BB10BD00006842002008490A7CE2
:101BB000D20702D00748052105E030B10648C97CAC
:101BC000242900D9242101F09DBD0448F7E7000035
:101BD000684200207000002099000020750000205D
:101BE00010B50E4CA068002806D0207B000607D553
:101BF0000020FEF70CFB06E00020FEF708FB02E0E9
:101C00000220FEF704FB607B2022052101F048FB47
:101C10000021BDE81040012001F022BB68420020F5
:101C20000821014801F06EBDC100002004210148D7
:101C300001F068BDBD0000202DE9F04180460E4650
:101C40001746194D2878002808D0022829D13A468D
:101C500031464046BDE8F041FFF7F4BE134C3B4629
:101C60003246607B2821FFF749FF002819D0207BEE
:101C7000000608D5022028703A4631464046BDE8A5
:101C8000F041FFF7DFBE0220FEF7C1FA607B24229D
:101C9000052101F005FBBDE8F0410121084601F0F6
:101CA000DFBABDE8F0810000F000002068420020AB
:101CB00010B504462046FFF7B1FA70B115483A2234
:101CC0000221407B01F0ECFA0121084601F0C8FA3C
:101CD000BDE810400020FEF79ABA0F480F4950F8AF
:101CE0002420521E100E0870100C4870100A8870C4
:101CF000CA700B4850F82400020E0A71020C4A7197
:101D0000020A8A71C871BDE810400821034801F039
:101D1000F9BC00006842002044000020DB000020E5
:101D20003C00002010B504462046FFF777FA70B15A
:101D300013483A220221407B01F0B2FA0121084601
:101D400001F08EFABDE810400020FEF760BA0D48A1
:101D50000D4950F82420100E0871100C4871100A1B
:101D60008871CA71094850F82400020C4A72020AAC
:101D70008A72C872BDE810400C21034801F0C2BC51
:101D80006842002044000020E30000203C000020C6
:101D90000348C17C122900D91221024801F0B2BCCB
:101DA00068420020C90000200121002001F058BA3B
:101DB00010B5FFF733FA70B10A483A220221407B8E
:101DC00001F06EFA0121084601F04AFABDE8104020
:101DD0000020FEF71CBA0121BDE81040002001F0F0
:101DE0003FBA00006842002010B50D4CA0680028E2
:101DF00008D1207C400705D40121BDE81040002017
:101E000001F02EBA0220FEF702FA607B242205219F
:101E100001F046FA0021BDE81040012001F020BA8F
:101E20006842002070B51346164D2A78002A06D065
:101E3000012A26D1BDE870401A4601F013BE124CAB
:101E40000A462A21607BFFF759FE002819D0207B23
:101E5000000608D401202870BDE870404FF44051BE
:101E6000022001F033B90020FEF7D1F9607B242273
:101E7000052101F015FABDE870400021012001F0B4
:101E8000EFB970BDF0000020684200202DE9FC474A
:101E90000646002400940194002000F0C9F8800157
:101EA00002D50E20BDE8FC872E4D6946288980B2F8
:101EB000FEF7BCFF0028F5D137202B4F4FF0060A64
:101EC0004FF040094FF48068012E22D00199C903D8
:101ED00045D52989090439607860C7F80890FC6005
:101EE000C7F81080384600F0D9F83720FEF74AFCD2
:101EF0000028D7D13C60C7F804A0C7F80890FC6060
:101F0000C7F81080384600F0C9F80620FEF73AFC02
:101F1000C8E70199490320D5298909043960786007
:101F2000C7F80890FC60C7F810800F4800F0B6F8BA
:101F30003720FEF727FC0028B4D102203860C7F80C
:101F400004A0C7F80890FC60C7F81080064800F0AD
:101F5000A5F80620FEF716FCA4E72520A2E7252019
:101F6000A0E70000EC01002038430020014988630D
:101F700070470000008001400149886370470000FD
:101F8000008001400149086070470000A000304215
:101F900001490860704700008C05304210B50949BE
:101FA00002684A6242688A62CA6A22F0F702D0E98D
:101FB00002342343D0E90440044323431343CB6258
:101FC00010BD000000800140064800210160416012
:101FD0008160C16041628162C162034A8263C16300
:101FE0007047000000800140FF07C0000148006901
:101FF000C0B270470080014001460020024A526B87
:102000000A4200D0012070470080014001460020B4
:10201000024A526B0A4200D0012070470080014002
:102020000248006800F00300704700000080014093
:1020300008B50349084400900098006808BD0000F6
:102040001480014000F046BC054A002903D0D16B42
:102050000143D1637047D16B8143D1637047000066
:102060000080014030B5094B596847F6FF62914343
:10207000027D8468C568224344682C432243046877
:102080000069224302430A435A6030BD0080014088
:1020900001480068704700008080014010B5084981
:1020A00002688A60CA686FF30A02D0E901342343E8
:1020B000D0E90340044323431343CB6010BD000029
:1020C0000080014004490A6822F003020A600A689D
:1020D00002430A60704700000080014008B50120FB
:1020E00000909DF8000008BD2DE9F0410146002454
:1020F0001E484068032805D038B1012805D00228C1
:1021000003D031E02720BDE8F081B1F5805F0ED02B
:102110004FF400670026164D4FF00108B94213D165
:102120000120FFF7B3FE0446200002D01CE0272068
:10213000E9E785F814802E606E60AE60EF602E6176
:102140000B48FFF78FFF0FE00020FFF79FFE0446CC
:10215000200009D185F814802E606E60AE60EE60BC
:102160002E610348FFF77EFF2046CCE7EC010020FC
:10217000204300202DE9F04396494F6880F85670BF
:102180000989A0F85410DFF850C2DCF800100A0EDC
:1021900093090370C2F38303437002F00302827059
:1021A0000A0CC2700A0A02714171DCF80420110E97
:1021B0000901C180C2F30741C38843EA1113C380F8
:1021C00001F00F010172C2F30721CB094372C1F381
:1021D00080138372C1F34013C372C1F300130373FE
:1021E0000023437364460126D4F80880002F4FEA89
:1021F0001864C8F30745C8F3072904D0012F02D09B
:10220000022F3AD04FE08907090D0161D1B202696E
:1022100042EA81010161016941EA94110161C4F35B
:10222000C201017504F00701417569098175C5F3A3
:102230008201C175A907490F01764946027E42EA2B
:10224000D11202760269521C047EA41C06FA04F91B
:10225000A2FB094703FB09774FEAE97502FB057505
:10226000027A06FA02F70765A4FB072905FB079522
:1022700004FB0354C0E9122415E09106890A0161A8
:10228000016941EA0421016101692943016149466B
:102290000269DC04521C44EA5234D204C0E912241C
:1022A0004FF4007202651C30C1F3801200F8032C59
:1022B0008906490E00F8021C08F0FF0110F8022CF4
:1022C00042EAD11200F8022C01F07F0100F8011C53
:1022D000DCF80C20110ECC090470C1F341144470D9
:1022E000C1F3820484708907090FC170C2F30741EA
:1022F000C47844EA9114C470C1F34014047143716A
:1023000001F001018171C2F30721CC09C471C1F34D
:1023100080140472C1F340144472C1F30014847237
:10232000C1F38104C47201F003010173D1B2490801
:1023300041738673284A103211680C0E04740C0C19
:1023400024024482C1F30724458A254345820906B5
:10235000416151680C0E456945EA04444461C1F38A
:102360000744456945EA04244461C1F307244569EB
:1023700025434561017691680C0E44760C0C2406C9
:10238000C461C1F30724C56945EA0444C461C9B204
:10239000C46944EA0121C161D1680A0EC4691443C9
:1023A000C461C1F3074290F8204044EA121480F857
:1023B00020401207120D4284C1F30722448C1443BB
:1023C0004484C9B2490880F8241080F82560184672
:1023D000BDE8F083EC0100209842002008B5002001
:1023E0000090FFF77BFE012801D0FF2008BD684662
:1023F00000F032FB08B1FF2008BD0098C0F3432075
:1024000008BD10B5FFF7EAFF042803D0FF2803D06A
:10241000012010BD002010BD022010BD38B50024E1
:10242000009400F04DF9FFF7CFFD00F07DF900902A
:102430009DF8000010B19DF8000038BD00F030F8A4
:1024400000909DF8000010B19DF8000038BD1348C1
:1024500001210175046044608460C4600461FFF779
:1024600001FE00F0A9F80D485838FFF783FE0090F0
:102470009DF8000038B909485838B0F854000004F5
:1024800000F0D4FA00909DF8000020B94FF40060ED
:10249000FFF72AFE00909DF8000038BD2043002081
:1024A0002DE9F84F002401200090FFF7B9FDE0B1BD
:1024B000DFF8FC8000263F4DD8F804004FF0C0093B
:1024C0004FF4806704282AD02E6002206860C5F887
:1024D0000890EE602F612846FFF7E0FDFEF7D0F987
:1024E0000446200003D0BDE8F88F2520FBE700203C
:1024F000FFF79EFDDFF8BCA0AAF1900ACAF8000021
:102500000420FFF795FDCAF804000820FFF790FDAE
:10251000CAF808000C20FFF78BFDCAF80C00D8F8A9
:10252000040028B1012803D0062801D0022811D1C7
:102530002E60032068604020A860EE602F611D4877
:10254000FFF7ACFD69460320FEF7D6F904462000EC
:1025500000D0C8E7D8F80400042826D0BDF8000051
:10256000C8F808000004286009206860C5F80890D1
:10257000EE602F610F48FFF791FDFEF781F90446E9
:10258000200000D0AFE70020FFF752FD094DA03D2D
:1025900028600420FFF74CFD68600820FFF748FD25
:1025A000A8600C20FFF744FDE86020469BE7000090
:1025B000EC0100203843002038B54FF4E060FFF70D
:1025C000D1F831208DF8000000248DF80140012061
:1025D0008DF802008DF803006846FFF791F83B2064
:1025E0008DF800008DF801406846FFF789F838BD86
:1025F00070B58CB005460C461448FEF7E1F9144E50
:1026000000213046FEF7E8F91248019002950020BB
:102610000390A108049105908021069189000791FB
:1026200089000891099089000A910B9001A9304610
:10263000FEF7E9F9012202213046FEF7DAF901211D
:102640003046FEF7C9F90CB070BD000000F0001074
:10265000440402408080014070B58CB004460D46B1
:102660001448FEF7ADF9144E00213046FEF7B4F9D8
:1026700012480190029410200390A80804900020B2
:1026800005908021069189000791890008910990A1
:1026900089000A910B9001A93046FEF7B4F9012296
:1026A00002213046FEF7A5F901213046FEF794F9E4
:1026B0000CB070BD00F00010440402408080014066
:1026C00008B50121B020FFF753F94FF4F850ADF8E9
:1026D000000003208DF8020018208DF803006946E1
:1026E0000E48FEF761FC0420ADF8000069460C4876
:1026F000FEF75AFC4FF40060ADF8000048208DF85A
:10270000030069460748FEF74FFC01218802FFF7E6
:1027100013F901210220FFF70FF908BD0010014055
:1027200000140140001C01402DE9F84F00270097DC
:10273000BB460024A24600255948B2210175076016
:1027400047608760C7600761FFF78CFC0320FFF7D5
:10275000B9FC0120FFF716FC514E18363760776040
:10276000B760F7604FF48069C6F810903046FFF705
:1027700095FCFDF7F1FF00909DF8000018B19DF861
:102780000000BDE8F88F4FF4D5703060082070600D
:102790004FF04008C6F80880F760C6F8109040482F
:1027A0001830FFF77BFCFEF7E7F800909DF800007B
:1027B00018B3376037207060C6F80880F760C6F835
:1027C000109037481830FFF769FC3720FDF7DAFF23
:1027D0000090376037207060C6F80880F760C6F850
:1027E00010902F481830FFF759FC3720FDF7CAFF2B
:1027F00000909DF8000090B34FE02A48012141600D
:102800008D07E6E7376037207060C6F80880F7600C
:10281000C6F8109022481830FFF740FC3720FDF72B
:10282000B1FF00909DF8000010B19DF80000A8E7EE
:102830001D482843306029207060C6F80880F76082
:10284000C6F8109016481830FFF728FCFEF73AF843
:1028500000909DF8000018B19DF8000091E706E097
:102860000020FFF7E5FB83464FEADB7A641CBAF1F0
:10287000000F03D14FF6FF708442C3D34FF6FF70B1
:10288000844204D31B2000909DF8000079E71BF0E0
:10289000804F02D00348022141609DF8000070E79C
:1028A00020430020EC010020000010800548006853
:1028B0000549084205D00549012048610448FEF752
:1028C0007FB870470004024000200010EC01002097
:1028D00000F0001070B54FF480752846FFF796FBA6
:1028E000214C38B1002020702846FFF745FB01201D
:1028F000206132E00220FFF789FB28B10220FFF7B8
:102900003BFB0220207028E00820FFF77FFB28B166
:102910000820FFF731FB042020701EE02020FFF785
:1029200075FB28B12020FFF727FB0620207014E05C
:102930001020FFF76BFB28B11020FFF71DFB0520CF
:1029400020700AE04FF400752846FFF75FFB20B1C6
:102950002846FFF711FB0720207000214CF23A3087
:10296000FFF772FB207870BDEC0100202DE9F047E5
:102970008046089E14461D462948002707700761B7
:10298000C7602849CF624068022803D10602640A62
:1029900044EAC554244D2E60102068604FF0400971
:1029A000C5F80890EF604FF4806AC5F810A028467B
:1029B000FFF774FB1020FDF7E5FE00281FD105F19D
:1029C00014004AF6FF710160466090218160022187
:1029D000C160076101214161FFF7E0FA2C6011201D
:1029E0006860C5F80890EF60C5F810A02846FFF7AA
:1029F00055FB1120FDF7C6FE044614B12046BDE884
:102A0000F087012140F22A30FFF71EFB0120FFF77B
:102A1000BFFA31464046FFF7EBFD2046EFE70000E6
:102A2000EC010020008001403843002010B5094926
:102A3000086007204860402088600020C8604FF48C
:102A4000806008610846FFF729FBBDE810400720B9
:102A5000FDF798BE3843002070B50546002D16D00E
:102A60000F48008901040F4801600D214160402199
:102A700081600021C1604FF480610161FFF70EFBAE
:102A80000D20FDF77FFE04461CB1204670BD2620B8
:102A900070BD0020FFF7CCFA2860204670BD000012
:102AA000EC0100203843002010B5084800210160E7
:102AB0000C22426040228260C16011010161FFF777
:102AC000EDFABDE810400C20FDF75CBE3843002055
:102AD00070B500254AF6FF742146144E00E0491EE9
:102AE000706928B9306918B9307808B90029F6D169
:102AF000002070610E4800E0641E416B890401D51E
:102B0000002CF9D1F068012802D1FFF7CDFF05466E
:102B10002C4300D1042540F2FF50FFF727FA30780C
:102B200008B1307870BD284670BD0000EC0100206F
:102B30000080014070B500254AF6FF742146144E0E
:102B400000E0491E706928B9306918B9307808B9B1
:102B50000029F6D1002070610E4800E0641E416B30
:102B6000C90401D5002CF9D1F068012802D1FFF782
:102B70009BFF05462C4300D1042540F2FF50FFF790
:102B8000F5F9307808B1307870BD284670BD000086
:102B9000EC010020008001402DE9F0478046089EAE
:102BA00014461D462848002707700761C76027495B
:102BB000CF624068022803D10602640A44EAC55481
:102BC000234D2E60102068604FF04009C5F8089032
:102BD000EF604FF4806AC5F810A02846FFF75EFA50
:102BE0001020FDF7CFFD00282BD12C601820686045
:102BF000C5F80890EF60C5F810A02846FFF74EFA18
:102C00001820FDF7BFFD00281BD105F114024AF67C
:102C1000FF701060566090209060D76017610120AF
:102C200050611046FFF7BAF9012140F22A30FFF750
:102C30000BFA31464046FFF70FFD0120FFF7A8F9D8
:102C40003846BDE8F0870000EC010020008001401C
:102C500038430020002904D0018841F04001018060
:102C60007047018821F04001018070472DE9F04153
:102C700004460F461546114E01213046FEF7E7F98E
:102C8000032000F01BF9C7F3074000F017F9C7F362
:102C9000072000F013F9F8B200F010F904E0FF206B
:102CA00000F00CF904F8010B6D1EADB2F7D23046FE
:102CB000BDE8F0410121FEF7CCB900000010014051
:102CC0002DE9F04706460D46E8B24142CFB2140A5C
:102CD00002F0FF094FF48078002812D0E8B2404299
:102CE000C0B205EB000A34B3D01B80B2040A00F076
:102CF000FF093A462946304600F04CF855463E4416
:102D000039E074B929463046BDE8F04700F042B8D2
:102D100042462946304600F03DF805F5807506F537
:102D20008076641EE4B2F3D24A4629463046BDE8B6
:102D3000F04700F02FB8B9450ED9A9EB0700C4B28F
:102D40003A462946304600F025F85146F019224609
:102D5000BDE8F04700F01EB829463046BDE8F04710
:102D600000F018B842462946304600F013F805F541
:102D7000807506F58076641EE4B2F3D2B9F1000FD7
:102D800006D04A4629463046BDE8F04700F002B872
:102D9000BDE8F0872DE9F04105460F46144600F0E6
:102DA000DBF8154E01213046FEF751F9022000F004
:102DB00085F8C7F3074000F081F8C7F3072000F05B
:102DC0007DF8F8B200F07AF8B015844208D90446CC
:102DD0000AA000F0ADFE03E0287800F06FF86D1C4B
:102DE000641EA4B2F8D201213046FEF732F9BDE8E4
:102DF000F04100F09BB80000001001403C3C2D4623
:102E00004C4153482D4552524F522D3E3E20535077
:102E1000495F464C4153485F50616765577269741A
:102E20006520746F6F206C61726765210A00000075
:102E30002DE9F0410E4F01213846FEF708F99F2099
:102E400000F03CF8FF2000F039F80446FF2000F0C5
:102E500035F80546FF2000F031F8064601213846D6
:102E6000FEF7F7F8200440EA05203043BDE8F08182
:102E70000010014070B5044600F06EF800F056F8FE
:102E80000D4D01212846FEF7E2F8202000F016F84B
:102E9000C4F3074000F012F8C4F3072000F00EF866
:102EA000E0B200F00BF801212846FEF7D2F8BDE8A9
:102EB000704000F03BB80000001001402DE9F041E7
:102EC0000746184C4FF480552560174E09E02068DE
:102ED000411E216005D2002000F078F8C0B2BDE8A4
:102EE000F0810221304600F049F80028EFD0394641
:102EF000304600F04CF8256008E021684A1E226048
:102F000004D2012000F062F8C0B2E8E701213046A7
:102F100000F034F80028F0D0304600F036F8C0B2A7
:102F2000DDE70000040200200030014010B5094C2C
:102F300001212046FEF78BF80520FFF7BFFFFF2099
:102F4000FFF7BCFFC007FAD12046BDE810400121C1
:102F5000FEF77FB80010014010B5074C0121204654
:102F6000FEF775F80620FFF7A9FF2046BDE81040E0
:102F70000121FEF76EB8000000100140024600205B
:102F800012890A4200D001207047808970478181F0
:102F9000704730B5028802F441530A884C88CD88C6
:102FA00022438C882C4322430C8922434C892243A0
:102FB0008C892243CC8922431A430280828B22F4DB
:102FC00000628283098A018230BD000010B501468B
:102FD00002A000F0ADFD002010BD00003C3C2D46DD
:102FE0004C4153482D4552524F522D3E3E20535096
:102FF0004920B5C8B4FDB3ACCAB1216572726F7215
:10300000436F6465203D2025640A0000704700007E
:10301000024920F00700086070470000505C004043
:10302000F0B50E490E7800210D4F48F68F7C48F21E
:1030300080050BE0CBB207EB8302D2F8004C04EA28
:103040000C041C432C43C2F8004C491CB142F1D380
:10305000044940F080000860F0BD0000C00100207D
:10306000005000404C5C0040054A21F0010112680C
:1030700092B202EBC000034A001D42F810107047E4
:10308000505C0040006000400E4A126892B202EBB1
:10309000C0000D4A801D02EB40023E290AD94809B2
:1030A000C90601D1401E80B24FF4004141EA8020A0
:1030B000106070474808C90701D0401C80B28002E8
:1030C00010607047505C00400060004082000A4879
:1030D0000244D2F8000C4BF68F731840CB0401D594
:1030E00080F48050890401D580F4005048F28001BA
:1030F0000843C2F8000C70470050004081000848A7
:103100000844D0F8001C4BF68F72114081F48051B6
:1031100081F4005148F280021143C0F8001C70474E
:1031200000500040054A21F00101126892B202EB02
:10313000C000034A42F8101070470000505C004085
:1031400000600040044A126892B202EBC000034AD9
:10315000801C42F810107047505C00400060004036
:1031600082000A480244D2F8000C48F6BF731840A7
:10317000CB0601D580F01000890601D580F0200033
:1031800048F280010843C2F8000C7047005000402C
:10319000820005481044D0F8002C48F68F131A40DE
:1031A0000A43C0F8002C704700500040AFF3008085
:1031B0000CB50022019200922748016841F4803149
:1031C00001604FF4A063016801F40031009101999E
:1031D000491C0191009911B901999942F3D10168F3
:1031E000890302D50121009100E000920099012994
:1031F00030D11A490A6842F010020A600A6822F0C7
:1032000003020A600A6842F002020A6041684160F3
:1032100041684160416841F480614160416821F446
:103220007C114160416841F4E8114160016841F05E
:103230008071016001688901FCD5416821F00301BA
:103240004160416841F0020141604168C1F3810180
:103250000229FAD10CBD00000010024000200240FB
:1032600010B50C460C4A0B4B136010730D220A4923
:10327000812000F0CDFB094805220270002C07D008
:10328000042101703021BDE810400120FFF768BF24
:1032900010BD00005553425388420020F00000202A
:1032A0000148817002737047C9000020FDF7ACBF70
:1032B00010B50020FEF7C0FB0121BDE81040C80595
:1032C000FEF748BB38B51948006880B2001D4100C0
:1032D0001748095A89B200EB41040094154D28683B
:1032E000017A092913D0217801706178241D417079
:1032F0002088FCF7ADFF29684880A088A41DFCF752
:10330000A7FF29688880A41C00942088C8802868AA
:1033100001210172C08828B1FDF73EFCBDE83840AC
:10332000FEF7D4BAFEF728FAF8E70000505C004038
:10333000006000401C0000202DE9F0413D4800687D
:10334000017801F07F01002904D0022908D0022071
:10335000BDE8F081417A01F0DF0141720020F7E71A
:10336000418809B9017909B10220F1E7324B41796D
:1033700021F08004314E0A0607D506EB8402D2F80C
:10338000002CC2F30112120106E006EB8402D2F80F
:10339000002CC2F3013212031D78A5420DD962B18F
:1033A000807A50B1080612D506EB8400D0F8000CE4
:1033B000C0F30110012802D024E00220C8E7E0B2E7
:1033C000FDF7A6F9E0B23021FFF7CAFE1AE006EBDE
:1033D0008405D5F8000CC0F30130012812D14BF65A
:1033E0008F7848F280079CB1E0B2FDF77DF9D5F8FF
:1033F000000C00EA080080F4805080F4005038434C
:10340000C5F8000C0E4800684069804700209FE71F
:103410000C4890F82C100020FFF736FED6F8000C70
:1034200000EA080080F4805080F400503843C6F869
:10343000000CE7E71C000020C00100200050004005
:10344000240000206801002010B5074C002806D099
:10345000064800680068804720680A3010BD21686F
:1034600001200882002010BD1C0000202400002044
:10347000064A13685A8A002802D008681044704728
:103480008888801A18820020704700001C000020E5
:1034900010B5074C002806D00648006880688047B1
:1034A00020680C3010BD216801200882002010BD6A
:1034B0001C0000202400002010B52A4900280968BB
:1034C0000DD02948002202800A7853060BD002F062
:1034D0007F02012A1FD0022A1FD0002010BD022027
:1034E0000882002010BD497A8A0604D5027842F08D
:1034F0000202027003E0027802F0FD020270490647
:1035000004D5017841F00101017025E0017801F056
:10351000FE01017020E0144810BD4A7902F00F014D
:103520001306124A0CD502EB8101D1F8001CC1F33D
:103530000111012910D1017841F0010101700BE066
:1035400002EB8101D1F8001CC1F30131012903D143
:10355000017841F001010170054800680069804769
:10356000014810BD1C000020160000200050004043
:103570002400002010B50A480A4A00685278C17831
:10358000914203D882780AB982880AB1022010BD1C
:1035900081720548006840688047002010BD000027
:1035A0001C000020C00100202400002010B50648A7
:1035B0000068417A41F02001417204480068C06906
:1035C0008047002010BD00001C00002024000020C7
:1035D00070B520480268517921F080041E4B21F01B
:1035E00080000D0603EB800005D5D0F8003CC3F346
:1035F00001131B0104E0D0F8003CC3F301331B03AB
:10360000164D2D78A54213D954888CB983B1927A7E
:1036100072B1090648F280020CD5D0F8001C48F6B9
:10362000BF73194081F010011143C0F8001C0BE07A
:10363000022070BDD0F8001C4BF68F73194081F446
:1036400080511143C0F8001C05480068806980471C
:10365000002070BD1C00002000500040C001002070
:103660002400002010B50F4C0F4A20681268C17862
:1036700092694079904721688A7A8AB118B90879A5
:1036800008B9887808B1022010BD08480068C068F1
:10369000804720684179C172C1780173002010BD54
:1036A000022010BD1C00002020000020240000206B
:1036B0007047000010B50F48016841F0010101603A
:1036C00041680D4A1140416001680C4A1140016097
:1036D000016821F480210160416821F4FE0141600C
:1036E0004FF41F018160FFF761FD05494FF0006055
:1036F000086010BD001002400000FFF8FFFFF6FE5A
:1037000008ED00E010B50C4601462246812000F08D
:103710007FF930210120FFF723FD054903200870C0
:1037200004488168091B81600021017310BD0000FD
:10373000F000002088420020002904D0818941F453
:10374000005181817047818921F400518181704746
:1037500010B586B001210420FEF70AF90121880383
:10376000FEF706F94FF40070ADF8140018208DF83C
:10377000170003208DF81600144C05A92046FDF70C
:1037800013FC2115ADF8141004218DF8171005A9AC
:103790002046FDF709FC4FF4E13001900020ADF820
:1037A0000800ADF80A00ADF80C00ADF810000C20D0
:1037B000ADF80E00064C01A9204600F013F80121D7
:1037C0002046FFF7B9FF06B010BD00000008014019
:1037D000003801400246002012880A4200D0012031
:1037E0007047000030B585B004460D46208A4CF67F
:1037F000FF710840E98801432182A0894EF6F31148
:103800000840A9882A8911436A8902431143A1818A
:10381000A08A4FF6FF410840A9890143A18268466A
:10382000FEF7B4F81D48844201D1039800E00298E5
:10383000A189090408D500EBC00101EB001029683B
:103840004900B0FBF1F007E000EBC00101EB001014
:1038500029688900B0FBF1F06422B0FBF2F10901A4
:103860000B096FF018056B4300EB8300A3891D045F
:103870004FF0320307D503EBC000B0FBF2F000F0CD
:103880000700084306E003EB0010B0FBF2F000F085
:103890000F000843208105B030BD00000038014012
:1038A000C1F308018180704738B50446012120200A
:1038B000FEF75EF84021ADF8001003218DF80210EC
:1038C00014218DF80310084D69462846FDF76CFB5E
:1038D00024B140212846FDF7BAFB38BD40212846D7
:1038E000FDF7B7FB38BD00000014014001B502E050
:1038F0000098401E009000980028F9D108BDFCF700
:10390000D7BD00000649054808600222027205483A
:103910004860054A8A600068004700000C020020E9
:103920001C00002068010020C401002038B54FF4BD
:10393000C060FDF717FF14208DF8000001248DF8FA
:1039400001408DF802408DF803406846FDF7D8FE2F
:1039500013208DF800008DF8014000258DF80250ED
:103960008DF803406846FDF7CBFE31208DF800004E
:103970008DF801508DF802506846FDF7C1FE38BD44
:1039800070B50D4E30680D4C208020880C4D298874
:103990000840000401D5FCF7CDFD208829880840A7
:1039A000400507D54FF6FF30306006484068BDE857
:1039B0007040004770BD0000445C00405001002092
:1039C0002800002068010020FFF7DABF0549002029
:1039D000086005494FF4044008800249091F086047
:1039E00000207047445C00402800002070B50E465F
:1039F00000F07F052846FDF73FFB04462846FDF70B
:103A00002BFB014622463046FDF74CFF204670BD99
:103A100070B50E46144600F07F052846FDF73CFBC6
:103A20000146A2B2304600F007F8A1B22846FFF7DF
:103A300089FB002070BDFEE710B5521C5208084BF0
:103A400003EB4101002A09D003784478801C43EA43
:103A5000042321F8043B521E002AF5D110BD0000BA
:103A6000006000402DE9F0412A4CA36840332578DE
:103A7000294E002D07D156F8205069436161554306
:103A8000A5610121217021780025012934D1256209
:103A9000224FDFF88CC009E0216A4A1C2262795C5F
:103AA000A2680CF80210A168491CA160A1689942A3
:103AB000F2D31C4F62692346398802EB010CC4F82B
:103AC00014C09A69521A9A6156F82010B2FBF1F6A6
:103AD00001FB162232B99D608BB2ACEB0101104A9A
:103AE000FDF752FC10483A888168891A81604FF4CA
:103AF00040510220FFF7EAFAA06918B10B4800789C
:103B0000042805D1A56001210020FFF7A9FB25703D
:103B1000BDE8F0814C0000203C000020284200203D
:103B200028020020F200002088420020F00000203F
:103B30000FB4054B10B503A9044A029800F018F819
:103B400010BC5DF814FB0000C53C00080802002012
:103B500002E008C8121F08C1002AFAD17047704756
:103B6000002001E001C1121F002AFBD170470000B4
:103B70002DE9FF4F89B09B460446002506E0252825
:103B80000BD05A460B999047641C6D1C2078002876
:103B9000F5D10DB02846BDE8F08F0027B8460122C8
:103BA000474900E0074314F8013F203B02FA03F0C5
:103BB0000842F7D120782E2819D114F8010F47F0C8
:103BC00004072A280ED06FF02F022078A0F13001D0
:103BD00009290CD808EB880102EB410100EB010830
:103BE000641CF2E70A98641C50F8048B0A90207851
:103BF0000028CED0642808D0692806D075281ED0A9
:103C00005A460B9990476D1C58E00A994FF00A09E3
:103C100001C90A91002802DA40422D2102E039054B
:103C200004D52B218DF82010012103E0F90704D0E1
:103C30002021F7E78A4608AE0DE00021FAE70A994D
:103C40004FF00A0901C90A91F7E74946FCF78CFAD7
:103C5000303106F8011D0028F7D1ADEB060000F168
:103C60002009780701D44FF00108C84502DDA8EB10
:103C7000090000E000208046002706E008A85A4618
:103C8000C05D0B9990476D1C7F1C5745F6DB04E027
:103C900030205A460B9990476D1CB8F10001A8F1ED
:103CA0000108F5DC05E016F8010B5A460B99904720
:103CB0006D1CB9F10001A9F10109F4DC641C65E790
:103CC0000928010070B50446064DE1B22846FFF709
:103CD000E7FD80212846FFF77DFD0028F9D020462A
:103CE00070BD000000380140FFF732FDFDF75CFABF
:103CF000FFF7DCFAFFF7DCFAFFF718FEFFF702FE2A
:103D0000084801680529FCD107A0FFF711FF1349F6
:103D1000134C0A6882F001020A602046FFF7E6FDB4
:103D2000F7E70000E80100200D0A20B1FCBBF020FD
:103D3000463130332DD6B8C4CFD5DF2053544D3360
:103D40003220555342204D4153532053544F52413A
:103D5000474520CAB5D1E90D0A0000000C0C01400E
:103D6000FFFF0F00120100020000004083042057F3
:103D700000020102030109022000010100C0320912
:103D800004000002080650040705810240000007F5
:103D900005020240000004030904260353005400F6
:103DA0004D006900630072006F0065006C006500E3
:103DB0006300740072006F006E006900630073009E
:103DC0002603530054004D003300320020004D0004
:103DD0006100730073002000530074006F007200D4
:103DE00061006700650010035300540020004D007F
:103DF0006100730073000000183E000800000020FE
:103E00000C020000B8010008DC3E00080C02002093
:103E10005C450000603B000845020406082D0102D5
:103E200003040405620607080935800202202D53A9
:103E3000544D2001180E534420466C617368204491
:103E400069736B10ED312E302024BC4E414E262973
:103E50002442036206627002150A39E3021002145A
:103E60001A03531254124D123312321231D230133C
:103E7000530D0C1808FD16040A1557204132011382
:103E8000643D3308121A760829C713A1151408BD1A
:103E9000141B089D081A9F0413E1131B086D101AC8
:103EA00059041A2D041A21041A39044132401A9671
:103EB0003832041A9A0832265AC00822FC33201AD3
:103EC0001AE61032101A036D2978DAB9881AC56417
:0C3ED000690C5AED98011962A000000076
:0400000508000131BD
:00000001FF
